{
  "_format": "hh3-artifact-1",
  "contractName": "RerangeVault",
  "sourceName": "contracts/RerangeVault.sol",
  "abi": [
    {
      "inputs": [],
      "stateMutability": "nonpayable",
      "type": "constructor"
    },
    {
      "inputs": [],
      "name": "AlreadyInitialized",
      "type": "error"
    },
    {
      "inputs": [],
      "name": "CallFailed",
      "type": "error"
    },
    {
      "inputs": [],
      "name": "InvalidBatchLength",
      "type": "error"
    },
    {
      "inputs": [],
      "name": "InvalidExecution",
      "type": "error"
    },
    {
      "inputs": [],
      "name": "InvalidPayoutAmount",
      "type": "error"
    },
    {
      "inputs": [],
      "name": "InvalidWeth",
      "type": "error"
    },
    {
      "inputs": [],
      "name": "NotHub",
      "type": "error"
    },
    {
      "inputs": [],
      "name": "NotManager",
      "type": "error"
    },
    {
      "inputs": [],
      "name": "NotOwner",
      "type": "error"
    },
    {
      "inputs": [],
      "name": "TransferFailed",
      "type": "error"
    },
    {
      "inputs": [],
      "name": "UnknownOrder",
      "type": "error"
    },
    {
      "anonymous": false,
      "inputs": [
        {
          "indexed": true,
          "internalType": "address",
          "name": "agent",
          "type": "address"
        },
        {
          "indexed": false,
          "internalType": "uint256",
          "name": "accessExpiresAt",
          "type": "uint256"
        }
      ],
      "name": "AgentUpdated",
      "type": "event"
    },
    {
      "anonymous": false,
      "inputs": [
        {
          "indexed": true,
          "internalType": "address",
          "name": "target",
          "type": "address"
        },
        {
          "indexed": false,
          "internalType": "uint256",
          "name": "value",
          "type": "uint256"
        },
        {
          "indexed": false,
          "internalType": "bytes",
          "name": "data",
          "type": "bytes"
        },
        {
          "indexed": false,
          "internalType": "bytes",
          "name": "result",
          "type": "bytes"
        }
      ],
      "name": "CallExecuted",
      "type": "event"
    },
    {
      "anonymous": false,
      "inputs": [
        {
          "indexed": true,
          "internalType": "bytes32",
          "name": "orderKey",
          "type": "bytes32"
        },
        {
          "indexed": false,
          "internalType": "uint128",
          "name": "liquidity",
          "type": "uint128"
        },
        {
          "indexed": false,
          "internalType": "uint256",
          "name": "fee0",
          "type": "uint256"
        },
        {
          "indexed": false,
          "internalType": "uint256",
          "name": "fee1",
          "type": "uint256"
        },
        {
          "indexed": false,
          "internalType": "uint256",
          "name": "returned0",
          "type": "uint256"
        },
        {
          "indexed": false,
          "internalType": "uint256",
          "name": "returned1",
          "type": "uint256"
        }
      ],
      "name": "OrderExecuted",
      "type": "event"
    },
    {
      "anonymous": false,
      "inputs": [
        {
          "indexed": true,
          "internalType": "bytes32",
          "name": "orderKey",
          "type": "bytes32"
        },
        {
          "indexed": true,
          "internalType": "address",
          "name": "token",
          "type": "address"
        },
        {
          "indexed": true,
          "internalType": "address",
          "name": "to",
          "type": "address"
        },
        {
          "indexed": false,
          "internalType": "uint256",
          "name": "amount",
          "type": "uint256"
        }
      ],
      "name": "TokenPayout",
      "type": "event"
    },
    {
      "anonymous": false,
      "inputs": [
        {
          "indexed": true,
          "internalType": "address",
          "name": "token",
          "type": "address"
        },
        {
          "indexed": true,
          "internalType": "address",
          "name": "to",
          "type": "address"
        },
        {
          "indexed": false,
          "internalType": "uint256",
          "name": "amount",
          "type": "uint256"
        }
      ],
      "name": "TokenWithdraw",
      "type": "event"
    },
    {
      "inputs": [
        {
          "internalType": "address",
          "name": "",
          "type": "address"
        }
      ],
      "name": "agents",
      "outputs": [
        {
          "internalType": "uint256",
          "name": "",
          "type": "uint256"
        }
      ],
      "stateMutability": "view",
      "type": "function"
    },
    {
      "inputs": [
        {
          "internalType": "address",
          "name": "target",
          "type": "address"
        },
        {
          "internalType": "uint256",
          "name": "value",
          "type": "uint256"
        },
        {
          "internalType": "bytes",
          "name": "data",
          "type": "bytes"
        }
      ],
      "name": "call",
      "outputs": [
        {
          "internalType": "bytes",
          "name": "result",
          "type": "bytes"
        }
      ],
      "stateMutability": "nonpayable",
      "type": "function"
    },
    {
      "inputs": [
        {
          "internalType": "bytes32",
          "name": "orderKey",
          "type": "bytes32"
        },
        {
          "components": [
            {
              "internalType": "bool",
              "name": "collectFees",
              "type": "bool"
            },
            {
              "internalType": "bool",
              "name": "removeLiquidity",
              "type": "bool"
            },
            {
              "internalType": "bool",
              "name": "activateOrder",
              "type": "bool"
            },
            {
              "internalType": "bool",
              "name": "closeOrder",
              "type": "bool"
            },
            {
              "internalType": "int24",
              "name": "expectedTick",
              "type": "int24"
            },
            {
              "internalType": "int24",
              "name": "activateTickLower",
              "type": "int24"
            },
            {
              "internalType": "int24",
              "name": "activateTickUpper",
              "type": "int24"
            },
            {
              "internalType": "uint256",
              "name": "deployAmount0",
              "type": "uint256"
            },
            {
              "internalType": "uint256",
              "name": "deployAmount1",
              "type": "uint256"
            },
            {
              "internalType": "uint256",
              "name": "minRemove0",
              "type": "uint256"
            },
            {
              "internalType": "uint256",
              "name": "minRemove1",
              "type": "uint256"
            },
            {
              "internalType": "uint256",
              "name": "minActivate0",
              "type": "uint256"
            },
            {
              "internalType": "uint256",
              "name": "minActivate1",
              "type": "uint256"
            },
            {
              "internalType": "uint128",
              "name": "minActivateLiquidity",
              "type": "uint128"
            }
          ],
          "internalType": "struct RerangeTypes.ExecutionPlan",
          "name": "plan",
          "type": "tuple"
        }
      ],
      "name": "execute",
      "outputs": [
        {
          "components": [
            {
              "internalType": "uint256",
              "name": "fee0",
              "type": "uint256"
            },
            {
              "internalType": "uint256",
              "name": "fee1",
              "type": "uint256"
            },
            {
              "internalType": "uint256",
              "name": "returned0",
              "type": "uint256"
            },
            {
              "internalType": "uint256",
              "name": "returned1",
              "type": "uint256"
            },
            {
              "internalType": "uint256",
              "name": "used0",
              "type": "uint256"
            },
            {
              "internalType": "uint256",
              "name": "used1",
              "type": "uint256"
            },
            {
              "internalType": "uint128",
              "name": "liquidity",
              "type": "uint128"
            }
          ],
          "internalType": "struct RerangeTypes.ExecutionResult",
          "name": "result",
          "type": "tuple"
        },
        {
          "internalType": "bytes",
          "name": "nextAdapterData",
          "type": "bytes"
        }
      ],
      "stateMutability": "nonpayable",
      "type": "function"
    },
    {
      "inputs": [
        {
          "internalType": "bytes32",
          "name": "orderKey",
          "type": "bytes32"
        }
      ],
      "name": "getOrder",
      "outputs": [
        {
          "components": [
            {
              "internalType": "address",
              "name": "vault",
              "type": "address"
            },
            {
              "internalType": "address",
              "name": "adapter",
              "type": "address"
            },
            {
              "internalType": "address",
              "name": "token0",
              "type": "address"
            },
            {
              "internalType": "address",
              "name": "token1",
              "type": "address"
            },
            {
              "internalType": "uint256",
              "name": "capital",
              "type": "uint256"
            },
            {
              "internalType": "bool",
              "name": "isSell",
              "type": "bool"
            },
            {
              "internalType": "int24",
              "name": "targetTick",
              "type": "int24"
            },
            {
              "internalType": "uint24",
              "name": "triggerTicks",
              "type": "uint24"
            },
            {
              "internalType": "bytes",
              "name": "adapterData",
              "type": "bytes"
            },
            {
              "internalType": "address",
              "name": "referrer",
              "type": "address"
            },
            {
              "internalType": "bool",
              "name": "keepBalancesInVault",
              "type": "bool"
            },
            {
              "internalType": "bool",
              "name": "unwrapOut",
              "type": "bool"
            },
            {
              "internalType": "bool",
              "name": "closed",
              "type": "bool"
            },
            {
              "internalType": "uint32",
              "name": "rerangeCount",
              "type": "uint32"
            },
            {
              "internalType": "uint40",
              "name": "createdAt",
              "type": "uint40"
            },
            {
              "internalType": "uint40",
              "name": "lastRerangeAt",
              "type": "uint40"
            },
            {
              "internalType": "uint256",
              "name": "accruedFee0",
              "type": "uint256"
            },
            {
              "internalType": "uint256",
              "name": "accruedFee1",
              "type": "uint256"
            },
            {
              "internalType": "uint256",
              "name": "idle0",
              "type": "uint256"
            },
            {
              "internalType": "uint256",
              "name": "idle1",
              "type": "uint256"
            }
          ],
          "internalType": "struct RerangeTypes.Order",
          "name": "order",
          "type": "tuple"
        }
      ],
      "stateMutability": "view",
      "type": "function"
    },
    {
      "inputs": [],
      "name": "hub",
      "outputs": [
        {
          "internalType": "address",
          "name": "",
          "type": "address"
        }
      ],
      "stateMutability": "view",
      "type": "function"
    },
    {
      "inputs": [],
      "name": "index",
      "outputs": [
        {
          "internalType": "uint256",
          "name": "",
          "type": "uint256"
        }
      ],
      "stateMutability": "view",
      "type": "function"
    },
    {
      "inputs": [
        {
          "internalType": "address",
          "name": "owner_",
          "type": "address"
        },
        {
          "internalType": "address",
          "name": "hub_",
          "type": "address"
        },
        {
          "internalType": "uint256",
          "name": "index_",
          "type": "uint256"
        }
      ],
      "name": "initialize",
      "outputs": [],
      "stateMutability": "nonpayable",
      "type": "function"
    },
    {
      "inputs": [
        {
          "internalType": "address",
          "name": "account",
          "type": "address"
        }
      ],
      "name": "isManager",
      "outputs": [
        {
          "internalType": "bool",
          "name": "",
          "type": "bool"
        }
      ],
      "stateMutability": "view",
      "type": "function"
    },
    {
      "inputs": [
        {
          "internalType": "address[]",
          "name": "targets",
          "type": "address[]"
        },
        {
          "internalType": "uint256[]",
          "name": "values",
          "type": "uint256[]"
        },
        {
          "internalType": "bytes[]",
          "name": "data",
          "type": "bytes[]"
        }
      ],
      "name": "multicall",
      "outputs": [
        {
          "internalType": "bytes[]",
          "name": "results",
          "type": "bytes[]"
        }
      ],
      "stateMutability": "nonpayable",
      "type": "function"
    },
    {
      "inputs": [
        {
          "internalType": "address",
          "name": "",
          "type": "address"
        },
        {
          "internalType": "address",
          "name": "",
          "type": "address"
        },
        {
          "internalType": "uint256",
          "name": "",
          "type": "uint256"
        },
        {
          "internalType": "bytes",
          "name": "",
          "type": "bytes"
        }
      ],
      "name": "onERC721Received",
      "outputs": [
        {
          "internalType": "bytes4",
          "name": "",
          "type": "bytes4"
        }
      ],
      "stateMutability": "pure",
      "type": "function"
    },
    {
      "inputs": [],
      "name": "owner",
      "outputs": [
        {
          "internalType": "address",
          "name": "",
          "type": "address"
        }
      ],
      "stateMutability": "view",
      "type": "function"
    },
    {
      "inputs": [
        {
          "internalType": "bytes32",
          "name": "orderKey",
          "type": "bytes32"
        },
        {
          "internalType": "bool",
          "name": "isToken0",
          "type": "bool"
        },
        {
          "internalType": "address",
          "name": "to",
          "type": "address"
        },
        {
          "internalType": "uint256",
          "name": "amount",
          "type": "uint256"
        }
      ],
      "name": "payout",
      "outputs": [],
      "stateMutability": "nonpayable",
      "type": "function"
    },
    {
      "inputs": [
        {
          "internalType": "address",
          "name": "agent",
          "type": "address"
        },
        {
          "internalType": "uint256",
          "name": "accessExpiresAt",
          "type": "uint256"
        }
      ],
      "name": "setAgent",
      "outputs": [],
      "stateMutability": "nonpayable",
      "type": "function"
    },
    {
      "inputs": [
        {
          "internalType": "address",
          "name": "token",
          "type": "address"
        },
        {
          "internalType": "address",
          "name": "to",
          "type": "address"
        },
        {
          "internalType": "uint256",
          "name": "amount",
          "type": "uint256"
        }
      ],
      "name": "withdraw",
      "outputs": [],
      "stateMutability": "nonpayable",
      "type": "function"
    },
    {
      "inputs": [
        {
          "internalType": "address",
          "name": "token",
          "type": "address"
        },
        {
          "internalType": "uint256",
          "name": "amount",
          "type": "uint256"
        }
      ],
      "name": "withdraw",
      "outputs": [],
      "stateMutability": "nonpayable",
      "type": "function"
    },
    {
      "inputs": [
        {
          "internalType": "address",
          "name": "weth",
          "type": "address"
        },
        {
          "internalType": "uint256",
          "name": "amount",
          "type": "uint256"
        }
      ],
      "name": "withdrawNative",
      "outputs": [],
      "stateMutability": "nonpayable",
      "type": "function"
    },
    {
      "inputs": [
        {
          "internalType": "address",
          "name": "weth",
          "type": "address"
        }
      ],
      "name": "wrapNative",
      "outputs": [],
      "stateMutability": "payable",
      "type": "function"
    },
    {
      "stateMutability": "payable",
      "type": "receive"
    }
  ],
  "bytecode": "0x60808060405234602757600180546001600160a01b03191681179055611bee908161002c8239f35b5f80fdfe6080604052600436101561001a575b3615610018575f80fd5b005b5f3560e01c806307b18bde14611277578063150b7a02146112215780631794bb3c146111c45780632479d863146111955780632986c0e514611178578063365a86fc1461115057806345f67ac714610f485780635778472a14610f0c5780636dbf2fa014610e9b57806372b42e4a14610d3d5780638da5cb5b14610d16578063a9aa177a14610ca4578063c414f9ab14610273578063d9caed12146101fc578063f3ae2415146101a8578063f3fef3a3146101155763fd66091e0361000e5734610111576020366003190112610111576001600160a01b036100fa6112af565b165f526003602052602060405f2054604051908152f35b5f80fd5b346101115760403660031901126101115761012e6112af565b600154602435906001600160a01b03163303610199575f5461015b9082906001600160a01b031684611b1d565b5f546040519182526001600160a01b039081169216907f7b2929a0129e91c002be982e70bea0ff69b1dda1722507dc5b60490b134a985b90602090a3005b6313bd2e8360e31b5f5260045ffd5b34610111576020366003190112610111576101c16112af565b5f546001600160a01b039182169116811480156101e6575b6020906040519015158152f35b505f526003602052602060405f205442106101d9565b346101115761020a36611308565b5f549091906001600160a01b031633036102645760208161024d847f7b2929a0129e91c002be982e70bea0ff69b1dda1722507dc5b60490b134a985b9487611b1d565b6040519384526001600160a01b03908116941692a3005b6330cd747160e01b5f5260045ffd5b34610111576101e0366003190112610111576004356101c0366023190112610111575f60c06040516102a4816114de565b8281528260208201528260408201528260608201528260808201528260a0820152015260018060a01b03600154163303610199576102e181611afe565b6040818101805191516370a0823160e01b815230600482015291602090839060249082906001600160a01b03165afa9182156107b8575f92610c70575b506060830180516040516370a0823160e01b8152306004820152919390602090839060249082906001600160a01b03165afa9182156107b8575f92610c3c575b5060208501805160405163dd128b4560e01b815230600482015261020060248201529591906001600160a01b031661039a610204880189611396565b906103a36114cf565b151560448901526044358015158091036101115760648901526064358015158091036101115760848901526084358015158091036101115760a489015260a4358060020b8091036101115760c489015260c4358060020b8091036101115760e489015260e4358060020b8091036101115761010489015261010435610124890152610124356101448901526101443561016489015261016435610184890152610184356101a48901526101a4356101c48901526101c435906001600160801b0382168092036101115788805f9481946101e483015203915afa9586156107b8575f966109d3575b505161010096909601516020860151805191976001600160a01b0316916104b081611676565b916104be6040519384611530565b818352601f196104cd83611676565b015f5b8181106109af5750505f5b828110610906575050509661050b97604051988992633094234560e21b8452604060048501526044840190611372565b600319838203016024840152815180825260208201906020808260051b8501019401925f905b8282106108a45750505050509181805f9403915afa9384156107b8575f965f956107f8575b50516040516370a0823160e01b8152306004820152929190602090849060249082906001600160a01b03165afa9283156107b8575f936107c3575b50516040516370a0823160e01b815230600482015290602090829060249082906001600160a01b03165afa9081156107b8575f91610786575b508282111561077f576105dd83836117e6565b925b6080880193845281851115610778576105f882866117e6565b925b60a089019384528082111561076f57610612916117e6565b935b60408801948552808211156107665761062c916117e6565b915b60608701958387525192845161012085015111908115610757575b506107275760c08701926001600160801b038451166001600160801b036101a08301511611908115610747575b8115610736575b5061072757610723956001600160801b039485855116997fa0c70d4829a8b834fbbd91682504ef9833ef47bda7a9ab9c60e33e7d3318b25b60a08b519c60208d019d8e518651908851926040519485526020850152604084015260608301526080820152a2604051998a99518a525160208a01525160408901525160608801525160808701525160a0860152511660c084015261010060e0840152610100830190611372565b0390f35b6329adbb2960e01b5f5260045ffd5b90506101808351910151118961067d565b8251610160820151119150610676565b90506101408401511189610649565b50505f9161062e565b50505f93610614565b5f926105fa565b5f926105df565b90506020813d6020116107b0575b816107a160209383611530565b810103126101115751886105ca565b3d9150610794565b6040513d5f823e3d90fd5b9092506020813d6020116107f0575b816107df60209383611530565b810103126101115751916020610591565b3d91506107d2565b96509350903d805f883e61080c8188611530565b86019186830361010081126101115760e013610111576040519661082f886114de565b805188526020810151602089015260408101516040890152606081015160608901526080810151608089015260a081015160a089015261087160c0820161175d565b60c089015260e0810151906001600160401b0382116101115760249460209261089a92016117a0565b9591929350610556565b919395509193601f1982820301855285519081519160048310156108f2576108e2826040602080959460019782965201519181858201520190611372565b9701950192018c95949391610531565b634e487b7160e01b5f52602160045260245ffd5b5f806001600160a01b0361091a848661169d565b5151166020610929858761169d565b510151906040610939868861169d565b51015191602083519301915af19061094f611807565b91156109a0576060610961828561169d565b51015160048110156108f2576001926040519161097d836114f9565b8252602082015261098e828761169d565b52610999818661169d565b50016104db565b633204506f60e01b5f5260045ffd5b6020906040516109be816114f9565b5f8152606083820152828288010152016104d0565b9095503d805f833e6109e58183611530565b810190602081830312610111578051906001600160401b038211610111570190818103916101e08312610111576101c060405193610a22856114f9565b12610111576040516101c081018181106001600160401b03821117610c2857604052610a4d82611742565b8152610a5b60208301611742565b6020820152610a6c60408301611742565b6040820152610a7d60608301611742565b6060820152610a8e6080830161174f565b6080820152610a9f60a0830161174f565b60a0820152610ab060c0830161174f565b60c082015260e082015160e0820152610100820151610100820152610120820151610120820152610140820151610140820152610160820151610160820152610180820151610180820152610b086101a0830161175d565b6101a082015283526101c0810151906001600160401b03821161011157019080601f8301121561011157815191610b3e83611676565b92610b4c6040519485611530565b80845260208085019160051b830101918383116101115760208101915b838310610b8657505050505090610100916020820152959061048a565b82516001600160401b038111610111578201906080828703601f1901126101115760405191608083018381106001600160401b03821117610c2857604052610bd060208201611771565b8352604081015160208401526060810151906001600160401b03821161011157610c018860206080948401016117a0565b60408501520151906004821015610111578260209392606085940152815201920191610b69565b634e487b7160e01b5f52604160045260245ffd5b9091506020813d602011610c68575b81610c5860209383611530565b810103126101115751908661035e565b3d9150610c4b565b9091506020813d602011610c9c575b81610c8c60209383611530565b810103126101115751908461031e565b3d9150610c7f565b3461011157604036600319011261011157610cbd6112af565b5f5460243591906001600160a01b031633036102645760207fbaef45cead810df032ca6f6dc22d0fa78f7bc08a3e2f3177cfe2f37f4b08071a9160018060a01b031692835f52600382528060405f2055604051908152a2005b34610111575f366003190112610111575f546040516001600160a01b039091168152602090f35b3461011157608036600319011261011157600435610d596114cf565b6044356001600160a01b0381169290918383036101115760015460643593906001600160a01b0316330361019957610d9083611afe565b8215610e875760408101516001600160a01b0316925b15610e7d5761020001515b84118015610e0f575b610e005781610ded856020937f793c11e287e20a769c8d4fe3f2d50cbaac9672c5017dff726c11ef5df3fe21ed95611b1d565b6040519485526001600160a01b031693a4005b63e5baf2c160e01b5f5260045ffd5b506040516370a0823160e01b81523060048201526020816024816001600160a01b0387165afa9081156107b8575f91610e4b575b508411610dba565b90506020813d602011610e75575b81610e6660209383611530565b81010312610111575186610e43565b3d9150610e59565b6102200151610db1565b60608101516001600160a01b031692610da6565b3461011157606036600319011261011157610eb46112af565b6044356001600160401b03811161011157610ed39036906004016112db565b5f549192916001600160a01b031633036102645761072392610ef89260243590611836565b604051918291602083526020830190611372565b3461011157602036600319011261011157610f256116b1565b50610723610f346004356118e5565b604051918291602083526020830190611396565b34610111576060366003190112610111576004356001600160401b03811161011157610f78903690600401611342565b6024356001600160401b03811161011157610f97903690600401611342565b926044356001600160401b03811161011157610fb7903690600401611342565b5f54909291906001600160a01b0316330361026457858514801590611146575b61113757610fe6859295611676565b95610ff46040519788611530565b828752601f1961100384611676565b015f5b81811061112457505036829003601e1901925f5b81811061108857886040518091602082016020835281518091526040830190602060408260051b8601019301915f905b82821061105957505050500390f35b919360019193955060206110788192603f198a82030186528851611372565b960192019201859493919261104a565b61109381838a61168d565b35906001600160a01b0382168203610111576110b081858a61168d565b359187821015611110578160051b860135878112156101115786018035906001600160401b038211610111576020018136038113610111576001946110f493611836565b6110fe828c61169d565b52611109818b61169d565b500161101a565b634e487b7160e01b5f52603260045260245ffd5b60606020828b0181019190915201611006565b63ca3487f760e01b5f5260045ffd5b5082851415610fd7565b34610111575f366003190112610111576001546040516001600160a01b039091168152602090f35b34610111575f366003190112610111576020600254604051908152f35b6020366003190112610111576111a96112af565b6001546001600160a01b031633036101995761001890611625565b34610111576111d236611308565b60015490929091906001600160a01b038316611213575f80546001600160a01b039283166001600160a01b0319918216179091559116911617600155600255005b62dc149f60e41b5f5260045ffd5b346101115760803660031901126101115761123a6112af565b506112436112c5565b506064356001600160401b038111610111576112639036906004016112db565b5050604051630a85bd0160e11b8152602090f35b34610111576040366003190112610111576112906112af565b6001546001600160a01b03163303610199576100189060243590611551565b600435906001600160a01b038216820361011157565b602435906001600160a01b038216820361011157565b9181601f84011215610111578235916001600160401b038311610111576020838186019501011161011157565b6060906003190112610111576004356001600160a01b038116810361011157906024356001600160a01b0381168103610111579060443590565b9181601f84011215610111578235916001600160401b038311610111576020808501948460051b01011161011157565b805180835260209291819084018484015e5f828201840152601f01601f1916010190565b9060018060a01b03825116815260018060a01b03602083015116602082015260018060a01b03604083015116604082015260018060a01b0360608301511660608201526080820151608082015260a0820151151560a082015260c082015160020b60c082015262ffffff60e08301511660e08201526102608061142c610100850151610280610100860152610280850190611372565b9360018060a01b036101208201511661012085015261014081015115156101408501526101608101511515610160850152610180810151151561018085015263ffffffff6101a0820151166101a085015264ffffffffff6101c0820151166101c085015264ffffffffff6101e0820151166101e0850152610200810151610200850152610220810151610220850152610240810151610240850152015191015290565b60243590811515820361011157565b60e081019081106001600160401b03821117610c2857604052565b604081019081106001600160401b03821117610c2857604052565b61028081019081106001600160401b03821117610c2857604052565b90601f801991011681019081106001600160401b03821117610c2857604052565b6001600160a01b03165f811561161657821561161157813b1561011157604051632e1a7d4d60e01b8152600481018490525f8160248183875af180156107b8576115fe575b50808080808660018060a01b038254165af16115b0611807565b50156115ef57546040519283526001600160a01b0316917f7b2929a0129e91c002be982e70bea0ff69b1dda1722507dc5b60490b134a985b90602090a3565b6312171d8360e31b8152600490fd5b61160a91505f90611530565b5f5f611596565b505050565b637c39320360e11b5f5260045ffd5b6001600160a01b0316801561161657341561167357803b15610111575f60049160405192838092630d0e30db60e41b825234905af180156107b8576116675750565b5f61167191611530565b565b50565b6001600160401b038111610c285760051b60200190565b91908110156111105760051b0190565b80518210156111105760209160051b010190565b604051906116be82611514565b5f610260838281528260208201528260408201528260608201528260808201528260a08201528260c08201528260e0820152606061010082015282610120820152826101408201528261016082015282610180820152826101a0820152826101c0820152826101e08201528261020082015282610220820152826102408201520152565b5190811515820361011157565b51908160020b820361011157565b51906001600160801b038216820361011157565b51906001600160a01b038216820361011157565b6001600160401b038111610c2857601f01601f191660200190565b81601f82011215610111578051906117b782611785565b926117c56040519485611530565b8284526020838301011161011157815f9260208093018386015e8301015290565b919082039182116117f357565b634e487b7160e01b5f52601160045260245ffd5b3d15611831573d9061181882611785565b916118266040519384611530565b82523d5f602084013e565b606090565b919290925f806040518484823780858101838152039087875af193611859611807565b94156109a0576118cd6080847ff14109828d5d815638dc9502c935e53577ad503b62f45ab30bc6ff401e954acd95604051958695865260606020870152816060870152838601375f848201830152601f01601f19168301838103820160408501526001600160a01b03909616950186611372565b0390a290565b519064ffffffffff8216820361011157565b906118ee6116b1565b50600154604051632bbc239560e11b815260048101939093525f90839060249082906001600160a01b03165afa9182156107b8575f9261194c575b5081516001600160a01b0316300361193d57565b635c1c6f4b60e11b5f5260045ffd5b9091503d805f833e61195e8183611530565b810190602081830312610111578051906001600160401b038211610111570161028081830312610111576040519161199583611514565b61199e82611771565b83526119ac60208301611771565b60208401526119bd60408301611771565b60408401526119ce60608301611771565b6060840152608082015160808401526119e960a08301611742565b60a08401526119fa60c0830161174f565b60c084015260e082015162ffffff811681036101115760e0840152610100820151906001600160401b03821161011157611a359183016117a0565b610100830152611a486101208201611771565b610120830152611a5b6101408201611742565b610140830152611a6e6101608201611742565b610160830152611a816101808201611742565b6101808301526101a08101519063ffffffff8216820361011157610260916101a0840152611ab26101c082016118d3565b6101c0840152611ac56101e082016118d3565b6101e08401526102008101516102008401526102208101516102208401526102408101516102408401520151610260820152905f611929565b611b1090611b0a6116b1565b506118e5565b9061018082015161193d57565b9180156116115760405163a9059cbb60e01b81526001600160a01b039283166004820152602481019190915291602091839160449183915f91165af19081156107b8575f91611b7e575b5015611b6f57565b6312171d8360e31b5f5260045ffd5b90506020813d602011611bb0575b81611b9960209383611530565b8101031261011157611baa90611742565b5f611b67565b3d9150611b8c56fea264697066735822122002b5783a492e487976d0e3a5865e91c4edfab89f76bfedeae692a98040662a1a64736f6c634300081c0033",
  "linkReferences": {},
  "deployedLinkReferences": {},
  "immutableReferences": {},
  "inputSourceName": "project/contracts/RerangeVault.sol",
  "buildInfoId": "solc-0_8_28-6c7b7b35bc3355235d03f41871d0e700932ccc8c"
}