{
  "_format": "hh3-artifact-1",
  "contractName": "UniswapV4Adapter",
  "sourceName": "contracts/adapters/UniswapV4Adapter.sol",
  "abi": [
    {
      "inputs": [
        {
          "internalType": "address",
          "name": "positionManager_",
          "type": "address"
        },
        {
          "internalType": "address",
          "name": "stateView_",
          "type": "address"
        }
      ],
      "stateMutability": "nonpayable",
      "type": "constructor"
    },
    {
      "inputs": [],
      "name": "InvalidAdapterData",
      "type": "error"
    },
    {
      "inputs": [],
      "name": "InvalidExpectedTick",
      "type": "error"
    },
    {
      "inputs": [],
      "name": "InvalidTick",
      "type": "error"
    },
    {
      "inputs": [],
      "name": "UnknownPosition",
      "type": "error"
    },
    {
      "inputs": [],
      "name": "UnsupportedTwapWindow",
      "type": "error"
    },
    {
      "inputs": [
        {
          "internalType": "bytes",
          "name": "adapterData",
          "type": "bytes"
        },
        {
          "components": [
            {
              "internalType": "enum RerangeTypes.AdapterResultKind",
              "name": "kind",
              "type": "uint8"
            },
            {
              "internalType": "bytes",
              "name": "data",
              "type": "bytes"
            }
          ],
          "internalType": "struct RerangeTypes.AdapterResult[]",
          "name": "results",
          "type": "tuple[]"
        }
      ],
      "name": "decodeExecuteResult",
      "outputs": [
        {
          "components": [
            {
              "internalType": "uint256",
              "name": "fee0",
              "type": "uint256"
            },
            {
              "internalType": "uint256",
              "name": "fee1",
              "type": "uint256"
            },
            {
              "internalType": "uint256",
              "name": "returned0",
              "type": "uint256"
            },
            {
              "internalType": "uint256",
              "name": "returned1",
              "type": "uint256"
            },
            {
              "internalType": "uint256",
              "name": "used0",
              "type": "uint256"
            },
            {
              "internalType": "uint256",
              "name": "used1",
              "type": "uint256"
            },
            {
              "internalType": "uint128",
              "name": "liquidity",
              "type": "uint128"
            }
          ],
          "internalType": "struct RerangeTypes.ExecutionResult",
          "name": "result",
          "type": "tuple"
        },
        {
          "internalType": "bytes",
          "name": "nextAdapterData",
          "type": "bytes"
        }
      ],
      "stateMutability": "pure",
      "type": "function"
    },
    {
      "inputs": [
        {
          "internalType": "uint256",
          "name": "tokenId",
          "type": "uint256"
        }
      ],
      "name": "getActivationResult",
      "outputs": [
        {
          "internalType": "uint256",
          "name": "positionId",
          "type": "uint256"
        },
        {
          "internalType": "uint128",
          "name": "liquidity",
          "type": "uint128"
        }
      ],
      "stateMutability": "view",
      "type": "function"
    },
    {
      "inputs": [
        {
          "internalType": "address",
          "name": "vault",
          "type": "address"
        },
        {
          "internalType": "bytes32",
          "name": "orderKey",
          "type": "bytes32"
        }
      ],
      "name": "getAdapterData",
      "outputs": [
        {
          "internalType": "bytes",
          "name": "adapterData",
          "type": "bytes"
        }
      ],
      "stateMutability": "view",
      "type": "function"
    },
    {
      "inputs": [
        {
          "internalType": "address",
          "name": "vault",
          "type": "address"
        },
        {
          "internalType": "bytes32",
          "name": "orderKey",
          "type": "bytes32"
        }
      ],
      "name": "getDecodedAdapterData",
      "outputs": [
        {
          "components": [
            {
              "components": [
                {
                  "internalType": "uint24",
                  "name": "fee",
                  "type": "uint24"
                },
                {
                  "internalType": "int24",
                  "name": "tickSpacing",
                  "type": "int24"
                },
                {
                  "internalType": "address",
                  "name": "hooks",
                  "type": "address"
                },
                {
                  "internalType": "uint32",
                  "name": "twapWindow",
                  "type": "uint32"
                },
                {
                  "internalType": "bytes",
                  "name": "hookData",
                  "type": "bytes"
                },
                {
                  "internalType": "uint24",
                  "name": "maxTwapDeviation",
                  "type": "uint24"
                },
                {
                  "internalType": "uint24",
                  "name": "maxTickDeviation",
                  "type": "uint24"
                },
                {
                  "internalType": "uint16",
                  "name": "slippageBps",
                  "type": "uint16"
                }
              ],
              "internalType": "struct UniswapV4Adapter.AdapterConfig",
              "name": "config",
              "type": "tuple"
            },
            {
              "internalType": "uint256",
              "name": "positionId",
              "type": "uint256"
            }
          ],
          "internalType": "struct UniswapV4Adapter.AdapterData",
          "name": "",
          "type": "tuple"
        }
      ],
      "stateMutability": "view",
      "type": "function"
    },
    {
      "inputs": [
        {
          "internalType": "uint256",
          "name": "tokenId",
          "type": "uint256"
        }
      ],
      "name": "getFeesOwed",
      "outputs": [
        {
          "internalType": "uint256",
          "name": "amount0",
          "type": "uint256"
        },
        {
          "internalType": "uint256",
          "name": "amount1",
          "type": "uint256"
        }
      ],
      "stateMutability": "view",
      "type": "function"
    },
    {
      "inputs": [
        {
          "internalType": "bytes",
          "name": "adapterData",
          "type": "bytes"
        }
      ],
      "name": "getMaxTwapDeviation",
      "outputs": [
        {
          "internalType": "uint24",
          "name": "maxTwapDeviation",
          "type": "uint24"
        }
      ],
      "stateMutability": "pure",
      "type": "function"
    },
    {
      "inputs": [
        {
          "internalType": "address",
          "name": "token0",
          "type": "address"
        },
        {
          "internalType": "address",
          "name": "token1",
          "type": "address"
        },
        {
          "internalType": "bytes",
          "name": "adapterData",
          "type": "bytes"
        }
      ],
      "name": "getPoolState",
      "outputs": [
        {
          "components": [
            {
              "internalType": "int24",
              "name": "currentTick",
              "type": "int24"
            },
            {
              "internalType": "int24",
              "name": "twapTick",
              "type": "int24"
            },
            {
              "internalType": "uint160",
              "name": "sqrtPriceX96",
              "type": "uint160"
            },
            {
              "internalType": "uint128",
              "name": "poolLiquidity",
              "type": "uint128"
            }
          ],
          "internalType": "struct RerangeTypes.PoolState",
          "name": "",
          "type": "tuple"
        }
      ],
      "stateMutability": "view",
      "type": "function"
    },
    {
      "inputs": [
        {
          "internalType": "address",
          "name": "vault",
          "type": "address"
        },
        {
          "internalType": "bytes32",
          "name": "orderKey",
          "type": "bytes32"
        },
        {
          "internalType": "bytes",
          "name": "adapterData",
          "type": "bytes"
        }
      ],
      "name": "getPosition",
      "outputs": [
        {
          "components": [
            {
              "internalType": "bool",
              "name": "active",
              "type": "bool"
            },
            {
              "internalType": "uint128",
              "name": "liquidity",
              "type": "uint128"
            },
            {
              "internalType": "uint256",
              "name": "sourceBalance",
              "type": "uint256"
            },
            {
              "internalType": "uint256",
              "name": "targetBalance",
              "type": "uint256"
            },
            {
              "internalType": "uint256",
              "name": "pendingFee0",
              "type": "uint256"
            },
            {
              "internalType": "uint256",
              "name": "pendingFee1",
              "type": "uint256"
            },
            {
              "internalType": "int24",
              "name": "lowerTick",
              "type": "int24"
            },
            {
              "internalType": "int24",
              "name": "upperTick",
              "type": "int24"
            }
          ],
          "internalType": "struct RerangeTypes.PositionView",
          "name": "",
          "type": "tuple"
        }
      ],
      "stateMutability": "view",
      "type": "function"
    },
    {
      "inputs": [
        {
          "internalType": "address",
          "name": "",
          "type": "address"
        },
        {
          "internalType": "address",
          "name": "",
          "type": "address"
        },
        {
          "internalType": "bytes",
          "name": "adapterData",
          "type": "bytes"
        }
      ],
      "name": "getTickSpacing",
      "outputs": [
        {
          "internalType": "int24",
          "name": "tickSpacing",
          "type": "int24"
        }
      ],
      "stateMutability": "pure",
      "type": "function"
    },
    {
      "inputs": [
        {
          "internalType": "bytes",
          "name": "adapterConfig",
          "type": "bytes"
        }
      ],
      "name": "initializeAdapterData",
      "outputs": [
        {
          "internalType": "bytes",
          "name": "normalizedAdapterData",
          "type": "bytes"
        }
      ],
      "stateMutability": "pure",
      "type": "function"
    },
    {
      "inputs": [],
      "name": "positionManager",
      "outputs": [
        {
          "internalType": "address",
          "name": "",
          "type": "address"
        }
      ],
      "stateMutability": "view",
      "type": "function"
    },
    {
      "inputs": [
        {
          "internalType": "address",
          "name": "vault",
          "type": "address"
        },
        {
          "components": [
            {
              "internalType": "address",
              "name": "vault",
              "type": "address"
            },
            {
              "internalType": "address",
              "name": "adapter",
              "type": "address"
            },
            {
              "internalType": "address",
              "name": "token0",
              "type": "address"
            },
            {
              "internalType": "address",
              "name": "token1",
              "type": "address"
            },
            {
              "internalType": "uint256",
              "name": "capital",
              "type": "uint256"
            },
            {
              "internalType": "bool",
              "name": "isSell",
              "type": "bool"
            },
            {
              "internalType": "int24",
              "name": "targetTick",
              "type": "int24"
            },
            {
              "internalType": "uint24",
              "name": "triggerTicks",
              "type": "uint24"
            },
            {
              "internalType": "bytes",
              "name": "adapterData",
              "type": "bytes"
            },
            {
              "internalType": "address",
              "name": "referrer",
              "type": "address"
            },
            {
              "internalType": "bool",
              "name": "keepBalancesInVault",
              "type": "bool"
            },
            {
              "internalType": "bool",
              "name": "unwrapOut",
              "type": "bool"
            },
            {
              "internalType": "bool",
              "name": "closed",
              "type": "bool"
            },
            {
              "internalType": "uint32",
              "name": "rerangeCount",
              "type": "uint32"
            },
            {
              "internalType": "uint40",
              "name": "createdAt",
              "type": "uint40"
            },
            {
              "internalType": "uint40",
              "name": "lastRerangeAt",
              "type": "uint40"
            },
            {
              "internalType": "uint256",
              "name": "accruedFee0",
              "type": "uint256"
            },
            {
              "internalType": "uint256",
              "name": "accruedFee1",
              "type": "uint256"
            },
            {
              "internalType": "uint256",
              "name": "idle0",
              "type": "uint256"
            },
            {
              "internalType": "uint256",
              "name": "idle1",
              "type": "uint256"
            }
          ],
          "internalType": "struct RerangeTypes.Order",
          "name": "order",
          "type": "tuple"
        },
        {
          "components": [
            {
              "internalType": "bool",
              "name": "collectFees",
              "type": "bool"
            },
            {
              "internalType": "bool",
              "name": "removeLiquidity",
              "type": "bool"
            },
            {
              "internalType": "bool",
              "name": "activateOrder",
              "type": "bool"
            },
            {
              "internalType": "bool",
              "name": "closeOrder",
              "type": "bool"
            },
            {
              "internalType": "int24",
              "name": "expectedTick",
              "type": "int24"
            },
            {
              "internalType": "int24",
              "name": "activateTickLower",
              "type": "int24"
            },
            {
              "internalType": "int24",
              "name": "activateTickUpper",
              "type": "int24"
            },
            {
              "internalType": "uint256",
              "name": "deployAmount0",
              "type": "uint256"
            },
            {
              "internalType": "uint256",
              "name": "deployAmount1",
              "type": "uint256"
            },
            {
              "internalType": "uint256",
              "name": "minRemove0",
              "type": "uint256"
            },
            {
              "internalType": "uint256",
              "name": "minRemove1",
              "type": "uint256"
            },
            {
              "internalType": "uint256",
              "name": "minActivate0",
              "type": "uint256"
            },
            {
              "internalType": "uint256",
              "name": "minActivate1",
              "type": "uint256"
            },
            {
              "internalType": "uint128",
              "name": "minActivateLiquidity",
              "type": "uint128"
            }
          ],
          "internalType": "struct RerangeTypes.ExecutionPlan",
          "name": "plan",
          "type": "tuple"
        }
      ],
      "name": "prepareExecution",
      "outputs": [
        {
          "components": [
            {
              "components": [
                {
                  "internalType": "bool",
                  "name": "collectFees",
                  "type": "bool"
                },
                {
                  "internalType": "bool",
                  "name": "removeLiquidity",
                  "type": "bool"
                },
                {
                  "internalType": "bool",
                  "name": "activateOrder",
                  "type": "bool"
                },
                {
                  "internalType": "bool",
                  "name": "closeOrder",
                  "type": "bool"
                },
                {
                  "internalType": "int24",
                  "name": "expectedTick",
                  "type": "int24"
                },
                {
                  "internalType": "int24",
                  "name": "activateTickLower",
                  "type": "int24"
                },
                {
                  "internalType": "int24",
                  "name": "activateTickUpper",
                  "type": "int24"
                },
                {
                  "internalType": "uint256",
                  "name": "deployAmount0",
                  "type": "uint256"
                },
                {
                  "internalType": "uint256",
                  "name": "deployAmount1",
                  "type": "uint256"
                },
                {
                  "internalType": "uint256",
                  "name": "minRemove0",
                  "type": "uint256"
                },
                {
                  "internalType": "uint256",
                  "name": "minRemove1",
                  "type": "uint256"
                },
                {
                  "internalType": "uint256",
                  "name": "minActivate0",
                  "type": "uint256"
                },
                {
                  "internalType": "uint256",
                  "name": "minActivate1",
                  "type": "uint256"
                },
                {
                  "internalType": "uint128",
                  "name": "minActivateLiquidity",
                  "type": "uint128"
                }
              ],
              "internalType": "struct RerangeTypes.ExecutionPlan",
              "name": "plan",
              "type": "tuple"
            },
            {
              "components": [
                {
                  "internalType": "address",
                  "name": "target",
                  "type": "address"
                },
                {
                  "internalType": "uint256",
                  "name": "value",
                  "type": "uint256"
                },
                {
                  "internalType": "bytes",
                  "name": "data",
                  "type": "bytes"
                },
                {
                  "internalType": "enum RerangeTypes.AdapterResultKind",
                  "name": "resultKind",
                  "type": "uint8"
                }
              ],
              "internalType": "struct RerangeTypes.AdapterCall[]",
              "name": "calls",
              "type": "tuple[]"
            }
          ],
          "internalType": "struct RerangeTypes.PreparedExecution",
          "name": "prepared",
          "type": "tuple"
        }
      ],
      "stateMutability": "view",
      "type": "function"
    },
    {
      "inputs": [],
      "name": "stateView",
      "outputs": [
        {
          "internalType": "address",
          "name": "",
          "type": "address"
        }
      ],
      "stateMutability": "view",
      "type": "function"
    },
    {
      "inputs": [],
      "name": "venue",
      "outputs": [
        {
          "internalType": "bytes32",
          "name": "",
          "type": "bytes32"
        }
      ],
      "stateMutability": "pure",
      "type": "function"
    },
    {
      "inputs": [],
      "name": "version",
      "outputs": [
        {
          "internalType": "uint256",
          "name": "",
          "type": "uint256"
        }
      ],
      "stateMutability": "view",
      "type": "function"
    }
  ],
  "bytecode": "0x60c0346100fd57601f61329638819003918201601f19168301916001600160401b038311848410176101015780849260409485528339810103126100fd57610052602061004b83610115565b9201610115565b906001600160a01b0381161580156100ec575b6100dd5760805260a05260405161316c908161012a823960805181818161058a01528181610c6b01528181610f2801528181611407015281816115df01528181611f16015281816124170152612b80015260a0518181816101f2015281816116750152818161189701528181611fbd01526123ca0152f35b632766a4d360e11b5f5260045ffd5b506001600160a01b03821615610065565b5f80fd5b634e487b7160e01b5f52604160045260245ffd5b51906001600160a01b03821682036100fd5756fe60806040526004361015610011575f80fd5b5f3560e01c80632d258d06146118c65780634c4a3c251461188257806354fd4d5014611867578063556bb7da146117e05780635b0272d61461160e578063791b98bc146115ca578063882612dc146115805780638c4d4eca146114d7578063a270a7371461149d578063ab9550b6146113d7578063bfad0ffd14611275578063c2508d1414611048578063cc4d2ea114610fad578063d2dae95514610ef85763dd128b45146100be575f80fd5b34610ae357610200366003190112610ae3576100d86118f5565b6024356001600160401b038111610ae3576102806003198236030112610ae3576101c0366043190112610ae3576040519161011283611a83565b60405161011e81611a9e565b5f81525f60208201525f60408201525f60608201525f60808201525f60a08201525f60c08201525f60e08201525f6101008201525f6101208201525f6101408201525f6101608201525f6101808201525f6101a082015283526020830191606083526101a361019e6101976101048401846004016121ca565b3691611b11565b612260565b90815191604482016101d46101cf8560646101bd8561224c565b9601956101c98761224c565b90612d2b565b6125b9565b604051633205590760e21b81526004810191909152926080846024817f00000000000000000000000000000000000000000000000000000000000000006001600160a01b03165afa8015610aef575f945f91610ec1575b5060c435908160020b90818303610ae35762ffffff90838260c08b015116938260020b12155f14610eb05761025f91612a48565b81165b1611610ea2576040519061027582611a9e565b6044358015158103610ae3578252606435908115158203610ae357816020840152608435908115158203610ae35781604085015260a4358015158103610ae3576060850152608084015260e4358060020b8103610ae3578060a085015261010435918260020b8303610ae3578260c086015261012435948560e082015261014435908161010082015261016435610120820152610184356101408201526101a4356101608201526101c4356101808201526101e4356001600160801b0381168103610ae3578f9261036060e08f85610373956101a06101809801528752019961ffff8b511690612a65565b6101608551015261ffff89511690612a65565b91510152610e6f575b505080610e62575b610e22575b508751955f965f94815115801590610e15575b610df2575b508051610de9575b60208101948551610dd7575b889060408301918251610d70575b506103cd8a612c89565b996103db6040519b8c611ad5565b808b526103ea601f1991612c89565b015f5b818110610d3f5750505f968351610cda575b51610afa575b505161057b575b50505050505050815260405190602082526001600160801b036101a061020084019451805115156020860152602081015115156040860152604081015115156060860152606081015115156080860152608081015160020b60a086015260a081015160020b60c086015260c081015160020b60e086015260e0810151610100860152610100810151610120860152610120810151610140860152610140810151610160860152610160810151610180860152610180810151828601520151166101c0830152516101e080830152805180935261022082019260206102208260051b8501019201935f5b8281106105025784840385f35b90919261021f1985820301835285519060018060a01b038251168152602082015160208201526060610543604084015160806040850152608084019061198e565b920151906004821015610567576060015260209586019590939201906001016104f5565b634e487b7160e01b5f52602160045260245ffd5b604051631d5e528f60e21b81527f00000000000000000000000000000000000000000000000000000000000000006001600160a01b038116989197909591906020896004818d5afa988915610aef575f99610ab7575b5060e08401928b845180610a19575b506101008601988951908161097c575b5050506105ff6106059161224c565b9661224c565b9660c060a086015160020b95015160020b935190519160405198600160f91b60208b0152600b60f81b60218b0152600b60f81b60228b0152600560fa1b60238b0152600560fa1b60248b015260058a5261066060258b611ad5565b6040519860c0610670818c611ad5565b60058b5288969594939288929091601f19015f5b8d828210610952575050509161069d8786938895612d2b565b996106a794612ab2565b926080015192604051958695602087016106c1908a612576565b60c087015260e08601526001600160801b03908116610100860152908116610120850152166101408301526001600160a01b03851661016083015261018080830152610712906101a083019061198e565b03601f19810182526107249082611ad5565b61072d84612cae565b5261073783612cae565b50600160a01b60019003815116604051906020820152604081015f9052606081015f90526060815261076a608082611ad5565b61077384612cbb565b5261077d83612cbb565b506020810190600160a01b60019003825116604051906020820152604081015f9052606081015f9052606081526107b5608082611ad5565b6107be85612ccb565b526107c884612ccb565b5051604080516001600160a01b0392831660208201529184168282015281526107f2606082611ad5565b6107fb84612cdb565b5261080583612cdb565b5051604080516001600160a01b03928316602082015292909116828201528152610830606082611ad5565b61083982612ceb565b5261084381612ceb565b506040519182916108579160208401613024565b03601f19810182526108699082611ad5565b60405163dd46508f60e01b602082015290819061088b90429060248401612d0f565b03601f198101825261089d9082611ad5565b604051936108aa85611a4c565b8452602084015f90526040840152606083015f90526108c881612ca0565b926108d38286612cfb565b526108de9084612cfb565b50604051906355caa85b60e11b6020830152602482015260248152610904604482611ad5565b6040519061091182611a4c565b3082525f602083015260408201526003606082015261092f82612ca0565b5061093a8284612cfb565b526109459082612cfb565b505f80808080808061040c565b606060209183018201528c9a508b955001610684565b634e487b7160e01b5f52604160045260245ffd5b6109888a9c939c61224c565b60405163a9059cbb60e01b60208201526001600160a01b039290921660248301526044808301939093529181526109c0606482611ad5565b604051916109cd83611a4c565b6001600160a01b031682525f602083018190526040830191909152606082015290998a91906109fb83612ca0565b9b610a0591612cfb565b52610a10908d612cfb565b508b5f806105f0565b89610aa8610aaf939c610aa293610a71610a328861224c565b60405163a9059cbb60e01b60208201526001600160a01b039096166024870152604486019290925290939081606481015b03601f198101835282611ad5565b60405193610a7e85611a4c565b60018060a01b031684525f602085015260408401525f606084015280938491612ca0565b9d612cfb565b528d612cfb565b508b5f6105e0565b9098506020813d602011610ae7575b81610ad360209383611ad5565b81010312610ae35751975f6105d1565b5f80fd5b3d9150610ac6565b6040513d5f823e3d90fd5b610b098697929394959661224c565b610b128761224c565b60808b0151610120870151610140880151604051600360f81b6020820152601160f81b602182015260028152909590949392610b4f602287611ad5565b604051966060610b5f818a611ad5565b60028952601f19015f5b818110610cc957505093610c3093610bc2610c4e9f9e9d9c9b9a9894610a63610c5c99956001600160801b03610cc29d9a81604051978896602088015216604086015216606084015260808084015260a083019061198e565b610bcb86612cae565b52610bd585612cae565b50604080516001600160a01b03938416602082015291831690820152908a166060808301919091528152610c0a608082611ad5565b610c1384612cbb565b52610c1d83612cbb565b50610a6360405193849260208401613024565b60405163dd46508f60e01b6020820152998a91429060248401612d0f565b03601f1981018a5289611ad5565b60405197610c6989611a4c565b7f00000000000000000000000000000000000000000000000000000000000000006001600160a01b031689525f60208a0152604089015260026060890152610cb081612ca0565b97610cbb828d612cfb565b528a612cfb565b505f610405565b806060602080938d01015201610b69565b60405163d2dae95560e01b6020820152602480820184905281529750610d01604489611ad5565b60405197610d0e89611a4c565b3089525f60208a0152604089015260016060890152600197610d2f8c612cae565b52610d398b612cae565b506103ff565b808c6020809360405192610d5284611a4c565b5f84525f83850152606060408501525f6060850152010152016103ed565b9960028101809111610dad57809a60e0850151610dc1575b5050610100830151610d9b575b5f6103c3565b9860018101809111610dad5798610d95565b634e487b7160e01b5f52601160045260245ffd5b600391929b5001809111610dad57985f80610d88565b9760018101809111610dad57976103b5565b600197506103a9565b602091955001518015610e0657935f6103a1565b631928cfa560e21b5f5260045ffd5b506020820151151561039c565b610e4661ffff610e5592610e3a886020890151612b69565b93908383511690612a65565b6101208d510152511690612a65565b610140895101525f610389565b5060208401511515610384565b610e89918c5190610180610160830151920151928a612ab2565b6001600160801b036101a08c5101911690525f8061037c565b622dc81f60e41b5f5260045ffd5b90610eba91612a48565b8116610262565b9050610ee691945060803d608011610ef1575b610ede8183611ad5565b810190611d8d565b50509390935f61022b565b503d610ed4565b34610ae3576020366003190112610ae357604051637ba03aad60e01b81526004803590820181905260c0826024817f00000000000000000000000000000000000000000000000000000000000000006001600160a01b03165afa8015610aef57604092610f6e925f915f93610f7a575b506123b4565b82519182526020820152f35b909250610f9f915060c03d60c011610fa6575b610f978183611ad5565b810190611e24565b9185610f68565b503d610f8d565b34610ae3576040366003190112610ae35760245f610fc96118f5565b610fd16121fc565b50604051632bbc239560e11b81528335600482015292839182906001600160a01b03165afa8015610aef5761010061101691611022935f91611026575b500151612260565b604051918291826119b2565b0390f35b61104291503d805f833e61103a8183611ad5565b810190611bef565b8461100e565b34610ae3576040366003190112610ae3576004356001600160401b038111610ae35761107890369060040161190b565b90602435916001600160401b038311610ae35736602384011215610ae3578260040135906001600160401b038211610ae3576024840193602436918460051b010111610ae3576040519260e084018481106001600160401b03821117610968576040525f845260208401945f865260408501935f855260608601905f825260808701925f845261111b61019e60a08a01965f885260c08b01985f8a523691611b11565b915f5b81811061118357505050916001600160801b039391611141611022979694612a32565b95604051998a99518a525160208a01525160408901525160608801525160808701525160a0860152511660c084015261010060e084015261010083019061198e565b61118e818385612194565b356004811015610ae35760011461124a575b6111ab818385612194565b356004811015610ae35760021461123f575b6111c8818385612194565b356004811015610ae3576003146111e2575b60010161111e565b806111fd6111f36040938587612194565b60208101906121ca565b9080939181010312610ae3576020820135916001600160801b038316809303610ae357828a5260019261123957505f5b602086015290506111da565b3561122d565b5f60208501526111bd565b604061125a6111f3838587612194565b9080929181010312610ae35760208101358c52358a526111a0565b34610ae3576020366003190112610ae3576004356001600160401b038111610ae3576112a590369060040161190b565b810190602081830312610ae3578035906001600160401b038211610ae357019061010082820312610ae357604051916112dd83611a67565b6112e681612184565b835260208101358060020b8103610ae357602084015260408101356001600160a01b0381168103610ae3576040840152606081013563ffffffff81168103610ae357606084015260808101356001600160401b038111610ae357810182601f82011215610ae35760e09281602061135f93359101611b11565b608084015261137060a08201612184565b60a084015261138160c08201612184565b60c0840152013561ffff81168103610ae357816113c39160e06110229401526113a9816129f6565b604051906113b682611a83565b81525f6020820152612a32565b60405191829160208352602083019061198e565b34610ae3576020366003190112610ae357604051631efeed3360e01b8152600480359082018190526020826024817f00000000000000000000000000000000000000000000000000000000000000006001600160a01b03165afa918215610aef575f92611458575b506001600160801b036040928351928352166020820152f35b91506020823d602011611495575b8161147360209383611ad5565b81010312610ae3576001600160801b0361148e604093611dd4565b925061143f565b3d9150611466565b34610ae3575f366003190112610ae35760206040517fd5a7025bfe09b78a6dcd5f27bd9bc97341ff594621ae3dc1c45aa9b6a43f44618152f35b34610ae3576060366003190112610ae3576114f06118f5565b6044356001600160401b038111610ae3576101009161151661152092369060040161190b565b9160243590611e9a565b60e0604051918051151583526001600160801b03602082015116602084015260408101516040840152606081015160608401526080810151608084015260a081015160a084015260c081015160020b60c0840152015160020b60e0820152f35b34610ae3576020366003190112610ae3576004356001600160401b038111610ae35762ffffff60a06115be61019e610197602095369060040161190b565b51015116604051908152f35b34610ae3575f366003190112610ae3576040517f00000000000000000000000000000000000000000000000000000000000000006001600160a01b03168152602090f35b34610ae35761165461165d6101cf61019e61162836611938565b5f6060604099959694995161163c81611a4c565b82815282602082015282604082015201523691611b11565b51938491612d2b565b604051633205590760e21b81526004810182905291907f00000000000000000000000000000000000000000000000000000000000000006001600160a01b031690608084602481855afa928315610aef575f945f946117a8575b506116ce8463ffffffff606060209401511661238d565b9160246040518095819363fa6793d560e01b835260048301525afa918215610aef575f92611761575b50906080936001600160801b03928360606040519661171588611a4c565b60020b96878152602081019360020b8452604081019460018060a01b0316855201931683526040519485525160020b602085015260018060a01b03905116604084015251166060820152f35b91506020823d6020116117a0575b8161177c60209383611ad5565b81010312610ae3576080936117986001600160801b0393611dd4565b9250936116f7565b3d915061176f565b63ffffffff9550606094506020916117d16116ce9260803d608011610ef157610ede8183611ad5565b505097909796505091506116b7565b34610ae3576040366003190112610ae35760245f6117fc6118f5565b604051632bbc239560e11b81528335600482015292839182906001600160a01b03165afa908115610aef5761102291610100915f9161184d575b50015160405191829160208352602083019061198e565b61186191503d805f833e61103a8183611ad5565b83611836565b34610ae3575f366003190112610ae357602060405160018152f35b34610ae3575f366003190112610ae3576040517f00000000000000000000000000000000000000000000000000000000000000006001600160a01b03168152602090f35b34610ae3576020806118e761019e6118dd36611938565b3693509150611b11565b51015160020b604051908152f35b600435906001600160a01b0382168203610ae357565b9181601f84011215610ae3578235916001600160401b038311610ae35760208381860195010111610ae357565b6060600319820112610ae3576004356001600160a01b0381168103610ae357916024356001600160a01b0381168103610ae35791604435906001600160401b038211610ae35761198a9160040161190b565b9091565b805180835260209291819084018484015e5f828201840152601f01601f1916010190565b6020815260406020835193828285015262ffffff85511660608501528185015160020b608085015260018060a01b03838601511660a085015263ffffffff60608601511660c085015261ffff60e0611a1a60808801516101008389015261016088019061198e565b9662ffffff60a08201511661010088015262ffffff60c082015116610120880152015116610140850152015191015290565b608081019081106001600160401b0382111761096857604052565b61010081019081106001600160401b0382111761096857604052565b604081019081106001600160401b0382111761096857604052565b6101c081019081106001600160401b0382111761096857604052565b60a081019081106001600160401b0382111761096857604052565b90601f801991011681019081106001600160401b0382111761096857604052565b6001600160401b03811161096857601f01601f191660200190565b929192611b1d82611af6565b91611b2b6040519384611ad5565b829481845281830111610ae3578281602093845f960137010152565b51906001600160a01b0382168203610ae357565b51908115158203610ae357565b51908160020b8203610ae357565b519062ffffff82168203610ae357565b81601f82011215610ae357805190611b9d82611af6565b92611bab6040519485611ad5565b82845260208383010111610ae357815f9260208093018386015e8301015290565b519063ffffffff82168203610ae357565b519064ffffffffff82168203610ae357565b602081830312610ae3578051906001600160401b038211610ae357019061028082820312610ae3576040519161028083018381106001600160401b0382111761096857604052611c3e81611b47565b8352611c4c60208201611b47565b6020840152611c5d60408201611b47565b6040840152611c6e60608201611b47565b606084015260808101516080840152611c8960a08201611b5b565b60a0840152611c9a60c08201611b68565b60c0840152611cab60e08201611b76565b60e08401526101008101516001600160401b038111610ae35761026092611cd3918301611b86565b610100840152611ce66101208201611b47565b610120840152611cf96101408201611b5b565b610140840152611d0c6101608201611b5b565b610160840152611d1f6101808201611b5b565b610180840152611d326101a08201611bcc565b6101a0840152611d456101c08201611bdd565b6101c0840152611d586101e08201611bdd565b6101e0840152610200810151610200840152610220810151610220840152610240810151610240840152015161026082015290565b9190826080910312610ae35781516001600160a01b0381168103610ae35791611db860208201611b68565b91611dd16060611dca60408501611b76565b9301611b76565b90565b51906001600160801b0382168203610ae357565b60405190611df582611a67565b5f60e0838281528260208201528260408201528260608201528260808201528260a08201528260c08201520152565b8092910360c08112610ae35760a013610ae35760a0604051611e4581611aba565b611e4e84611b47565b8152611e5c60208501611b47565b6020820152611e6d60408501611b76565b6040820152611e7e60608501611b68565b6060820152611e8f60808501611b47565b608082015292015190565b9261019e5f9293611eb592611ead611de8565b503691611b11565b604051632bbc239560e11b815260048101939093529192839060249082906001600160a01b03165afa918215610aef575f92612162575b50602060a0910151910151151590801561211b57604051637ba03aad60e01b8152600481018290527f00000000000000000000000000000000000000000000000000000000000000006001600160a01b0316929060c081602481875afa928315610aef576024945f925f956120f5575b5060209060405196878092631efeed3360e01b82528560048301525afa948515610aef575f956120ac575b5090611f978482611f9f946123b4565b9290916125b9565b604051633205590760e21b81526004810191909152926080846024817f00000000000000000000000000000000000000000000000000000000000000006001600160a01b03165afa938415610aef575f94612088575b506001600160801b0361202a878760081c60020b96612013886125fd565b9860201c60020b986120248a6125fd565b91612975565b9190971696825f146120815780925b156120795750905b6040519661204e88611a67565b8015158852602088015260408701526060860152608085015260a084015260c083015260e082015290565b905090612041565b8192612039565b6120a291945060803d608011610ef157610ede8183611ad5565b505050925f611ff5565b919094506020823d6020116120ed575b816120c960209383611ad5565b81010312610ae357611f9784826120e2611f9f95611dd4565b979350935050611f87565b3d91506120bc565b6121139195506020935060c03d60c011610fa657610f978183611ad5565b949092611f5c565b5050612125611de8565b5060405161213281611a67565b5f81525f60208201525f60408201525f60608201525f60808201525f60a08201525f60c08201525f60e082015290565b60a091925061217c6020913d805f833e61103a8183611ad5565b929150611eec565b359062ffffff82168203610ae357565b91908110156121b65760051b81013590603e1981360301821215610ae3570190565b634e487b7160e01b5f52603260045260245ffd5b903590601e1981360301821215610ae357018035906001600160401b038211610ae357602001918136038313610ae357565b6040519061220982611a83565b5f60208360405161221981611a67565b8381528383820152836040820152836060820152606060808201528360a08201528360c08201528360e082015281520152565b356001600160a01b0381168103610ae35790565b906122696121fc565b508151820191602081840312610ae3576020810151906001600160401b038211610ae35701604081840312610ae3576040516122a481611a83565b60208201516001600160401b038111610ae357820160208101949061010090820312610ae357604051946122d786611a67565b6122e081611b76565b86526122ee60208201611b68565b60208701526122ff60408201611b47565b604087015261231060608201611bcc565b60608701526080810151916001600160401b038311610ae35760e092602061233b9201908301611b86565b608087015261234c60a08201611b76565b60a087015261235d60c08201611b76565b60c0870152015161ffff81168103610ae35761238b9260409160e087015285835201516020820152926129f6565b565b63ffffffff1615611dd157639f10359960e01b5f5260045ffd5b91908203918211610dad57565b906123c1909392936125b9565b60018060a01b037f000000000000000000000000000000000000000000000000000000000000000016918460081c60020b9460201c60020b946040519163dacf1d2f60e01b835283600484015260018060a01b037f0000000000000000000000000000000000000000000000000000000000000000166024840152816044840152866064840152608483015260608260a481875afa928315610aef575f5f935f95612524575b506001600160801b031694851561251657604092916064918451998a9485936353e9c1fb60e01b85526004850152602484015260448301525afa948515610aef575f905f966124d3575b50916124cd846124c86124c894611dd197966123a7565b612da2565b956123a7565b9550506040929192853d60401161250e575b816124f260409383611ad5565b81010312610ae3578451602090950151949192916124cd6124b1565b3d91506124e5565b50505050505090505f905f90565b94505091506060833d60601161256e575b8161254260609383611ad5565b81010312610ae35761255383611dd4565b60208401516040909401519392906001600160801b03612467565b3d9150612535565b80516001600160a01b03908116835260208083015182169084015260408083015162ffffff169084015260608083015160020b9084015260809182015116910152565b6040516125ca602082018093612576565b60a081526125d960c082611ad5565b51902090565b81156125e9570490565b634e487b7160e01b5f52601260045260245ffd5b62ffffff8160020b915f83125f1461296e575f0316905b620d89e8821161295f57600182161561294d576001600160881b036ffffcb933bd6fad37aa2d162d1a5940015b169160028116612931575b60048116612915575b600881166128f9575b601081166128dd575b602081166128c1575b604081166128a5575b60808116612889575b610100811661286d575b6102008116612851575b6104008116612835575b6108008116612819575b61100081166127fd575b61200081166127e1575b61400081166127c5575b61800081166127a9575b62010000811661278d575b620200008116612772575b620400008116612757575b620800001661273e575b5f12612730575b63ffffffff8116612728575f905b60201c60ff91909116016001600160a01b031690565b600190612712565b80156125e9575f1904612704565b6b048a170391f7dc42444e8fa290910260801c906126fd565b6d2216e584f5fa1ea926041bedfe9890920260801c916126f3565b916e5d6af8dedb81196699c329225ee6040260801c916126e8565b916f09aa508b5b7a84e1c677de54f3e99bc90260801c916126dd565b916f31be135f97d08fd981231505542fcfa60260801c916126d2565b916f70d869a156d2a1b890bb3df62baf32f70260801c916126c8565b916fa9f746462d870fdf8a65dc1f90e061e50260801c916126be565b916fd097f3bdfd2022b8845ad8f792aa58250260801c916126b4565b916fe7159475a2c29b7443b29c7fa6e889d90260801c916126aa565b916ff3392b0822b70005940c7a398e4b70f30260801c916126a0565b916ff987a7253ac413176f2b074cf7815e540260801c91612696565b916ffcbe86c7900a88aedcffc83b479aa3a40260801c9161268c565b916ffe5dee046a99a2a811c461f1969c30530260801c91612682565b916fff2ea16466c96a3843ec78b326b528610260801c91612679565b916fff973b41fa98c081472e6896dfb254c00260801c91612670565b916fffcb9843d60f6159c9db58835c9266440260801c91612667565b916fffe5caca7e10e4e61c3624eaa0941cd00260801c9161265e565b916ffff2e50f5f656932ef12357cf3c7fdcc0260801c91612655565b916ffff97272373d413259a46990580e213a0260801c9161264c565b6001600160881b03600160801b612641565b6333a3bdff60e21b5f5260045ffd5b1690612614565b9093925f929091836001600160a01b03808416908816116129ee575b6001600160a01b0382811690881681116129b6575050506129b3929394612fb0565b91565b93945090926001600160a01b03831611156129e25750906129dc83611dd1949383612fb0565b94612f6d565b94611dd1939250612f6d565b959195612991565b602081015160020b15908115612a1d575b50612a0e57565b632766a4d360e11b5f5260045ffd5b612710915060e061ffff91015116115f612a07565b611dd1610a6391604051928391602083016119b2565b600291820b910b0390627fffff198212627fffff831317610dad57565b90811590818015612aa6575b612a9f5761ffff166127100361ffff8111610dad5761ffff16808302928304141715610dad57612710900490565b5050505f90565b5061ffff811615612a71565b939190612ac1612ac7916125fd565b916125fd565b9182826001600160a01b0380831690821611612b5e575b50506001600160a01b03858116959083168611612b01575050611dd193506130dd565b919490939192906001600160a01b0382161115612b52578291612b2891612b2e95946130dd565b93613096565b6001600160801b0381166001600160801b038316105f14612b4d575090565b905090565b915050611dd192613096565b935091505f80612ade565b604051637ba03aad60e01b815260048101829052917f00000000000000000000000000000000000000000000000000000000000000006001600160a01b03169160c084602481865afa938415610aef575f94612c63575b50602090602460405180958193631efeed3360e01b835260048301525afa918215610aef575f92612c27575b506001600160801b03821615612c1e5782612024612c1261198a9560081c60020b6125fd565b9160201c60020b6125fd565b5050505f905f90565b9091506020813d602011612c5b575b81612c4360209383611ad5565b81010312610ae357612c5490611dd4565b905f612bec565b3d9150612c36565b6020919450612c809060c03d60c011610fa657610f978183611ad5565b90509390612bc0565b6001600160401b0381116109685760051b60200190565b5f198114610dad5760010190565b8051156121b65760200190565b8051600110156121b65760400190565b8051600210156121b65760600190565b8051600310156121b65760800190565b8051600410156121b65760a00190565b80518210156121b65760209160051b010190565b929190612d2660209160408652604086019061198e565b930152565b915f6080604051612d3b81611aba565b828152826020820152826040820152826060820152015262ffffff815116602082015160020b91604060018060a01b03910151169260405194612d7d86611aba565b6001600160a01b03908116865216602085015260408401526060830152608082015290565b5f91905f198282099180820293848085109403938085039414612de857600160801b841015612de55750600160801b910990828211900360801b910360801c1790565b80fd5b5050505060801c90565b5f91905f198282099180820293848085109403938085039414612e3557600160601b841015612de55750600160601b910990828211900360a01b910360601c1790565b5050505060601c90565b5f19600160601b8209918160601b91828085109403938085039414612ec25783821115610ae3578190600160601b9009600182190182168092046002816003021880820260020302808202600203028082026002030280820260020302808202600203028091026002030293600183805f03040190848311900302920304170290565b5090611dd192506125df565b915f198284099282810292838086109503948086039514612f475784831115610ae357829109600182190182168092046002816003021880820260020302808202600203028082026002030280820260020302808202600203028091026002030293600183805f03040190848311900302920304170290565b505090611dd192506125df565b6001600160a01b039182169082160391908211610dad57565b611dd192916001600160801b03916001600160a01b0380831690821611612faa575b6001600160a01b0391612fa29190612f54565b169116612df2565b90612f8f565b611dd192909161300d91906001600160a01b038082169085161161301e575b6001600160a01b03612fe18583612f54565b6001600160a01b039092169291169060601b6fffffffffffffffffffffffffffffffff60601b16612ece565b6001600160a01b03909116906125df565b92612fcf565b906130379060408352604083019061198e565b906020818303910152815180825260208201916020808360051b8301019401925f915b83831061306957505050505090565b9091929394602080613087600193601f19868203018752895161198e565b9701930193019193929061305a565b6001600160801b03926130d39290916001600160a01b03808316908216116130d7575b6001600160a01b03916130cc9190612f54565b1690612e3f565b1690565b906130b9565b6001600160801b03926130d3929091906001600160a01b0380821690831611613130575b61312961311a6001600160a01b03838116908516612df2565b926001600160a01b0392612f54565b1691612ece565b9061310156fea26469706673582212205a8d34999e1aa47ce15c88b257e2ea0458c38d9650a7231155009f306a90310964736f6c634300081c0033",
  "linkReferences": {},
  "deployedLinkReferences": {},
  "immutableReferences": {
    "4724": [
      {
        "length": 32,
        "start": 1418
      },
      {
        "length": 32,
        "start": 3179
      },
      {
        "length": 32,
        "start": 3880
      },
      {
        "length": 32,
        "start": 5127
      },
      {
        "length": 32,
        "start": 5599
      },
      {
        "length": 32,
        "start": 7958
      },
      {
        "length": 32,
        "start": 9239
      },
      {
        "length": 32,
        "start": 11136
      }
    ],
    "4726": [
      {
        "length": 32,
        "start": 498
      },
      {
        "length": 32,
        "start": 5749
      },
      {
        "length": 32,
        "start": 6295
      },
      {
        "length": 32,
        "start": 8125
      },
      {
        "length": 32,
        "start": 9162
      }
    ]
  },
  "inputSourceName": "project/contracts/adapters/UniswapV4Adapter.sol",
  "buildInfoId": "solc-0_8_28-6c7b7b35bc3355235d03f41871d0e700932ccc8c"
}