{
  "_format": "hh3-artifact-1",
  "contractName": "UniswapV3Adapter",
  "sourceName": "contracts/adapters/UniswapV3Adapter.sol",
  "abi": [
    {
      "inputs": [
        {
          "internalType": "address",
          "name": "positionManager_",
          "type": "address"
        }
      ],
      "stateMutability": "nonpayable",
      "type": "constructor"
    },
    {
      "inputs": [],
      "name": "InvalidAdapterData",
      "type": "error"
    },
    {
      "inputs": [],
      "name": "InvalidExpectedTick",
      "type": "error"
    },
    {
      "inputs": [],
      "name": "InvalidTick",
      "type": "error"
    },
    {
      "inputs": [],
      "name": "UnknownPosition",
      "type": "error"
    },
    {
      "inputs": [
        {
          "internalType": "bytes",
          "name": "adapterData",
          "type": "bytes"
        },
        {
          "components": [
            {
              "internalType": "enum RerangeTypes.AdapterResultKind",
              "name": "kind",
              "type": "uint8"
            },
            {
              "internalType": "bytes",
              "name": "data",
              "type": "bytes"
            }
          ],
          "internalType": "struct RerangeTypes.AdapterResult[]",
          "name": "results",
          "type": "tuple[]"
        }
      ],
      "name": "decodeExecuteResult",
      "outputs": [
        {
          "components": [
            {
              "internalType": "uint256",
              "name": "fee0",
              "type": "uint256"
            },
            {
              "internalType": "uint256",
              "name": "fee1",
              "type": "uint256"
            },
            {
              "internalType": "uint256",
              "name": "returned0",
              "type": "uint256"
            },
            {
              "internalType": "uint256",
              "name": "returned1",
              "type": "uint256"
            },
            {
              "internalType": "uint256",
              "name": "used0",
              "type": "uint256"
            },
            {
              "internalType": "uint256",
              "name": "used1",
              "type": "uint256"
            },
            {
              "internalType": "uint128",
              "name": "liquidity",
              "type": "uint128"
            }
          ],
          "internalType": "struct RerangeTypes.ExecutionResult",
          "name": "result",
          "type": "tuple"
        },
        {
          "internalType": "bytes",
          "name": "nextAdapterData",
          "type": "bytes"
        }
      ],
      "stateMutability": "pure",
      "type": "function"
    },
    {
      "inputs": [
        {
          "internalType": "address",
          "name": "vault",
          "type": "address"
        },
        {
          "internalType": "bytes32",
          "name": "orderKey",
          "type": "bytes32"
        }
      ],
      "name": "getAdapterData",
      "outputs": [
        {
          "internalType": "bytes",
          "name": "adapterData",
          "type": "bytes"
        }
      ],
      "stateMutability": "view",
      "type": "function"
    },
    {
      "inputs": [
        {
          "internalType": "address",
          "name": "vault",
          "type": "address"
        },
        {
          "internalType": "bytes32",
          "name": "orderKey",
          "type": "bytes32"
        }
      ],
      "name": "getDecodedAdapterData",
      "outputs": [
        {
          "components": [
            {
              "components": [
                {
                  "internalType": "address",
                  "name": "pool",
                  "type": "address"
                },
                {
                  "internalType": "uint24",
                  "name": "fee",
                  "type": "uint24"
                },
                {
                  "internalType": "uint32",
                  "name": "twapWindow",
                  "type": "uint32"
                },
                {
                  "internalType": "uint24",
                  "name": "maxTwapDeviation",
                  "type": "uint24"
                },
                {
                  "internalType": "uint24",
                  "name": "maxTickDeviation",
                  "type": "uint24"
                },
                {
                  "internalType": "uint16",
                  "name": "slippageBps",
                  "type": "uint16"
                }
              ],
              "internalType": "struct UniswapV3Adapter.AdapterConfig",
              "name": "config",
              "type": "tuple"
            },
            {
              "internalType": "uint256",
              "name": "positionId",
              "type": "uint256"
            }
          ],
          "internalType": "struct UniswapV3Adapter.AdapterData",
          "name": "",
          "type": "tuple"
        }
      ],
      "stateMutability": "view",
      "type": "function"
    },
    {
      "inputs": [
        {
          "internalType": "bytes",
          "name": "adapterData",
          "type": "bytes"
        }
      ],
      "name": "getMaxTwapDeviation",
      "outputs": [
        {
          "internalType": "uint24",
          "name": "maxTwapDeviation",
          "type": "uint24"
        }
      ],
      "stateMutability": "pure",
      "type": "function"
    },
    {
      "inputs": [
        {
          "internalType": "address",
          "name": "",
          "type": "address"
        },
        {
          "internalType": "address",
          "name": "",
          "type": "address"
        },
        {
          "internalType": "bytes",
          "name": "adapterData",
          "type": "bytes"
        }
      ],
      "name": "getPoolState",
      "outputs": [
        {
          "components": [
            {
              "internalType": "int24",
              "name": "currentTick",
              "type": "int24"
            },
            {
              "internalType": "int24",
              "name": "twapTick",
              "type": "int24"
            },
            {
              "internalType": "uint160",
              "name": "sqrtPriceX96",
              "type": "uint160"
            },
            {
              "internalType": "uint128",
              "name": "poolLiquidity",
              "type": "uint128"
            }
          ],
          "internalType": "struct RerangeTypes.PoolState",
          "name": "",
          "type": "tuple"
        }
      ],
      "stateMutability": "view",
      "type": "function"
    },
    {
      "inputs": [
        {
          "internalType": "address",
          "name": "vault",
          "type": "address"
        },
        {
          "internalType": "bytes32",
          "name": "orderKey",
          "type": "bytes32"
        },
        {
          "internalType": "bytes",
          "name": "adapterData",
          "type": "bytes"
        }
      ],
      "name": "getPosition",
      "outputs": [
        {
          "components": [
            {
              "internalType": "bool",
              "name": "active",
              "type": "bool"
            },
            {
              "internalType": "uint128",
              "name": "liquidity",
              "type": "uint128"
            },
            {
              "internalType": "uint256",
              "name": "sourceBalance",
              "type": "uint256"
            },
            {
              "internalType": "uint256",
              "name": "targetBalance",
              "type": "uint256"
            },
            {
              "internalType": "uint256",
              "name": "pendingFee0",
              "type": "uint256"
            },
            {
              "internalType": "uint256",
              "name": "pendingFee1",
              "type": "uint256"
            },
            {
              "internalType": "int24",
              "name": "lowerTick",
              "type": "int24"
            },
            {
              "internalType": "int24",
              "name": "upperTick",
              "type": "int24"
            }
          ],
          "internalType": "struct RerangeTypes.PositionView",
          "name": "",
          "type": "tuple"
        }
      ],
      "stateMutability": "view",
      "type": "function"
    },
    {
      "inputs": [
        {
          "internalType": "address",
          "name": "",
          "type": "address"
        },
        {
          "internalType": "address",
          "name": "",
          "type": "address"
        },
        {
          "internalType": "bytes",
          "name": "adapterData",
          "type": "bytes"
        }
      ],
      "name": "getTickSpacing",
      "outputs": [
        {
          "internalType": "int24",
          "name": "tickSpacing",
          "type": "int24"
        }
      ],
      "stateMutability": "view",
      "type": "function"
    },
    {
      "inputs": [
        {
          "internalType": "bytes",
          "name": "adapterConfig",
          "type": "bytes"
        }
      ],
      "name": "initializeAdapterData",
      "outputs": [
        {
          "internalType": "bytes",
          "name": "normalizedAdapterData",
          "type": "bytes"
        }
      ],
      "stateMutability": "pure",
      "type": "function"
    },
    {
      "inputs": [],
      "name": "positionManager",
      "outputs": [
        {
          "internalType": "address",
          "name": "",
          "type": "address"
        }
      ],
      "stateMutability": "view",
      "type": "function"
    },
    {
      "inputs": [
        {
          "internalType": "address",
          "name": "vault",
          "type": "address"
        },
        {
          "components": [
            {
              "internalType": "address",
              "name": "vault",
              "type": "address"
            },
            {
              "internalType": "address",
              "name": "adapter",
              "type": "address"
            },
            {
              "internalType": "address",
              "name": "token0",
              "type": "address"
            },
            {
              "internalType": "address",
              "name": "token1",
              "type": "address"
            },
            {
              "internalType": "uint256",
              "name": "capital",
              "type": "uint256"
            },
            {
              "internalType": "bool",
              "name": "isSell",
              "type": "bool"
            },
            {
              "internalType": "int24",
              "name": "targetTick",
              "type": "int24"
            },
            {
              "internalType": "uint24",
              "name": "triggerTicks",
              "type": "uint24"
            },
            {
              "internalType": "bytes",
              "name": "adapterData",
              "type": "bytes"
            },
            {
              "internalType": "address",
              "name": "referrer",
              "type": "address"
            },
            {
              "internalType": "bool",
              "name": "keepBalancesInVault",
              "type": "bool"
            },
            {
              "internalType": "bool",
              "name": "unwrapOut",
              "type": "bool"
            },
            {
              "internalType": "bool",
              "name": "closed",
              "type": "bool"
            },
            {
              "internalType": "uint32",
              "name": "rerangeCount",
              "type": "uint32"
            },
            {
              "internalType": "uint40",
              "name": "createdAt",
              "type": "uint40"
            },
            {
              "internalType": "uint40",
              "name": "lastRerangeAt",
              "type": "uint40"
            },
            {
              "internalType": "uint256",
              "name": "accruedFee0",
              "type": "uint256"
            },
            {
              "internalType": "uint256",
              "name": "accruedFee1",
              "type": "uint256"
            },
            {
              "internalType": "uint256",
              "name": "idle0",
              "type": "uint256"
            },
            {
              "internalType": "uint256",
              "name": "idle1",
              "type": "uint256"
            }
          ],
          "internalType": "struct RerangeTypes.Order",
          "name": "order",
          "type": "tuple"
        },
        {
          "components": [
            {
              "internalType": "bool",
              "name": "collectFees",
              "type": "bool"
            },
            {
              "internalType": "bool",
              "name": "removeLiquidity",
              "type": "bool"
            },
            {
              "internalType": "bool",
              "name": "activateOrder",
              "type": "bool"
            },
            {
              "internalType": "bool",
              "name": "closeOrder",
              "type": "bool"
            },
            {
              "internalType": "int24",
              "name": "expectedTick",
              "type": "int24"
            },
            {
              "internalType": "int24",
              "name": "activateTickLower",
              "type": "int24"
            },
            {
              "internalType": "int24",
              "name": "activateTickUpper",
              "type": "int24"
            },
            {
              "internalType": "uint256",
              "name": "deployAmount0",
              "type": "uint256"
            },
            {
              "internalType": "uint256",
              "name": "deployAmount1",
              "type": "uint256"
            },
            {
              "internalType": "uint256",
              "name": "minRemove0",
              "type": "uint256"
            },
            {
              "internalType": "uint256",
              "name": "minRemove1",
              "type": "uint256"
            },
            {
              "internalType": "uint256",
              "name": "minActivate0",
              "type": "uint256"
            },
            {
              "internalType": "uint256",
              "name": "minActivate1",
              "type": "uint256"
            },
            {
              "internalType": "uint128",
              "name": "minActivateLiquidity",
              "type": "uint128"
            }
          ],
          "internalType": "struct RerangeTypes.ExecutionPlan",
          "name": "plan",
          "type": "tuple"
        }
      ],
      "name": "prepareExecution",
      "outputs": [
        {
          "components": [
            {
              "components": [
                {
                  "internalType": "bool",
                  "name": "collectFees",
                  "type": "bool"
                },
                {
                  "internalType": "bool",
                  "name": "removeLiquidity",
                  "type": "bool"
                },
                {
                  "internalType": "bool",
                  "name": "activateOrder",
                  "type": "bool"
                },
                {
                  "internalType": "bool",
                  "name": "closeOrder",
                  "type": "bool"
                },
                {
                  "internalType": "int24",
                  "name": "expectedTick",
                  "type": "int24"
                },
                {
                  "internalType": "int24",
                  "name": "activateTickLower",
                  "type": "int24"
                },
                {
                  "internalType": "int24",
                  "name": "activateTickUpper",
                  "type": "int24"
                },
                {
                  "internalType": "uint256",
                  "name": "deployAmount0",
                  "type": "uint256"
                },
                {
                  "internalType": "uint256",
                  "name": "deployAmount1",
                  "type": "uint256"
                },
                {
                  "internalType": "uint256",
                  "name": "minRemove0",
                  "type": "uint256"
                },
                {
                  "internalType": "uint256",
                  "name": "minRemove1",
                  "type": "uint256"
                },
                {
                  "internalType": "uint256",
                  "name": "minActivate0",
                  "type": "uint256"
                },
                {
                  "internalType": "uint256",
                  "name": "minActivate1",
                  "type": "uint256"
                },
                {
                  "internalType": "uint128",
                  "name": "minActivateLiquidity",
                  "type": "uint128"
                }
              ],
              "internalType": "struct RerangeTypes.ExecutionPlan",
              "name": "plan",
              "type": "tuple"
            },
            {
              "components": [
                {
                  "internalType": "address",
                  "name": "target",
                  "type": "address"
                },
                {
                  "internalType": "uint256",
                  "name": "value",
                  "type": "uint256"
                },
                {
                  "internalType": "bytes",
                  "name": "data",
                  "type": "bytes"
                },
                {
                  "internalType": "enum RerangeTypes.AdapterResultKind",
                  "name": "resultKind",
                  "type": "uint8"
                }
              ],
              "internalType": "struct RerangeTypes.AdapterCall[]",
              "name": "calls",
              "type": "tuple[]"
            }
          ],
          "internalType": "struct RerangeTypes.PreparedExecution",
          "name": "prepared",
          "type": "tuple"
        }
      ],
      "stateMutability": "view",
      "type": "function"
    },
    {
      "inputs": [],
      "name": "venue",
      "outputs": [
        {
          "internalType": "bytes32",
          "name": "",
          "type": "bytes32"
        }
      ],
      "stateMutability": "pure",
      "type": "function"
    },
    {
      "inputs": [],
      "name": "version",
      "outputs": [
        {
          "internalType": "uint256",
          "name": "",
          "type": "uint256"
        }
      ],
      "stateMutability": "view",
      "type": "function"
    }
  ],
  "bytecode": "0x60a0346100be57601f612d8d38819003918201601f19168301916001600160401b038311848410176100c2578084926020946040528339810103126100be57516001600160a01b0381168082036100be57156100af57608052604051612cb690816100d7823960805181818161069c0152818161085e0152818161091f01528181610a4501528181610b4401528181610c2801528181610d21015281816114b401528181611e0801526128cf0152f35b632766a4d360e11b5f5260045ffd5b5f80fd5b634e487b7160e01b5f52604160045260245ffdfe60806040526004361015610011575f80fd5b5f3560e01c80632d258d061461172a57806354fd4d501461170f578063556bb7da146116885780635b0272d6146114e3578063791b98bc1461149f578063882612dc146114555780638c4d4eca146113ac578063a270a73714611372578063bfad0ffd14611274578063c2508d141461102d578063cc4d2ea114610f925763dd128b451461009d575f80fd5b34610f3957610200366003190112610f39576100b76117c1565b6024356001600160401b038111610f39576102806003198236030112610f39576101c0366043190112610f3957604051916100f18361191c565b6040516100fd81611937565b5f81525f60208201525f60408201525f60608201525f60808201525f60a08201525f60c08201525f60e08201525f6101008201525f6101208201525f6101408201525f6101608201525f6101808201525f6101a0820152835260208301916060835261018261017d610176610104840184600401612027565b36916119ab565b6120b2565b80518051604051633850c7bd60e01b81529060e090829060049082906001600160a01b03165afa8015610dc4575f915f91610f5c575b5060c435908160020b90818303610f395762ffffff908382608088015116938260020b12155f14610f4b576101ec91612846565b81165b1611610f3d576040519061020282611937565b6044358015158103610f39578252606435908115158203610f3957816020840152608435908115158203610f395781604085015260a4358015158103610f39576060850152608084015260e435908160020b8203610f39578160a085015261010435908160020b8203610f39578160c086015261012435948560e0820152610144358061010083015261016435610120830152610184356101408301526101a4356101608301526101c4356101808301526101e435916001600160801b0383168303610f39578e6102fc936101a0830152528d6101606102ec60a08c019961ffff8b511690612863565b9151015261ffff87511690612863565b6101808d510152610e56575b505080610e49575b610e08575b50508551925f945f935f90865115801590610dfb575b610dd8575b508551610dcf575b60208601948551610cff575b879160408801928351610c98575b5061035c89612166565b9861036a6040519a8b61196f565b808a52610379601f1991612166565b015f5b818110610c805750505f968851610b92575b516109a1575b505051610509575b5050505050815260405190602082526001600160801b036101a061020084019451805115156020860152602081015115156040860152604081015115156060860152606081015115156080860152608081015160020b60a086015260a081015160020b60c086015260c081015160020b60e086015260e0810151610100860152610100810151610120860152610120810151610140860152610140810151610160860152610160810151610180860152610180810151828601520151166101c0830152516101e080830152805180935261022082019260206102208260051b8501019201935f5b8281106104905784840385f35b90919261021f1985820301835285519060018060a01b0382511681526020820151602082015260606104d1604084015160806040850152608084019061185a565b9201519060048210156104f557606001526020958601959093920190600101610483565b634e487b7160e01b5f52602160045260245ffd5b60e085018051806108ee575b5061010086019283518061082d575b506044810192606461053585612997565b92019762ffffff60206105478b612997565b980151169060a081015160020b60c082015160020b86519089519261018061016086015195015195604051986101608a018a81106001600160401b0382111761081957604052600160a01b60019003168952602089019c600160a01b60019003168d5260408901908152606089019182526080890192835260a0890193845260c0890194855260e089019586526101008901968752610120890197600160a01b60019003168852610140890198428a526040519d8e91634418b22b60e11b6020840152600160a01b600190039051166024830152600160a01b6001900390511690604401525162ffffff1660648d01525160020b60848c01525160020b60a48b01525160c48a01525160e48901525161010488015251610124870152600160a01b6001900390511661014486015251610164850152610164845261068d6101848561196f565b6040519061069a826118e6565b7f00000000000000000000000000000000000000000000000000000000000000006001600160a01b03168083525f60208401526040830195909552600360608301526106e586612989565b9586926106f2828b61219a565b526106fd908961219a565b5051610797575b505051610713575b808061039c565b61071f61078e93612997565b906040519063095ea7b360e01b602083015260248201525f60448201526044815261074b60648261196f565b60405191610758836118e6565b60018060a01b031682525f602083015260408201525f606082015261077c82612989565b50610787828561219a565b528261219a565b505f808061070c565b6107ff6107a661081193612997565b9560405163095ea7b360e01b60208201528660248201525f6044820152604481526107d260648261196f565b604051976107df896118e6565b60018060a01b031688525f602089015260408801525f6060880152612989565b9461080a828961219a565b528661219a565b505f80610704565b634e487b7160e01b5f52604160045260245ffd5b956108e7906108966108a461084460648601612997565b60405163095ea7b360e01b60208201526001600160a01b037f0000000000000000000000000000000000000000000000000000000000000000166024820152604481019b909b52999182906064820190565b03601f19810183528261196f565b604051986108b18a6118e6565b60018060a01b031689525f60208a015260408901525f60608901526108d581612989565b976108e0828c61219a565b528961219a565b505f610524565b9461099a9061089661095761090560448801612997565b60405163095ea7b360e01b60208201526001600160a01b037f0000000000000000000000000000000000000000000000000000000000000000166024820152604481019a909a52989182906064820190565b60405197610964896118e6565b60018060a01b031688525f602089015260408801525f606088015261098881612989565b96610993828b61219a565b528861219a565b505f610515565b9095906001600160801b031680610a96575b506109bc612965565b50604051956109ca876118e6565b86526001600160801b036020870160018060a01b0385168152816040890181815260608a01928284526040519a63fc6f786560e01b60208d01525160248c015260018060a01b0390511660448b0152511660648901525116608487015260848652610a3660a48761196f565b60405195610a43876118e6565b7f00000000000000000000000000000000000000000000000000000000000000006001600160a01b031687525f60208801526040870152610a8e906002606088015261098881612989565b505f80610394565b9061012088015190610140890151926040519360a08501938585106001600160401b0386111761081957610b8b946040528a86526020860192835260408601908152606086019182526001600160801b03608087019342855260405197630624e65f60e11b60208a0152516024890152511660448701525160648601525160848501525160a484015260a48352610b2e60c48461196f565b60405192610b3b846118e6565b60018060a01b037f00000000000000000000000000000000000000000000000000000000000000001684525f602085015260408401525f6060840152610b8081612989565b926108e0828c61219a565b505f6109b3565b60249750610b9e612965565b506001600160801b03604051610bb3816118e6565b848152816020820160018060a01b0389168152604083019082825260608401938385526040519d8e9163fc6f786560e01b60208401525191015260018060a01b0390511660448d0152511660648b01525116608489015260848852610c1960a48961196f565b60405197610c26896118e6565b7f00000000000000000000000000000000000000000000000000000000000000006001600160a01b031689525f60208a0152604089015260016060890152600197610c708b61217d565b52610c7a8a61217d565b5061038e565b808b60208093610c8e612965565b920101520161037c565b9860018101809111610cd557809960e08a0151610ce9575b5050610100880151610cc3575b5f610352565b9760028101809111610cd55797610cbd565b634e487b7160e01b5f52601160045260245ffd5b600391929a5001809111610cd557975f80610cb0565b60405163133f757160e31b8152600481018290529097909150610180826024817f00000000000000000000000000000000000000000000000000000000000000006001600160a01b03165afa918215610dc4575f92610d87575b506001600160801b03821615610d7e5760ff60025b168101809111610cd55796610344565b60ff6001610d6e565b610daa9192506101803d8111610dbd575b610da2818361196f565b810190611ce1565b505050509650505050505050905f610d59565b503d610d98565b6040513d5f823e3d90fd5b60019650610338565b602091955001518015610dec57935f610330565b631928cfa560e21b5f5260045ffd5b506020870151151561032b565b61ffff610e2c91610e20610e3b9460208801516128b0565b93908383511690612863565b6101208b510152511690612863565b610140875101525f80610315565b5060208401511515610310565b8a5190610e77610e71610180610160850151940151946123f8565b916123f8565b9081816001600160a01b0380831690821611610f2e575b50506001600160a01b038781169490889083168611610ecc575050610eb39350612c27565b6001600160801b036101a08b5101911690525f80610308565b919490939192906001600160a01b0382161115610f22578291610ef391610ef99594612c27565b93612be0565b6001600160801b0381166001600160801b038316105f14610f1b57505b610eb3565b9050610eb3565b915050610f1692612be0565b925090505f80610e8e565b5f80fd5b622dc81f60e41b5f5260045ffd5b90610f5591612846565b81166101ef565b9050610f80915060e03d60e011610f8b575b610f78818361196f565b810190611c29565b50505050505f6101b8565b503d610f6e565b34610f39576040366003190112610f395760245f610fae6117c1565b610fb661206f565b50604051632bbc239560e11b81528335600482015292839182906001600160a01b03165afa8015610dc457610100610ffb91611007935f9161100b575b5001516120b2565b6040519182918261187e565b0390f35b61102791503d805f833e61101f818361196f565b810190611a43565b84610ff3565b34610f39576040366003190112610f39576004356001600160401b038111610f395761105d9036906004016117d7565b90602435916001600160401b038311610f395736602384011215610f39578260040135906001600160401b038211610f39576024840193602436918460051b010111610f39576040519260e084018481106001600160401b03821117610819576040525f845260208401945f865260408501935f855260608601905f825260808701925f845261110061017d60a08a01965f885260c08b01985f8a5236916119ab565b915f5b81811061116857505050916001600160801b039391611126611007979694612830565b95604051998a99518a525160208a01525160408901525160608801525160808701525160a0860152511660c084015261010060e084015261010083019061185a565b611173818385611ff1565b356004811015610f395760011461125a575b611190818385611ff1565b356004811015610f3957600214611232575b6111ad818385611ff1565b356004811015610f39576003146111c7575b600101611103565b806111e26111d86080938587611ff1565b6020810190612027565b9080939181010312610f39576020820135916001600160801b038316809303610f3957828a52604081013588526060810135895260019261122c57505f5b602086015290506111bf565b35611220565b61124b6112436111d8838587611ff1565b810190612059565b865289525f60208501526111a2565b61126b6112436111d8838587611ff1565b8c528a52611185565b34610f39576020366003190112610f39576004356001600160401b038111610f39576112a660c09136906004016117d7565b9080929181010312610f3957604051906112bf82611901565b80356001600160a01b0381168103610f395782526112df60208201611fe1565b602083015260408101359063ffffffff82168203610f395760a091604084015261130b60608201611fe1565b606084015261131c60808201611fe1565b6080840152013561ffff81168103610f39578161135e9160a0611007940152611344816127f1565b604051906113518261191c565b81525f6020820152612830565b60405191829160208352602083019061185a565b34610f39575f366003190112610f395760206040517f3e1ba2b70880de8835e37b2821b3ca56e07c15ae583bf7dfa6888e3bd39bb5ca8152f35b34610f39576060366003190112610f39576113c56117c1565b6044356001600160401b038111610f3957610100916113eb6113f59236906004016117d7565b9160243590611d89565b60e0604051918051151583526001600160801b03602082015116602084015260408101516040840152606081015160608401526080810151608084015260a081015160a084015260c081015160020b60c0840152015160020b60e0820152f35b34610f39576020366003190112610f39576004356001600160401b038111610f395762ffffff606061149361017d61017660209536906004016117d7565b51015116604051908152f35b34610f39575f366003190112610f39576040517f00000000000000000000000000000000000000000000000000000000000000006001600160a01b03168152602090f35b34610f3957600461152461017d6114f936611804565b915091505f606060405161150c816118e6565b828152826020820152826040820152015236916119ab565b518051604051633850c7bd60e01b81529260e09184919082906001600160a01b03165afa908115610dc4575f925f9261165b575b50600490602061157d8460018060a01b0384511663ffffffff604086015116906121ae565b9151604051630d34328160e11b815293849182906001600160a01b03165afa918215610dc4575f92611614575b50906080936001600160801b0392836060604051966115c8886118e6565b60020b96878152602081019360020b8452604081019460018060a01b0316855201931683526040519485525160020b602085015260018060a01b03905116604084015251166060820152f35b91506020823d602011611653575b8161162f6020938361196f565b81010312610f395760809361164b6001600160801b0393611c91565b9250936115aa565b3d9150611622565b6004935061167991925060e03d60e011610f8b57610f78818361196f565b50505050509290929190611558565b34610f39576040366003190112610f395760245f6116a46117c1565b604051632bbc239560e11b81528335600482015292839182906001600160a01b03165afa908115610dc45761100791610100915f916116f5575b50015160405191829160208352602083019061185a565b61170991503d805f833e61101f818361196f565b836116de565b34610f39575f366003190112610f3957602060405160018152f35b34610f39576004602061017d61175661174236611804565b6001600160a01b03959350369250906119ab565b515116604051928380926334324e9f60e21b82525afa8015610dc4575f90611787575b6020906040519060020b8152f35b506020813d6020116117b9575b816117a16020938361196f565b81010312610f39576117b46020916119e1565b611779565b3d9150611794565b600435906001600160a01b0382168203610f3957565b9181601f84011215610f39578235916001600160401b038311610f395760208381860195010111610f3957565b6060600319820112610f39576004356001600160a01b0381168103610f3957916024356001600160a01b0381168103610f395791604435906001600160401b038211610f3957611856916004016117d7565b9091565b805180835260209291819084018484015e5f828201840152601f01601f1916010190565b91909160c0602060e083019461ffff60a08251600180831b03815116875262ffffff85820151168588015263ffffffff604082015116604088015262ffffff606082015116606088015262ffffff608082015116608088015201511660a08501520151910152565b608081019081106001600160401b0382111761081957604052565b60c081019081106001600160401b0382111761081957604052565b604081019081106001600160401b0382111761081957604052565b6101c081019081106001600160401b0382111761081957604052565b61010081019081106001600160401b0382111761081957604052565b90601f801991011681019081106001600160401b0382111761081957604052565b6001600160401b03811161081957601f01601f191660200190565b9291926119b782611990565b916119c5604051938461196f565b829481845281830111610f39578281602093845f960137010152565b51908160020b8203610f3957565b51906001600160a01b0382168203610f3957565b51908115158203610f3957565b519062ffffff82168203610f3957565b519063ffffffff82168203610f3957565b519064ffffffffff82168203610f3957565b602081830312610f39578051906001600160401b038211610f3957019061028082820312610f39576040519161028083018381106001600160401b0382111761081957604052611a92816119ef565b8352611aa0602082016119ef565b6020840152611ab1604082016119ef565b6040840152611ac2606082016119ef565b606084015260808101516080840152611add60a08201611a03565b60a0840152611aee60c082016119e1565b60c0840152611aff60e08201611a10565b60e08401526101008101516001600160401b038111610f395781019180601f84011215610f39578251611b3181611990565b91611b3f604051938461196f565b81835260208286010111610f39576020815f928261026097018386015e83010152610100840152611b7361012082016119ef565b610120840152611b866101408201611a03565b610140840152611b996101608201611a03565b610160840152611bac6101808201611a03565b610180840152611bbf6101a08201611a20565b6101a0840152611bd26101c08201611a31565b6101c0840152611be56101e08201611a31565b6101e0840152610200810151610200840152610220810151610220840152610240810151610240840152015161026082015290565b519061ffff82168203610f3957565b908160e0910312610f3957611c3d816119ef565b91611c4a602083016119e1565b91611c5760408201611c1a565b91611c6460608301611c1a565b91611c7160808201611c1a565b9160a082015160ff81168103610f395760c0611c8e919301611a03565b90565b51906001600160801b0382168203610f3957565b60405190611cb282611953565b5f60e0838281528260208201528260408201528260608201528260808201528260a08201528260c08201520152565b919082610180910312610f395781516bffffffffffffffffffffffff81168103610f395791611d12602082016119ef565b91611d1f604083016119ef565b91611d2c606082016119ef565b91611d3960808301611a10565b91611d4660a082016119e1565b91611d5360c083016119e1565b91611d6060e08201611c91565b916101008201519161012081015191611c8e610160611d826101408501611c91565b9301611c91565b9161017d90611da39294611d9b611ca5565b5036916119ab565b5f815193602460405180958193632bbc239560e11b8352600483015260018060a01b03165afa918215610dc4575f92611fbf575b50602060a091015191015115158115611f775760405163133f757160e31b81526004810192909252610180826024817f00000000000000000000000000000000000000000000000000000000000000006001600160a01b03165afa8015610dc4575f905f925f945f905f93611f36575b509551604051633850c7bd60e01b81529596949593949060e090859060049082906001600160a01b03165afa918215610dc4576001600160801b03611eab8982979583965f91611f11575b50611e9c8a6123f8565b611ea58c6123f8565b91612770565b9190991698825f14611f0a5780925b15611f025750905b60405198611ecf8a611953565b8015158a5260208a0152604089015260608801521660808601521660a084015260020b60c083015260020b60e082015290565b905090611ec2565b8192611eba565b611f2a915060e03d60e011610f8b57610f78818361196f565b5050505050505f611e92565b9195505060e0935060049250611f5b91506101803d8111610dbd57610da2818361196f565b939d949c959b50929950929750909550919350611e4792505050565b505050611f82611ca5565b50604051611f8f81611953565b5f81525f60208201525f60408201525f60608201525f60808201525f60a08201525f60c08201525f60e082015290565b60a0919250611fd96020913d805f833e61101f818361196f565b929150611dd7565b359062ffffff82168203610f3957565b91908110156120135760051b81013590603e1981360301821215610f39570190565b634e487b7160e01b5f52603260045260245ffd5b903590601e1981360301821215610f3957018035906001600160401b038211610f3957602001918136038313610f3957565b9190826040910312610f39576020823592013590565b6040519061207c8261191c565b5f60208360405161208c81611901565b83815283838201528360408201528360608201528360808201528360a082015281520152565b906120bb61206f565b5081805181010360e08112610f395760c0604051916120d98361191c565b12610f39576121649060e0604051946120f186611901565b6120fd602082016119ef565b865261210b60408201611a10565b602087015261211c60608201611a20565b604087015261212d60808201611a10565b606087015261213e60a08201611a10565b608087015261214f60c08201611c1a565b60a087015285835201516020820152926127f1565b565b6001600160401b0381116108195760051b60200190565b8051156120135760200190565b8051600110156120135760400190565b80518210156120135760209160051b010190565b9063ffffffff169182156123e85750604051906121cc60608361196f565b6002825260208201916040368437836121e48261217d565b525f6121ef8261218a565b5260405163883bdbfd60e01b815260206004820152905160248201819052909283916044830191905f5b8181106123c957505f9492849003928492506001600160a01b031690505afa908115610dc4575f916122ba575b5061225d6122538261218a565b5160060b9161217d565b5160060b900390667fffffffffffff198212667fffffffffffff831317610cd55760060b9060060b81156122a657667fffffffffffff1981145f19831416610cd5570560020b90565b634e487b7160e01b5f52601260045260245ffd5b90503d805f833e6122cb818361196f565b8101604082820312610f395781516001600160401b038111610f395782019181601f84011215610f3957825161230081612166565b9361230e604051958661196f565b81855260208086019260051b82010190848211610f3957602001915b8183106123af575050506020810151906001600160401b038211610f39570181601f82011215610f395780519060208061236384612166565b612370604051918261196f565b848152019260051b820101928311610f3957602001905b828210612397575050505f612246565b602080916123a4846119ef565b815201910190612387565b82518060060b8103610f395781526020928301920161232a565b825163ffffffff16845286945060209384019390920191600101612219565b91505090565b81156122a6570490565b62ffffff8160020b915f83125f14612769575f0316905b620d89e8821161275a576001821615612748576001600160881b036ffffcb933bd6fad37aa2d162d1a5940015b16916002811661272c575b60048116612710575b600881166126f4575b601081166126d8575b602081166126bc575b604081166126a0575b60808116612684575b6101008116612668575b610200811661264c575b6104008116612630575b6108008116612614575b61100081166125f8575b61200081166125dc575b61400081166125c0575b61800081166125a4575b620100008116612588575b62020000811661256d575b620400008116612552575b6208000016612539575b5f1261252b575b63ffffffff8116612523575f905b60201c60ff91909116016001600160a01b031690565b60019061250d565b80156122a6575f19046124ff565b6b048a170391f7dc42444e8fa290910260801c906124f8565b6d2216e584f5fa1ea926041bedfe9890920260801c916124ee565b916e5d6af8dedb81196699c329225ee6040260801c916124e3565b916f09aa508b5b7a84e1c677de54f3e99bc90260801c916124d8565b916f31be135f97d08fd981231505542fcfa60260801c916124cd565b916f70d869a156d2a1b890bb3df62baf32f70260801c916124c3565b916fa9f746462d870fdf8a65dc1f90e061e50260801c916124b9565b916fd097f3bdfd2022b8845ad8f792aa58250260801c916124af565b916fe7159475a2c29b7443b29c7fa6e889d90260801c916124a5565b916ff3392b0822b70005940c7a398e4b70f30260801c9161249b565b916ff987a7253ac413176f2b074cf7815e540260801c91612491565b916ffcbe86c7900a88aedcffc83b479aa3a40260801c91612487565b916ffe5dee046a99a2a811c461f1969c30530260801c9161247d565b916fff2ea16466c96a3843ec78b326b528610260801c91612474565b916fff973b41fa98c081472e6896dfb254c00260801c9161246b565b916fffcb9843d60f6159c9db58835c9266440260801c91612462565b916fffe5caca7e10e4e61c3624eaa0941cd00260801c91612459565b916ffff2e50f5f656932ef12357cf3c7fdcc0260801c91612450565b916ffff97272373d413259a46990580e213a0260801c91612447565b6001600160881b03600160801b61243c565b6333a3bdff60e21b5f5260045ffd5b169061240f565b9093925f929091836001600160a01b03808416908816116127e9575b6001600160a01b0382811690881681116127b1575050506127ae929394612a07565b91565b93945090926001600160a01b03831611156127dd5750906127d783611c8e949383612a07565b946129c4565b94611c8e9392506129c4565b95919561278c565b80516001600160a01b03161590811561281b575b5061280c57565b632766a4d360e11b5f5260045ffd5b612710915060a061ffff91015116115f612805565b611c8e610896916040519283916020830161187e565b600291820b910b0390627fffff198212627fffff831317610cd557565b908115908180156128a4575b61289d5761ffff166127100361ffff8111610cd55761ffff16808302928304141715610cd557612710900490565b5050505f90565b5061ffff81161561286f565b60405163133f757160e31b8152600481019190915290610180826024817f00000000000000000000000000000000000000000000000000000000000000006001600160a01b03165afa908115610dc4575f925f905f93612934575b506001600160801b0383161561292a57611ea5610e71611856956123f8565b505050505f905f90565b9193505061295191506101803d8111610dbd57610da2818361196f565b50505050965096945092505050925f61290b565b60405190612972826118e6565b5f6060838281528260208201528160408201520152565b5f198114610cd55760010190565b356001600160a01b0381168103610f395790565b6001600160a01b039182169082160391908211610cd557565b611c8e92916001600160801b03916001600160a01b0380831690821611612a01575b6001600160a01b03916129f991906129ab565b169116612a7b565b906129e6565b611c8e929091612a6491906001600160a01b0380821690851611612a75575b6001600160a01b03612a3885836129ab565b6001600160a01b039092169291169060601b6fffffffffffffffffffffffffffffffff60601b16612b5a565b6001600160a01b03909116906123ee565b92612a26565b5f91905f198282099180820293848085109403938085039414612ac157600160601b841015612abe5750600160601b910990828211900360a01b910360601c1790565b80fd5b5050505060601c90565b5f19600160601b8209918160601b91828085109403938085039414612b4e5783821115610f39578190600160601b9009600182190182168092046002816003021880820260020302808202600203028082026002030280820260020302808202600203028091026002030293600183805f03040190848311900302920304170290565b5090611c8e92506123ee565b915f198284099282810292838086109503948086039514612bd35784831115610f3957829109600182190182168092046002816003021880820260020302808202600203028082026002030280820260020302808202600203028091026002030293600183805f03040190848311900302920304170290565b505090611c8e92506123ee565b6001600160801b0392612c1d9290916001600160a01b0380831690821611612c21575b6001600160a01b0391612c1691906129ab565b1690612acb565b1690565b90612c03565b6001600160801b0392612c1d929091906001600160a01b0380821690831611612c7a575b612c73612c646001600160a01b03838116908516612a7b565b926001600160a01b03926129ab565b1691612b5a565b90612c4b56fea26469706673582212205669b90745c5358923b2704862e5d4c0f35c380565ac9b895a0a497f9be4b58a64736f6c634300081c0033",
  "linkReferences": {},
  "deployedLinkReferences": {},
  "immutableReferences": {
    "43": [
      {
        "length": 32,
        "start": 1692
      },
      {
        "length": 32,
        "start": 2142
      },
      {
        "length": 32,
        "start": 2335
      },
      {
        "length": 32,
        "start": 2629
      },
      {
        "length": 32,
        "start": 2884
      },
      {
        "length": 32,
        "start": 3112
      },
      {
        "length": 32,
        "start": 3361
      },
      {
        "length": 32,
        "start": 5300
      },
      {
        "length": 32,
        "start": 7688
      },
      {
        "length": 32,
        "start": 10447
      }
    ]
  },
  "inputSourceName": "project/contracts/adapters/UniswapV3Adapter.sol",
  "buildInfoId": "solc-0_8_28-b6437fe18e97f96eeaee965fc841ec9a5e3ea753"
}