{
  "_format": "hh3-artifact-1",
  "contractName": "UniswapV3Adapter",
  "sourceName": "contracts/adapters/UniswapV3Adapter.sol",
  "abi": [
    {
      "inputs": [
        {
          "internalType": "address",
          "name": "positionManager_",
          "type": "address"
        }
      ],
      "stateMutability": "nonpayable",
      "type": "constructor"
    },
    {
      "inputs": [],
      "name": "InvalidAdapterData",
      "type": "error"
    },
    {
      "inputs": [],
      "name": "InvalidExpectedTick",
      "type": "error"
    },
    {
      "inputs": [],
      "name": "InvalidTick",
      "type": "error"
    },
    {
      "inputs": [],
      "name": "UnknownPosition",
      "type": "error"
    },
    {
      "inputs": [
        {
          "internalType": "bytes",
          "name": "adapterData",
          "type": "bytes"
        },
        {
          "components": [
            {
              "internalType": "enum RerangeTypes.AdapterResultKind",
              "name": "kind",
              "type": "uint8"
            },
            {
              "internalType": "bytes",
              "name": "data",
              "type": "bytes"
            }
          ],
          "internalType": "struct RerangeTypes.AdapterResult[]",
          "name": "results",
          "type": "tuple[]"
        }
      ],
      "name": "decodeExecuteResult",
      "outputs": [
        {
          "components": [
            {
              "internalType": "uint256",
              "name": "fee0",
              "type": "uint256"
            },
            {
              "internalType": "uint256",
              "name": "fee1",
              "type": "uint256"
            },
            {
              "internalType": "uint256",
              "name": "returned0",
              "type": "uint256"
            },
            {
              "internalType": "uint256",
              "name": "returned1",
              "type": "uint256"
            },
            {
              "internalType": "uint256",
              "name": "used0",
              "type": "uint256"
            },
            {
              "internalType": "uint256",
              "name": "used1",
              "type": "uint256"
            },
            {
              "internalType": "uint128",
              "name": "liquidity",
              "type": "uint128"
            }
          ],
          "internalType": "struct RerangeTypes.ExecutionResult",
          "name": "result",
          "type": "tuple"
        },
        {
          "internalType": "bytes",
          "name": "nextAdapterData",
          "type": "bytes"
        }
      ],
      "stateMutability": "pure",
      "type": "function"
    },
    {
      "inputs": [
        {
          "internalType": "address",
          "name": "vault",
          "type": "address"
        },
        {
          "internalType": "bytes32",
          "name": "orderKey",
          "type": "bytes32"
        }
      ],
      "name": "getAdapterData",
      "outputs": [
        {
          "internalType": "bytes",
          "name": "adapterData",
          "type": "bytes"
        }
      ],
      "stateMutability": "view",
      "type": "function"
    },
    {
      "inputs": [
        {
          "internalType": "address",
          "name": "vault",
          "type": "address"
        },
        {
          "internalType": "bytes32",
          "name": "orderKey",
          "type": "bytes32"
        }
      ],
      "name": "getDecodedAdapterData",
      "outputs": [
        {
          "components": [
            {
              "components": [
                {
                  "internalType": "address",
                  "name": "pool",
                  "type": "address"
                },
                {
                  "internalType": "uint24",
                  "name": "fee",
                  "type": "uint24"
                },
                {
                  "internalType": "uint32",
                  "name": "twapWindow",
                  "type": "uint32"
                },
                {
                  "internalType": "uint24",
                  "name": "maxTwapDeviation",
                  "type": "uint24"
                },
                {
                  "internalType": "uint24",
                  "name": "maxTickDeviation",
                  "type": "uint24"
                },
                {
                  "internalType": "uint16",
                  "name": "slippageBps",
                  "type": "uint16"
                }
              ],
              "internalType": "struct UniswapV3Adapter.AdapterConfig",
              "name": "config",
              "type": "tuple"
            },
            {
              "internalType": "uint256",
              "name": "positionId",
              "type": "uint256"
            }
          ],
          "internalType": "struct UniswapV3Adapter.AdapterData",
          "name": "",
          "type": "tuple"
        }
      ],
      "stateMutability": "view",
      "type": "function"
    },
    {
      "inputs": [
        {
          "internalType": "bytes",
          "name": "adapterData",
          "type": "bytes"
        }
      ],
      "name": "getMaxTwapDeviation",
      "outputs": [
        {
          "internalType": "uint24",
          "name": "maxTwapDeviation",
          "type": "uint24"
        }
      ],
      "stateMutability": "pure",
      "type": "function"
    },
    {
      "inputs": [
        {
          "internalType": "address",
          "name": "",
          "type": "address"
        },
        {
          "internalType": "address",
          "name": "",
          "type": "address"
        },
        {
          "internalType": "bytes",
          "name": "adapterData",
          "type": "bytes"
        }
      ],
      "name": "getPoolState",
      "outputs": [
        {
          "components": [
            {
              "internalType": "int24",
              "name": "currentTick",
              "type": "int24"
            },
            {
              "internalType": "int24",
              "name": "twapTick",
              "type": "int24"
            },
            {
              "internalType": "uint160",
              "name": "sqrtPriceX96",
              "type": "uint160"
            },
            {
              "internalType": "uint128",
              "name": "poolLiquidity",
              "type": "uint128"
            }
          ],
          "internalType": "struct RerangeTypes.PoolState",
          "name": "",
          "type": "tuple"
        }
      ],
      "stateMutability": "view",
      "type": "function"
    },
    {
      "inputs": [
        {
          "internalType": "address",
          "name": "vault",
          "type": "address"
        },
        {
          "internalType": "bytes32",
          "name": "orderKey",
          "type": "bytes32"
        },
        {
          "internalType": "bytes",
          "name": "adapterData",
          "type": "bytes"
        }
      ],
      "name": "getPosition",
      "outputs": [
        {
          "components": [
            {
              "internalType": "bool",
              "name": "active",
              "type": "bool"
            },
            {
              "internalType": "uint128",
              "name": "liquidity",
              "type": "uint128"
            },
            {
              "internalType": "uint256",
              "name": "sourceBalance",
              "type": "uint256"
            },
            {
              "internalType": "uint256",
              "name": "targetBalance",
              "type": "uint256"
            },
            {
              "internalType": "uint256",
              "name": "pendingFee0",
              "type": "uint256"
            },
            {
              "internalType": "uint256",
              "name": "pendingFee1",
              "type": "uint256"
            },
            {
              "internalType": "int24",
              "name": "lowerTick",
              "type": "int24"
            },
            {
              "internalType": "int24",
              "name": "upperTick",
              "type": "int24"
            }
          ],
          "internalType": "struct RerangeTypes.PositionView",
          "name": "",
          "type": "tuple"
        }
      ],
      "stateMutability": "view",
      "type": "function"
    },
    {
      "inputs": [
        {
          "internalType": "address",
          "name": "",
          "type": "address"
        },
        {
          "internalType": "address",
          "name": "",
          "type": "address"
        },
        {
          "internalType": "bytes",
          "name": "adapterData",
          "type": "bytes"
        }
      ],
      "name": "getTickSpacing",
      "outputs": [
        {
          "internalType": "int24",
          "name": "tickSpacing",
          "type": "int24"
        }
      ],
      "stateMutability": "view",
      "type": "function"
    },
    {
      "inputs": [
        {
          "internalType": "bytes",
          "name": "adapterConfig",
          "type": "bytes"
        }
      ],
      "name": "initializeAdapterData",
      "outputs": [
        {
          "internalType": "bytes",
          "name": "normalizedAdapterData",
          "type": "bytes"
        }
      ],
      "stateMutability": "pure",
      "type": "function"
    },
    {
      "inputs": [],
      "name": "positionManager",
      "outputs": [
        {
          "internalType": "address",
          "name": "",
          "type": "address"
        }
      ],
      "stateMutability": "view",
      "type": "function"
    },
    {
      "inputs": [
        {
          "internalType": "address",
          "name": "vault",
          "type": "address"
        },
        {
          "components": [
            {
              "internalType": "address",
              "name": "vault",
              "type": "address"
            },
            {
              "internalType": "address",
              "name": "adapter",
              "type": "address"
            },
            {
              "internalType": "address",
              "name": "token0",
              "type": "address"
            },
            {
              "internalType": "address",
              "name": "token1",
              "type": "address"
            },
            {
              "internalType": "uint256",
              "name": "capital",
              "type": "uint256"
            },
            {
              "internalType": "bool",
              "name": "isSell",
              "type": "bool"
            },
            {
              "internalType": "int24",
              "name": "targetTick",
              "type": "int24"
            },
            {
              "internalType": "uint24",
              "name": "triggerTicks",
              "type": "uint24"
            },
            {
              "internalType": "bytes",
              "name": "adapterData",
              "type": "bytes"
            },
            {
              "internalType": "address",
              "name": "referrer",
              "type": "address"
            },
            {
              "internalType": "bool",
              "name": "keepBalancesInVault",
              "type": "bool"
            },
            {
              "internalType": "bool",
              "name": "unwrapOut",
              "type": "bool"
            },
            {
              "internalType": "bool",
              "name": "closed",
              "type": "bool"
            },
            {
              "internalType": "uint32",
              "name": "rerangeCount",
              "type": "uint32"
            },
            {
              "internalType": "uint40",
              "name": "createdAt",
              "type": "uint40"
            },
            {
              "internalType": "uint40",
              "name": "lastRerangeAt",
              "type": "uint40"
            },
            {
              "internalType": "uint256",
              "name": "accruedFee0",
              "type": "uint256"
            },
            {
              "internalType": "uint256",
              "name": "accruedFee1",
              "type": "uint256"
            },
            {
              "internalType": "uint256",
              "name": "idle0",
              "type": "uint256"
            },
            {
              "internalType": "uint256",
              "name": "idle1",
              "type": "uint256"
            }
          ],
          "internalType": "struct RerangeTypes.Order",
          "name": "order",
          "type": "tuple"
        },
        {
          "components": [
            {
              "internalType": "bool",
              "name": "collectFees",
              "type": "bool"
            },
            {
              "internalType": "bool",
              "name": "removeLiquidity",
              "type": "bool"
            },
            {
              "internalType": "bool",
              "name": "activateOrder",
              "type": "bool"
            },
            {
              "internalType": "bool",
              "name": "closeOrder",
              "type": "bool"
            },
            {
              "internalType": "int24",
              "name": "expectedTick",
              "type": "int24"
            },
            {
              "internalType": "int24",
              "name": "activateTickLower",
              "type": "int24"
            },
            {
              "internalType": "int24",
              "name": "activateTickUpper",
              "type": "int24"
            },
            {
              "internalType": "uint256",
              "name": "deployAmount0",
              "type": "uint256"
            },
            {
              "internalType": "uint256",
              "name": "deployAmount1",
              "type": "uint256"
            },
            {
              "internalType": "uint256",
              "name": "minRemove0",
              "type": "uint256"
            },
            {
              "internalType": "uint256",
              "name": "minRemove1",
              "type": "uint256"
            },
            {
              "internalType": "uint256",
              "name": "minActivate0",
              "type": "uint256"
            },
            {
              "internalType": "uint256",
              "name": "minActivate1",
              "type": "uint256"
            },
            {
              "internalType": "uint128",
              "name": "minActivateLiquidity",
              "type": "uint128"
            }
          ],
          "internalType": "struct RerangeTypes.ExecutionPlan",
          "name": "plan",
          "type": "tuple"
        }
      ],
      "name": "prepareExecution",
      "outputs": [
        {
          "components": [
            {
              "components": [
                {
                  "internalType": "bool",
                  "name": "collectFees",
                  "type": "bool"
                },
                {
                  "internalType": "bool",
                  "name": "removeLiquidity",
                  "type": "bool"
                },
                {
                  "internalType": "bool",
                  "name": "activateOrder",
                  "type": "bool"
                },
                {
                  "internalType": "bool",
                  "name": "closeOrder",
                  "type": "bool"
                },
                {
                  "internalType": "int24",
                  "name": "expectedTick",
                  "type": "int24"
                },
                {
                  "internalType": "int24",
                  "name": "activateTickLower",
                  "type": "int24"
                },
                {
                  "internalType": "int24",
                  "name": "activateTickUpper",
                  "type": "int24"
                },
                {
                  "internalType": "uint256",
                  "name": "deployAmount0",
                  "type": "uint256"
                },
                {
                  "internalType": "uint256",
                  "name": "deployAmount1",
                  "type": "uint256"
                },
                {
                  "internalType": "uint256",
                  "name": "minRemove0",
                  "type": "uint256"
                },
                {
                  "internalType": "uint256",
                  "name": "minRemove1",
                  "type": "uint256"
                },
                {
                  "internalType": "uint256",
                  "name": "minActivate0",
                  "type": "uint256"
                },
                {
                  "internalType": "uint256",
                  "name": "minActivate1",
                  "type": "uint256"
                },
                {
                  "internalType": "uint128",
                  "name": "minActivateLiquidity",
                  "type": "uint128"
                }
              ],
              "internalType": "struct RerangeTypes.ExecutionPlan",
              "name": "plan",
              "type": "tuple"
            },
            {
              "components": [
                {
                  "internalType": "address",
                  "name": "target",
                  "type": "address"
                },
                {
                  "internalType": "uint256",
                  "name": "value",
                  "type": "uint256"
                },
                {
                  "internalType": "bytes",
                  "name": "data",
                  "type": "bytes"
                },
                {
                  "internalType": "enum RerangeTypes.AdapterResultKind",
                  "name": "resultKind",
                  "type": "uint8"
                }
              ],
              "internalType": "struct RerangeTypes.AdapterCall[]",
              "name": "calls",
              "type": "tuple[]"
            }
          ],
          "internalType": "struct RerangeTypes.PreparedExecution",
          "name": "prepared",
          "type": "tuple"
        }
      ],
      "stateMutability": "view",
      "type": "function"
    },
    {
      "inputs": [],
      "name": "venue",
      "outputs": [
        {
          "internalType": "bytes32",
          "name": "",
          "type": "bytes32"
        }
      ],
      "stateMutability": "pure",
      "type": "function"
    },
    {
      "inputs": [],
      "name": "version",
      "outputs": [
        {
          "internalType": "uint256",
          "name": "",
          "type": "uint256"
        }
      ],
      "stateMutability": "view",
      "type": "function"
    }
  ],
  "bytecode": "0x60a0346100be57601f612deb38819003918201601f19168301916001600160401b038311848410176100c2578084926020946040528339810103126100be57516001600160a01b0381168082036100be57156100af57608052604051612d1490816100d7823960805181818161069c0152818161085e0152818161091f01528181610a4401528181610bad01528181610c8601528181610d7f0152818161151201528181611e66015261292d0152f35b632766a4d360e11b5f5260045ffd5b5f80fd5b634e487b7160e01b5f52604160045260245ffdfe60806040526004361015610011575f80fd5b5f3560e01c80632d258d061461178857806354fd4d501461176d578063556bb7da146116e65780635b0272d614611541578063791b98bc146114fd578063882612dc146114b35780638c4d4eca1461140a578063a270a737146113d0578063bfad0ffd146112d2578063c2508d141461108b578063cc4d2ea114610ff05763dd128b451461009d575f80fd5b34610f9757610200366003190112610f97576100b761181f565b6024356001600160401b038111610f97576102806003198236030112610f97576101c0366043190112610f9757604051916100f18361197a565b6040516100fd81611995565b5f81525f60208201525f60408201525f60608201525f60808201525f60a08201525f60c08201525f60e08201525f6101008201525f6101208201525f6101408201525f6101608201525f6101808201525f6101a0820152835260208301916060835261018261017d610176610104840184600401612085565b3691611a09565b612110565b80518051604051633850c7bd60e01b81529060e090829060049082906001600160a01b03165afa8015610e22575f915f91610fba575b5060c435908160020b90818303610f975762ffffff908382608088015116938260020b12155f14610fa9576101ec916128a4565b81165b1611610f9b576040519061020282611995565b6044358015158103610f97578252606435908115158203610f9757816020840152608435908115158203610f975781604085015260a4358015158103610f97576060850152608084015260e435908160020b8203610f97578160a085015261010435908160020b8203610f97578160c086015261012435948560e0820152610144358061010083015261016435610120830152610184356101408301526101a4356101608301526101c4356101808301526101e435916001600160801b0383168303610f97578e6102fc936101a0830152528d6101606102ec60a08c019961ffff8b5116906128c1565b9151015261ffff875116906128c1565b6101808d510152610eb4575b505080610ea7575b610e66575b50508551925f945f935f90865115801590610e59575b610e36575b508551610e2d575b60208601948551610d5d575b879160408801928351610cf6575b5061035c896121c4565b9861036a6040519a8b6119cd565b808a52610379601f19916121c4565b015f5b818110610cde5750505f968851610bf0575b516109a1575b505051610509575b5050505050815260405190602082526001600160801b036101a061020084019451805115156020860152602081015115156040860152604081015115156060860152606081015115156080860152608081015160020b60a086015260a081015160020b60c086015260c081015160020b60e086015260e0810151610100860152610100810151610120860152610120810151610140860152610140810151610160860152610160810151610180860152610180810151828601520151166101c0830152516101e080830152805180935261022082019260206102208260051b8501019201935f5b8281106104905784840385f35b90919261021f1985820301835285519060018060a01b0382511681526020820151602082015260606104d160408401516080604085015260808401906118b8565b9201519060048210156104f557606001526020958601959093920190600101610483565b634e487b7160e01b5f52602160045260245ffd5b60e085018051806108ee575b5061010086019283518061082d575b5060448101926064610535856129f5565b92019762ffffff60206105478b6129f5565b980151169060a081015160020b60c082015160020b86519089519261018061016086015195015195604051986101608a018a81106001600160401b0382111761081957604052600160a01b60019003168952602089019c600160a01b60019003168d5260408901908152606089019182526080890192835260a0890193845260c0890194855260e089019586526101008901968752610120890197600160a01b60019003168852610140890198428a526040519d8e91634418b22b60e11b6020840152600160a01b600190039051166024830152600160a01b6001900390511690604401525162ffffff1660648d01525160020b60848c01525160020b60a48b01525160c48a01525160e48901525161010488015251610124870152600160a01b6001900390511661014486015251610164850152610164845261068d610184856119cd565b6040519061069a82611944565b7f00000000000000000000000000000000000000000000000000000000000000006001600160a01b03168083525f60208401526040830195909552600360608301526106e5866129e7565b9586926106f2828b6121f8565b526106fd90896121f8565b5051610797575b505051610713575b808061039c565b61071f61078e936129f5565b906040519063095ea7b360e01b602083015260248201525f60448201526044815261074b6064826119cd565b6040519161075883611944565b60018060a01b031682525f602083015260408201525f606082015261077c826129e7565b5061078782856121f8565b52826121f8565b505f808061070c565b6107ff6107a6610811936129f5565b9560405163095ea7b360e01b60208201528660248201525f6044820152604481526107d26064826119cd565b604051976107df89611944565b60018060a01b031688525f602089015260408801525f60608801526129e7565b9461080a82896121f8565b52866121f8565b505f80610704565b634e487b7160e01b5f52604160045260245ffd5b956108e7906108966108a4610844606486016129f5565b60405163095ea7b360e01b60208201526001600160a01b037f0000000000000000000000000000000000000000000000000000000000000000166024820152604481019b909b52999182906064820190565b03601f1981018352826119cd565b604051986108b18a611944565b60018060a01b031689525f60208a015260408901525f60608901526108d5816129e7565b976108e0828c6121f8565b52896121f8565b505f610524565b9461099a90610896610957610905604488016129f5565b60405163095ea7b360e01b60208201526001600160a01b037f0000000000000000000000000000000000000000000000000000000000000000166024820152604481019a909a52989182906064820190565b6040519761096489611944565b60018060a01b031688525f602089015260408801525f6060880152610988816129e7565b96610993828b6121f8565b52886121f8565b505f610515565b6001600160801b031680610afe575b506109b96129c3565b50604051956109c787611944565b8187526001600160801b036020880160018060a01b03861681528160408a0181815260608b01928284526040519b8c602063fc6f786560e01b9101525160248d015260018060a01b0390511660448c0152511660648a01525116608488015260848752610a3560a4886119cd565b60405191610a4283611944565b7f00000000000000000000000000000000000000000000000000000000000000006001600160a01b03168084525f60208501526040840198909852610aa78a928460026060610af6970152610aa082610a9a816129e7565b966121f8565b528b6121f8565b5060405190630852cd8d60e31b6020830152602482015260248152610acd6044826119cd565b60405197610ada89611944565b88525f602089015260408801525f6060880152610988816129e7565b505f80610394565b610120880151966101408901516040519060a0820199828b106001600160401b038c1117610819576001600160801b03610be99560249c60405287855260208501908152604085019283526060850193845260808501944286526040519d8e91630624e65f60e11b602084015251910152511660448c01525160648b01525160848a01525160a489015260a48852610b9760c4896119cd565b60405197610ba489611944565b60018060a01b037f00000000000000000000000000000000000000000000000000000000000000001689525f60208a015260408901525f60608901526108d5816129e7565b505f6109b0565b60249750610bfc6129c3565b506001600160801b03604051610c1181611944565b848152816020820160018060a01b0389168152604083019082825260608401938385526040519d8e9163fc6f786560e01b60208401525191015260018060a01b0390511660448d0152511660648b01525116608489015260848852610c7760a4896119cd565b60405197610c8489611944565b7f00000000000000000000000000000000000000000000000000000000000000006001600160a01b031689525f60208a0152604089015260016060890152600197610cce8b6121db565b52610cd88a6121db565b5061038e565b808b60208093610cec6129c3565b920101520161037c565b9860018101809111610d3357809960e08a0151610d47575b5050610100880151610d21575b5f610352565b9760028101809111610d335797610d1b565b634e487b7160e01b5f52601160045260245ffd5b600391929a5001809111610d3357975f80610d0e565b60405163133f757160e31b8152600481018290529097909150610180826024817f00000000000000000000000000000000000000000000000000000000000000006001600160a01b03165afa918215610e22575f92610de5575b506001600160801b03821615610ddc5760ff60035b168101809111610d335796610344565b60ff6002610dcc565b610e089192506101803d8111610e1b575b610e0081836119cd565b810190611d3f565b505050509650505050505050905f610db7565b503d610df6565b6040513d5f823e3d90fd5b60019650610338565b602091955001518015610e4a57935f610330565b631928cfa560e21b5f5260045ffd5b506020870151151561032b565b61ffff610e8a91610e7e610e9994602088015161290e565b939083835116906128c1565b6101208b5101525116906128c1565b610140875101525f80610315565b5060208401511515610310565b8a5190610ed5610ecf61018061016085015194015194612456565b91612456565b9081816001600160a01b0380831690821611610f8c575b50506001600160a01b038781169490889083168611610f2a575050610f119350612c85565b6001600160801b036101a08b5101911690525f80610308565b919490939192906001600160a01b0382161115610f80578291610f5191610f579594612c85565b93612c3e565b6001600160801b0381166001600160801b038316105f14610f7957505b610f11565b9050610f11565b915050610f7492612c3e565b925090505f80610eec565b5f80fd5b622dc81f60e41b5f5260045ffd5b90610fb3916128a4565b81166101ef565b9050610fde915060e03d60e011610fe9575b610fd681836119cd565b810190611c87565b50505050505f6101b8565b503d610fcc565b34610f97576040366003190112610f975760245f61100c61181f565b6110146120cd565b50604051632bbc239560e11b81528335600482015292839182906001600160a01b03165afa8015610e225761010061105991611065935f91611069575b500151612110565b604051918291826118dc565b0390f35b61108591503d805f833e61107d81836119cd565b810190611aa1565b84611051565b34610f97576040366003190112610f97576004356001600160401b038111610f97576110bb903690600401611835565b90602435916001600160401b038311610f975736602384011215610f97578260040135906001600160401b038211610f97576024840193602436918460051b010111610f97576040519260e084018481106001600160401b03821117610819576040525f845260208401945f865260408501935f855260608601905f825260808701925f845261115e61017d60a08a01965f885260c08b01985f8a523691611a09565b915f5b8181106111c657505050916001600160801b03939161118461106597969461288e565b95604051998a99518a525160208a01525160408901525160608801525160808701525160a0860152511660c084015261010060e08401526101008301906118b8565b6111d181838561204f565b356004811015610f97576001146112b8575b6111ee81838561204f565b356004811015610f9757600214611290575b61120b81838561204f565b356004811015610f9757600314611225575b600101611161565b80611240611236608093858761204f565b6020810190612085565b9080939181010312610f97576020820135916001600160801b038316809303610f9757828a52604081013588526060810135895260019261128a57505f5b6020860152905061121d565b3561127e565b6112a96112a161123683858761204f565b8101906120b7565b865289525f6020850152611200565b6112c96112a161123683858761204f565b8c528a526111e3565b34610f97576020366003190112610f97576004356001600160401b038111610f975761130460c0913690600401611835565b9080929181010312610f97576040519061131d8261195f565b80356001600160a01b0381168103610f9757825261133d6020820161203f565b602083015260408101359063ffffffff82168203610f975760a09160408401526113696060820161203f565b606084015261137a6080820161203f565b6080840152013561ffff81168103610f9757816113bc9160a06110659401526113a28161284f565b604051906113af8261197a565b81525f602082015261288e565b6040519182916020835260208301906118b8565b34610f97575f366003190112610f975760206040517f3e1ba2b70880de8835e37b2821b3ca56e07c15ae583bf7dfa6888e3bd39bb5ca8152f35b34610f97576060366003190112610f975761142361181f565b6044356001600160401b038111610f975761010091611449611453923690600401611835565b9160243590611de7565b60e0604051918051151583526001600160801b03602082015116602084015260408101516040840152606081015160608401526080810151608084015260a081015160a084015260c081015160020b60c0840152015160020b60e0820152f35b34610f97576020366003190112610f97576004356001600160401b038111610f975762ffffff60606114f161017d6101766020953690600401611835565b51015116604051908152f35b34610f97575f366003190112610f97576040517f00000000000000000000000000000000000000000000000000000000000000006001600160a01b03168152602090f35b34610f9757600461158261017d61155736611862565b915091505f606060405161156a81611944565b82815282602082015282604082015201523691611a09565b518051604051633850c7bd60e01b81529260e09184919082906001600160a01b03165afa908115610e22575f925f926116b9575b5060049060206115db8460018060a01b0384511663ffffffff6040860151169061220c565b9151604051630d34328160e11b815293849182906001600160a01b03165afa918215610e22575f92611672575b50906080936001600160801b03928360606040519661162688611944565b60020b96878152602081019360020b8452604081019460018060a01b0316855201931683526040519485525160020b602085015260018060a01b03905116604084015251166060820152f35b91506020823d6020116116b1575b8161168d602093836119cd565b81010312610f97576080936116a96001600160801b0393611cef565b925093611608565b3d9150611680565b600493506116d791925060e03d60e011610fe957610fd681836119cd565b505050505092909291906115b6565b34610f97576040366003190112610f975760245f61170261181f565b604051632bbc239560e11b81528335600482015292839182906001600160a01b03165afa908115610e225761106591610100915f91611753575b5001516040519182916020835260208301906118b8565b61176791503d805f833e61107d81836119cd565b8361173c565b34610f97575f366003190112610f9757602060405160018152f35b34610f97576004602061017d6117b46117a036611862565b6001600160a01b0395935036925090611a09565b515116604051928380926334324e9f60e21b82525afa8015610e22575f906117e5575b6020906040519060020b8152f35b506020813d602011611817575b816117ff602093836119cd565b81010312610f9757611812602091611a3f565b6117d7565b3d91506117f2565b600435906001600160a01b0382168203610f9757565b9181601f84011215610f97578235916001600160401b038311610f975760208381860195010111610f9757565b6060600319820112610f97576004356001600160a01b0381168103610f9757916024356001600160a01b0381168103610f975791604435906001600160401b038211610f97576118b491600401611835565b9091565b805180835260209291819084018484015e5f828201840152601f01601f1916010190565b91909160c0602060e083019461ffff60a08251600180831b03815116875262ffffff85820151168588015263ffffffff604082015116604088015262ffffff606082015116606088015262ffffff608082015116608088015201511660a08501520151910152565b608081019081106001600160401b0382111761081957604052565b60c081019081106001600160401b0382111761081957604052565b604081019081106001600160401b0382111761081957604052565b6101c081019081106001600160401b0382111761081957604052565b61010081019081106001600160401b0382111761081957604052565b90601f801991011681019081106001600160401b0382111761081957604052565b6001600160401b03811161081957601f01601f191660200190565b929192611a15826119ee565b91611a2360405193846119cd565b829481845281830111610f97578281602093845f960137010152565b51908160020b8203610f9757565b51906001600160a01b0382168203610f9757565b51908115158203610f9757565b519062ffffff82168203610f9757565b519063ffffffff82168203610f9757565b519064ffffffffff82168203610f9757565b602081830312610f97578051906001600160401b038211610f9757019061028082820312610f97576040519161028083018381106001600160401b0382111761081957604052611af081611a4d565b8352611afe60208201611a4d565b6020840152611b0f60408201611a4d565b6040840152611b2060608201611a4d565b606084015260808101516080840152611b3b60a08201611a61565b60a0840152611b4c60c08201611a3f565b60c0840152611b5d60e08201611a6e565b60e08401526101008101516001600160401b038111610f975781019180601f84011215610f97578251611b8f816119ee565b91611b9d60405193846119cd565b81835260208286010111610f97576020815f928261026097018386015e83010152610100840152611bd16101208201611a4d565b610120840152611be46101408201611a61565b610140840152611bf76101608201611a61565b610160840152611c0a6101808201611a61565b610180840152611c1d6101a08201611a7e565b6101a0840152611c306101c08201611a8f565b6101c0840152611c436101e08201611a8f565b6101e0840152610200810151610200840152610220810151610220840152610240810151610240840152015161026082015290565b519061ffff82168203610f9757565b908160e0910312610f9757611c9b81611a4d565b91611ca860208301611a3f565b91611cb560408201611c78565b91611cc260608301611c78565b91611ccf60808201611c78565b9160a082015160ff81168103610f975760c0611cec919301611a61565b90565b51906001600160801b0382168203610f9757565b60405190611d10826119b1565b5f60e0838281528260208201528260408201528260608201528260808201528260a08201528260c08201520152565b919082610180910312610f975781516bffffffffffffffffffffffff81168103610f975791611d7060208201611a4d565b91611d7d60408301611a4d565b91611d8a60608201611a4d565b91611d9760808301611a6e565b91611da460a08201611a3f565b91611db160c08301611a3f565b91611dbe60e08201611cef565b916101008201519161012081015191611cec610160611de06101408501611cef565b9301611cef565b9161017d90611e019294611df9611d03565b503691611a09565b5f815193602460405180958193632bbc239560e11b8352600483015260018060a01b03165afa918215610e22575f9261201d575b50602060a091015191015115158115611fd55760405163133f757160e31b81526004810192909252610180826024817f00000000000000000000000000000000000000000000000000000000000000006001600160a01b03165afa8015610e22575f905f925f945f905f93611f94575b509551604051633850c7bd60e01b81529596949593949060e090859060049082906001600160a01b03165afa918215610e22576001600160801b03611f098982979583965f91611f6f575b50611efa8a612456565b611f038c612456565b916127ce565b9190991698825f14611f685780925b15611f605750905b60405198611f2d8a6119b1565b8015158a5260208a0152604089015260608801521660808601521660a084015260020b60c083015260020b60e082015290565b905090611f20565b8192611f18565b611f88915060e03d60e011610fe957610fd681836119cd565b5050505050505f611ef0565b9195505060e0935060049250611fb991506101803d8111610e1b57610e0081836119cd565b939d949c959b50929950929750909550919350611ea592505050565b505050611fe0611d03565b50604051611fed816119b1565b5f81525f60208201525f60408201525f60608201525f60808201525f60a08201525f60c08201525f60e082015290565b60a09192506120376020913d805f833e61107d81836119cd565b929150611e35565b359062ffffff82168203610f9757565b91908110156120715760051b81013590603e1981360301821215610f97570190565b634e487b7160e01b5f52603260045260245ffd5b903590601e1981360301821215610f9757018035906001600160401b038211610f9757602001918136038313610f9757565b9190826040910312610f97576020823592013590565b604051906120da8261197a565b5f6020836040516120ea8161195f565b83815283838201528360408201528360608201528360808201528360a082015281520152565b906121196120cd565b5081805181010360e08112610f975760c0604051916121378361197a565b12610f97576121c29060e06040519461214f8661195f565b61215b60208201611a4d565b865261216960408201611a6e565b602087015261217a60608201611a7e565b604087015261218b60808201611a6e565b606087015261219c60a08201611a6e565b60808701526121ad60c08201611c78565b60a0870152858352015160208201529261284f565b565b6001600160401b0381116108195760051b60200190565b8051156120715760200190565b8051600110156120715760400190565b80518210156120715760209160051b010190565b9063ffffffff1691821561244657506040519061222a6060836119cd565b600282526020820191604036843783612242826121db565b525f61224d826121e8565b5260405163883bdbfd60e01b815260206004820152905160248201819052909283916044830191905f5b81811061242757505f9492849003928492506001600160a01b031690505afa908115610e22575f91612318575b506122bb6122b1826121e8565b5160060b916121db565b5160060b900390667fffffffffffff198212667fffffffffffff831317610d335760060b9060060b811561230457667fffffffffffff1981145f19831416610d33570560020b90565b634e487b7160e01b5f52601260045260245ffd5b90503d805f833e61232981836119cd565b8101604082820312610f975781516001600160401b038111610f975782019181601f84011215610f9757825161235e816121c4565b9361236c60405195866119cd565b81855260208086019260051b82010190848211610f9757602001915b81831061240d575050506020810151906001600160401b038211610f97570181601f82011215610f97578051906020806123c1846121c4565b6123ce60405191826119cd565b848152019260051b820101928311610f9757602001905b8282106123f5575050505f6122a4565b6020809161240284611a4d565b8152019101906123e5565b82518060060b8103610f9757815260209283019201612388565b825163ffffffff16845286945060209384019390920191600101612277565b91505090565b8115612304570490565b62ffffff8160020b915f83125f146127c7575f0316905b620d89e882116127b85760018216156127a6576001600160881b036ffffcb933bd6fad37aa2d162d1a5940015b16916002811661278a575b6004811661276e575b60088116612752575b60108116612736575b6020811661271a575b604081166126fe575b608081166126e2575b61010081166126c6575b61020081166126aa575b610400811661268e575b6108008116612672575b6110008116612656575b612000811661263a575b614000811661261e575b6180008116612602575b6201000081166125e6575b6202000081166125cb575b6204000081166125b0575b6208000016612597575b5f12612589575b63ffffffff8116612581575f905b60201c60ff91909116016001600160a01b031690565b60019061256b565b8015612304575f190461255d565b6b048a170391f7dc42444e8fa290910260801c90612556565b6d2216e584f5fa1ea926041bedfe9890920260801c9161254c565b916e5d6af8dedb81196699c329225ee6040260801c91612541565b916f09aa508b5b7a84e1c677de54f3e99bc90260801c91612536565b916f31be135f97d08fd981231505542fcfa60260801c9161252b565b916f70d869a156d2a1b890bb3df62baf32f70260801c91612521565b916fa9f746462d870fdf8a65dc1f90e061e50260801c91612517565b916fd097f3bdfd2022b8845ad8f792aa58250260801c9161250d565b916fe7159475a2c29b7443b29c7fa6e889d90260801c91612503565b916ff3392b0822b70005940c7a398e4b70f30260801c916124f9565b916ff987a7253ac413176f2b074cf7815e540260801c916124ef565b916ffcbe86c7900a88aedcffc83b479aa3a40260801c916124e5565b916ffe5dee046a99a2a811c461f1969c30530260801c916124db565b916fff2ea16466c96a3843ec78b326b528610260801c916124d2565b916fff973b41fa98c081472e6896dfb254c00260801c916124c9565b916fffcb9843d60f6159c9db58835c9266440260801c916124c0565b916fffe5caca7e10e4e61c3624eaa0941cd00260801c916124b7565b916ffff2e50f5f656932ef12357cf3c7fdcc0260801c916124ae565b916ffff97272373d413259a46990580e213a0260801c916124a5565b6001600160881b03600160801b61249a565b6333a3bdff60e21b5f5260045ffd5b169061246d565b9093925f929091836001600160a01b0380841690881611612847575b6001600160a01b03828116908816811161280f5750505061280c929394612a65565b91565b93945090926001600160a01b038316111561283b57509061283583611cec949383612a65565b94612a22565b94611cec939250612a22565b9591956127ea565b80516001600160a01b031615908115612879575b5061286a57565b632766a4d360e11b5f5260045ffd5b612710915060a061ffff91015116115f612863565b611cec61089691604051928391602083016118dc565b600291820b910b0390627fffff198212627fffff831317610d3357565b90811590818015612902575b6128fb5761ffff166127100361ffff8111610d335761ffff16808302928304141715610d3357612710900490565b5050505f90565b5061ffff8116156128cd565b60405163133f757160e31b8152600481019190915290610180826024817f00000000000000000000000000000000000000000000000000000000000000006001600160a01b03165afa908115610e22575f925f905f93612992575b506001600160801b0383161561298857611f03610ecf6118b495612456565b505050505f905f90565b919350506129af91506101803d8111610e1b57610e0081836119cd565b50505050965096945092505050925f612969565b604051906129d082611944565b5f6060838281528260208201528160408201520152565b5f198114610d335760010190565b356001600160a01b0381168103610f975790565b6001600160a01b039182169082160391908211610d3357565b611cec92916001600160801b03916001600160a01b0380831690821611612a5f575b6001600160a01b0391612a579190612a09565b169116612ad9565b90612a44565b611cec929091612ac291906001600160a01b0380821690851611612ad3575b6001600160a01b03612a968583612a09565b6001600160a01b039092169291169060601b6fffffffffffffffffffffffffffffffff60601b16612bb8565b6001600160a01b039091169061244c565b92612a84565b5f91905f198282099180820293848085109403938085039414612b1f57600160601b841015612b1c5750600160601b910990828211900360a01b910360601c1790565b80fd5b5050505060601c90565b5f19600160601b8209918160601b91828085109403938085039414612bac5783821115610f97578190600160601b9009600182190182168092046002816003021880820260020302808202600203028082026002030280820260020302808202600203028091026002030293600183805f03040190848311900302920304170290565b5090611cec925061244c565b915f198284099282810292838086109503948086039514612c315784831115610f9757829109600182190182168092046002816003021880820260020302808202600203028082026002030280820260020302808202600203028091026002030293600183805f03040190848311900302920304170290565b505090611cec925061244c565b6001600160801b0392612c7b9290916001600160a01b0380831690821611612c7f575b6001600160a01b0391612c749190612a09565b1690612b29565b1690565b90612c61565b6001600160801b0392612c7b929091906001600160a01b0380821690831611612cd8575b612cd1612cc26001600160a01b03838116908516612ad9565b926001600160a01b0392612a09565b1691612bb8565b90612ca956fea26469706673582212201553907094f0ab0055f058dcf7adf2a61c12d07f89f663ce779db0c6f73fca3c64736f6c634300081c0033",
  "linkReferences": {},
  "deployedLinkReferences": {},
  "immutableReferences": {
    "3258": [
      {
        "length": 32,
        "start": 1692
      },
      {
        "length": 32,
        "start": 2142
      },
      {
        "length": 32,
        "start": 2335
      },
      {
        "length": 32,
        "start": 2628
      },
      {
        "length": 32,
        "start": 2989
      },
      {
        "length": 32,
        "start": 3206
      },
      {
        "length": 32,
        "start": 3455
      },
      {
        "length": 32,
        "start": 5394
      },
      {
        "length": 32,
        "start": 7782
      },
      {
        "length": 32,
        "start": 10541
      }
    ]
  },
  "inputSourceName": "project/contracts/adapters/UniswapV3Adapter.sol",
  "buildInfoId": "solc-0_8_28-6c7b7b35bc3355235d03f41871d0e700932ccc8c"
}