{
  "_format": "hh3-artifact-1",
  "contractName": "RerangeHub",
  "sourceName": "contracts/RerangeHub.sol",
  "abi": [
    {
      "inputs": [
        {
          "internalType": "address",
          "name": "owner_",
          "type": "address"
        }
      ],
      "stateMutability": "nonpayable",
      "type": "constructor"
    },
    {
      "inputs": [],
      "name": "AdapterNotAllowed",
      "type": "error"
    },
    {
      "inputs": [],
      "name": "FailedDeployment",
      "type": "error"
    },
    {
      "inputs": [
        {
          "internalType": "uint256",
          "name": "balance",
          "type": "uint256"
        },
        {
          "internalType": "uint256",
          "name": "needed",
          "type": "uint256"
        }
      ],
      "name": "InsufficientBalance",
      "type": "error"
    },
    {
      "inputs": [],
      "name": "InvalidConfig",
      "type": "error"
    },
    {
      "inputs": [],
      "name": "InvalidConfig",
      "type": "error"
    },
    {
      "inputs": [],
      "name": "InvalidConfig",
      "type": "error"
    },
    {
      "inputs": [],
      "name": "InvalidDirection",
      "type": "error"
    },
    {
      "inputs": [],
      "name": "InvalidNativeValue",
      "type": "error"
    },
    {
      "inputs": [],
      "name": "InvalidOwner",
      "type": "error"
    },
    {
      "inputs": [],
      "name": "InvalidPermit",
      "type": "error"
    },
    {
      "inputs": [],
      "name": "InvalidVault",
      "type": "error"
    },
    {
      "inputs": [],
      "name": "NotOwner",
      "type": "error"
    },
    {
      "inputs": [],
      "name": "OrderLocked",
      "type": "error"
    },
    {
      "inputs": [],
      "name": "ProtocolPaused",
      "type": "error"
    },
    {
      "inputs": [],
      "name": "ToxicPrice",
      "type": "error"
    },
    {
      "inputs": [],
      "name": "TransferFailed",
      "type": "error"
    },
    {
      "inputs": [],
      "name": "Unauthorized",
      "type": "error"
    },
    {
      "inputs": [],
      "name": "UnknownOrder",
      "type": "error"
    },
    {
      "inputs": [],
      "name": "ZeroCapital",
      "type": "error"
    },
    {
      "anonymous": false,
      "inputs": [
        {
          "indexed": true,
          "internalType": "address",
          "name": "adapter",
          "type": "address"
        },
        {
          "indexed": false,
          "internalType": "bool",
          "name": "allowed",
          "type": "bool"
        }
      ],
      "name": "AdapterAllowedUpdated",
      "type": "event"
    },
    {
      "anonymous": false,
      "inputs": [
        {
          "indexed": true,
          "internalType": "address",
          "name": "permit2",
          "type": "address"
        },
        {
          "indexed": true,
          "internalType": "address",
          "name": "treasury",
          "type": "address"
        },
        {
          "indexed": true,
          "internalType": "address",
          "name": "weth",
          "type": "address"
        },
        {
          "indexed": false,
          "internalType": "uint16",
          "name": "resolverShareBps",
          "type": "uint16"
        },
        {
          "indexed": false,
          "internalType": "uint16",
          "name": "referrerShareBps",
          "type": "uint16"
        },
        {
          "indexed": false,
          "internalType": "uint32",
          "name": "rerangeCooldown",
          "type": "uint32"
        },
        {
          "indexed": false,
          "internalType": "uint16",
          "name": "completionThresholdBps",
          "type": "uint16"
        },
        {
          "indexed": false,
          "internalType": "bool",
          "name": "paused",
          "type": "bool"
        }
      ],
      "name": "HubConfigUpdated",
      "type": "event"
    },
    {
      "anonymous": false,
      "inputs": [
        {
          "indexed": true,
          "internalType": "bytes32",
          "name": "orderKey",
          "type": "bytes32"
        },
        {
          "indexed": true,
          "internalType": "address",
          "name": "resolver",
          "type": "address"
        },
        {
          "indexed": true,
          "internalType": "address",
          "name": "referrer",
          "type": "address"
        },
        {
          "indexed": false,
          "internalType": "uint256",
          "name": "accruedFee0",
          "type": "uint256"
        },
        {
          "indexed": false,
          "internalType": "uint256",
          "name": "accruedFee1",
          "type": "uint256"
        }
      ],
      "name": "OrderClosed",
      "type": "event"
    },
    {
      "anonymous": false,
      "inputs": [
        {
          "indexed": true,
          "internalType": "bytes32",
          "name": "orderKey",
          "type": "bytes32"
        },
        {
          "indexed": true,
          "internalType": "address",
          "name": "vault",
          "type": "address"
        },
        {
          "indexed": true,
          "internalType": "uint256",
          "name": "orderIndex",
          "type": "uint256"
        },
        {
          "indexed": false,
          "internalType": "address",
          "name": "adapter",
          "type": "address"
        },
        {
          "indexed": false,
          "internalType": "bool",
          "name": "isSell",
          "type": "bool"
        },
        {
          "indexed": false,
          "internalType": "int24",
          "name": "targetTick",
          "type": "int24"
        }
      ],
      "name": "OrderOpened",
      "type": "event"
    },
    {
      "anonymous": false,
      "inputs": [
        {
          "indexed": true,
          "internalType": "bytes32",
          "name": "orderKey",
          "type": "bytes32"
        },
        {
          "indexed": false,
          "internalType": "int24",
          "name": "lowerTick",
          "type": "int24"
        },
        {
          "indexed": false,
          "internalType": "int24",
          "name": "upperTick",
          "type": "int24"
        },
        {
          "indexed": false,
          "internalType": "uint256",
          "name": "sourceBalance",
          "type": "uint256"
        },
        {
          "indexed": false,
          "internalType": "uint32",
          "name": "rerangeCount",
          "type": "uint32"
        }
      ],
      "name": "OrderReranged",
      "type": "event"
    },
    {
      "anonymous": false,
      "inputs": [
        {
          "indexed": true,
          "internalType": "address",
          "name": "previousOwner",
          "type": "address"
        },
        {
          "indexed": true,
          "internalType": "address",
          "name": "newOwner",
          "type": "address"
        }
      ],
      "name": "OwnershipTransferred",
      "type": "event"
    },
    {
      "anonymous": false,
      "inputs": [
        {
          "indexed": true,
          "internalType": "address",
          "name": "owner",
          "type": "address"
        },
        {
          "indexed": true,
          "internalType": "uint256",
          "name": "vaultIndex",
          "type": "uint256"
        },
        {
          "indexed": true,
          "internalType": "address",
          "name": "vault",
          "type": "address"
        }
      ],
      "name": "VaultCreated",
      "type": "event"
    },
    {
      "inputs": [
        {
          "internalType": "address",
          "name": "",
          "type": "address"
        }
      ],
      "name": "adapters",
      "outputs": [
        {
          "internalType": "bool",
          "name": "",
          "type": "bool"
        }
      ],
      "stateMutability": "view",
      "type": "function"
    },
    {
      "inputs": [
        {
          "internalType": "bytes32[]",
          "name": "orderKeys",
          "type": "bytes32[]"
        }
      ],
      "name": "batchRerange",
      "outputs": [
        {
          "internalType": "bool[]",
          "name": "success",
          "type": "bool[]"
        },
        {
          "internalType": "bytes[]",
          "name": "results",
          "type": "bytes[]"
        }
      ],
      "stateMutability": "nonpayable",
      "type": "function"
    },
    {
      "inputs": [
        {
          "internalType": "bytes32",
          "name": "orderKey",
          "type": "bytes32"
        }
      ],
      "name": "close",
      "outputs": [
        {
          "components": [
            {
              "components": [
                {
                  "internalType": "address",
                  "name": "vault",
                  "type": "address"
                },
                {
                  "internalType": "address",
                  "name": "adapter",
                  "type": "address"
                },
                {
                  "internalType": "address",
                  "name": "token0",
                  "type": "address"
                },
                {
                  "internalType": "address",
                  "name": "token1",
                  "type": "address"
                },
                {
                  "internalType": "uint256",
                  "name": "capital",
                  "type": "uint256"
                },
                {
                  "internalType": "bool",
                  "name": "isSell",
                  "type": "bool"
                },
                {
                  "internalType": "int24",
                  "name": "targetTick",
                  "type": "int24"
                },
                {
                  "internalType": "uint24",
                  "name": "triggerTicks",
                  "type": "uint24"
                },
                {
                  "internalType": "bytes",
                  "name": "adapterData",
                  "type": "bytes"
                },
                {
                  "internalType": "address",
                  "name": "referrer",
                  "type": "address"
                },
                {
                  "internalType": "bool",
                  "name": "keepBalancesInVault",
                  "type": "bool"
                },
                {
                  "internalType": "bool",
                  "name": "unwrapOut",
                  "type": "bool"
                },
                {
                  "internalType": "bool",
                  "name": "closed",
                  "type": "bool"
                },
                {
                  "internalType": "uint32",
                  "name": "rerangeCount",
                  "type": "uint32"
                },
                {
                  "internalType": "uint40",
                  "name": "createdAt",
                  "type": "uint40"
                },
                {
                  "internalType": "uint40",
                  "name": "lastRerangeAt",
                  "type": "uint40"
                },
                {
                  "internalType": "uint256",
                  "name": "accruedFee0",
                  "type": "uint256"
                },
                {
                  "internalType": "uint256",
                  "name": "accruedFee1",
                  "type": "uint256"
                },
                {
                  "internalType": "uint256",
                  "name": "idle0",
                  "type": "uint256"
                },
                {
                  "internalType": "uint256",
                  "name": "idle1",
                  "type": "uint256"
                }
              ],
              "internalType": "struct RerangeTypes.Order",
              "name": "order",
              "type": "tuple"
            },
            {
              "components": [
                {
                  "internalType": "int24",
                  "name": "currentTick",
                  "type": "int24"
                },
                {
                  "internalType": "int24",
                  "name": "twapTick",
                  "type": "int24"
                },
                {
                  "internalType": "uint160",
                  "name": "sqrtPriceX96",
                  "type": "uint160"
                },
                {
                  "internalType": "uint128",
                  "name": "poolLiquidity",
                  "type": "uint128"
                }
              ],
              "internalType": "struct RerangeTypes.PoolState",
              "name": "market",
              "type": "tuple"
            },
            {
              "components": [
                {
                  "internalType": "bool",
                  "name": "active",
                  "type": "bool"
                },
                {
                  "internalType": "uint128",
                  "name": "liquidity",
                  "type": "uint128"
                },
                {
                  "internalType": "uint256",
                  "name": "sourceBalance",
                  "type": "uint256"
                },
                {
                  "internalType": "uint256",
                  "name": "targetBalance",
                  "type": "uint256"
                },
                {
                  "internalType": "uint256",
                  "name": "pendingFee0",
                  "type": "uint256"
                },
                {
                  "internalType": "uint256",
                  "name": "pendingFee1",
                  "type": "uint256"
                },
                {
                  "internalType": "int24",
                  "name": "lowerTick",
                  "type": "int24"
                },
                {
                  "internalType": "int24",
                  "name": "upperTick",
                  "type": "int24"
                }
              ],
              "internalType": "struct RerangeTypes.PositionView",
              "name": "position",
              "type": "tuple"
            },
            {
              "internalType": "uint256",
              "name": "reward0",
              "type": "uint256"
            },
            {
              "internalType": "uint256",
              "name": "reward1",
              "type": "uint256"
            },
            {
              "internalType": "uint256",
              "name": "sourceBalance",
              "type": "uint256"
            },
            {
              "internalType": "bool",
              "name": "willClose",
              "type": "bool"
            },
            {
              "internalType": "int24",
              "name": "nextLowerTick",
              "type": "int24"
            },
            {
              "internalType": "int24",
              "name": "nextUpperTick",
              "type": "int24"
            },
            {
              "components": [
                {
                  "internalType": "bool",
                  "name": "collectFees",
                  "type": "bool"
                },
                {
                  "internalType": "bool",
                  "name": "removeLiquidity",
                  "type": "bool"
                },
                {
                  "internalType": "bool",
                  "name": "activateOrder",
                  "type": "bool"
                },
                {
                  "internalType": "bool",
                  "name": "closeOrder",
                  "type": "bool"
                },
                {
                  "internalType": "int24",
                  "name": "expectedTick",
                  "type": "int24"
                },
                {
                  "internalType": "int24",
                  "name": "activateTickLower",
                  "type": "int24"
                },
                {
                  "internalType": "int24",
                  "name": "activateTickUpper",
                  "type": "int24"
                },
                {
                  "internalType": "uint256",
                  "name": "deployAmount0",
                  "type": "uint256"
                },
                {
                  "internalType": "uint256",
                  "name": "deployAmount1",
                  "type": "uint256"
                },
                {
                  "internalType": "uint256",
                  "name": "minRemove0",
                  "type": "uint256"
                },
                {
                  "internalType": "uint256",
                  "name": "minRemove1",
                  "type": "uint256"
                },
                {
                  "internalType": "uint256",
                  "name": "minActivate0",
                  "type": "uint256"
                },
                {
                  "internalType": "uint256",
                  "name": "minActivate1",
                  "type": "uint256"
                },
                {
                  "internalType": "uint128",
                  "name": "minActivateLiquidity",
                  "type": "uint128"
                }
              ],
              "internalType": "struct RerangeTypes.ExecutionPlan",
              "name": "removePlan",
              "type": "tuple"
            },
            {
              "components": [
                {
                  "internalType": "bool",
                  "name": "collectFees",
                  "type": "bool"
                },
                {
                  "internalType": "bool",
                  "name": "removeLiquidity",
                  "type": "bool"
                },
                {
                  "internalType": "bool",
                  "name": "activateOrder",
                  "type": "bool"
                },
                {
                  "internalType": "bool",
                  "name": "closeOrder",
                  "type": "bool"
                },
                {
                  "internalType": "int24",
                  "name": "expectedTick",
                  "type": "int24"
                },
                {
                  "internalType": "int24",
                  "name": "activateTickLower",
                  "type": "int24"
                },
                {
                  "internalType": "int24",
                  "name": "activateTickUpper",
                  "type": "int24"
                },
                {
                  "internalType": "uint256",
                  "name": "deployAmount0",
                  "type": "uint256"
                },
                {
                  "internalType": "uint256",
                  "name": "deployAmount1",
                  "type": "uint256"
                },
                {
                  "internalType": "uint256",
                  "name": "minRemove0",
                  "type": "uint256"
                },
                {
                  "internalType": "uint256",
                  "name": "minRemove1",
                  "type": "uint256"
                },
                {
                  "internalType": "uint256",
                  "name": "minActivate0",
                  "type": "uint256"
                },
                {
                  "internalType": "uint256",
                  "name": "minActivate1",
                  "type": "uint256"
                },
                {
                  "internalType": "uint128",
                  "name": "minActivateLiquidity",
                  "type": "uint128"
                }
              ],
              "internalType": "struct RerangeTypes.ExecutionPlan",
              "name": "activatePlan",
              "type": "tuple"
            }
          ],
          "internalType": "struct RerangeTypes.OrderActionPreview",
          "name": "preview",
          "type": "tuple"
        }
      ],
      "stateMutability": "nonpayable",
      "type": "function"
    },
    {
      "inputs": [],
      "name": "createVault",
      "outputs": [
        {
          "internalType": "address",
          "name": "vault",
          "type": "address"
        }
      ],
      "stateMutability": "nonpayable",
      "type": "function"
    },
    {
      "inputs": [
        {
          "internalType": "bytes32",
          "name": "orderKey",
          "type": "bytes32"
        }
      ],
      "name": "getOrder",
      "outputs": [
        {
          "components": [
            {
              "internalType": "address",
              "name": "vault",
              "type": "address"
            },
            {
              "internalType": "address",
              "name": "adapter",
              "type": "address"
            },
            {
              "internalType": "address",
              "name": "token0",
              "type": "address"
            },
            {
              "internalType": "address",
              "name": "token1",
              "type": "address"
            },
            {
              "internalType": "uint256",
              "name": "capital",
              "type": "uint256"
            },
            {
              "internalType": "bool",
              "name": "isSell",
              "type": "bool"
            },
            {
              "internalType": "int24",
              "name": "targetTick",
              "type": "int24"
            },
            {
              "internalType": "uint24",
              "name": "triggerTicks",
              "type": "uint24"
            },
            {
              "internalType": "bytes",
              "name": "adapterData",
              "type": "bytes"
            },
            {
              "internalType": "address",
              "name": "referrer",
              "type": "address"
            },
            {
              "internalType": "bool",
              "name": "keepBalancesInVault",
              "type": "bool"
            },
            {
              "internalType": "bool",
              "name": "unwrapOut",
              "type": "bool"
            },
            {
              "internalType": "bool",
              "name": "closed",
              "type": "bool"
            },
            {
              "internalType": "uint32",
              "name": "rerangeCount",
              "type": "uint32"
            },
            {
              "internalType": "uint40",
              "name": "createdAt",
              "type": "uint40"
            },
            {
              "internalType": "uint40",
              "name": "lastRerangeAt",
              "type": "uint40"
            },
            {
              "internalType": "uint256",
              "name": "accruedFee0",
              "type": "uint256"
            },
            {
              "internalType": "uint256",
              "name": "accruedFee1",
              "type": "uint256"
            },
            {
              "internalType": "uint256",
              "name": "idle0",
              "type": "uint256"
            },
            {
              "internalType": "uint256",
              "name": "idle1",
              "type": "uint256"
            }
          ],
          "internalType": "struct RerangeTypes.Order",
          "name": "",
          "type": "tuple"
        }
      ],
      "stateMutability": "view",
      "type": "function"
    },
    {
      "inputs": [
        {
          "internalType": "address",
          "name": "vault",
          "type": "address"
        },
        {
          "internalType": "uint256",
          "name": "orderIndex",
          "type": "uint256"
        }
      ],
      "name": "getOrderByIndex",
      "outputs": [
        {
          "components": [
            {
              "internalType": "address",
              "name": "vault",
              "type": "address"
            },
            {
              "internalType": "address",
              "name": "adapter",
              "type": "address"
            },
            {
              "internalType": "address",
              "name": "token0",
              "type": "address"
            },
            {
              "internalType": "address",
              "name": "token1",
              "type": "address"
            },
            {
              "internalType": "uint256",
              "name": "capital",
              "type": "uint256"
            },
            {
              "internalType": "bool",
              "name": "isSell",
              "type": "bool"
            },
            {
              "internalType": "int24",
              "name": "targetTick",
              "type": "int24"
            },
            {
              "internalType": "uint24",
              "name": "triggerTicks",
              "type": "uint24"
            },
            {
              "internalType": "bytes",
              "name": "adapterData",
              "type": "bytes"
            },
            {
              "internalType": "address",
              "name": "referrer",
              "type": "address"
            },
            {
              "internalType": "bool",
              "name": "keepBalancesInVault",
              "type": "bool"
            },
            {
              "internalType": "bool",
              "name": "unwrapOut",
              "type": "bool"
            },
            {
              "internalType": "bool",
              "name": "closed",
              "type": "bool"
            },
            {
              "internalType": "uint32",
              "name": "rerangeCount",
              "type": "uint32"
            },
            {
              "internalType": "uint40",
              "name": "createdAt",
              "type": "uint40"
            },
            {
              "internalType": "uint40",
              "name": "lastRerangeAt",
              "type": "uint40"
            },
            {
              "internalType": "uint256",
              "name": "accruedFee0",
              "type": "uint256"
            },
            {
              "internalType": "uint256",
              "name": "accruedFee1",
              "type": "uint256"
            },
            {
              "internalType": "uint256",
              "name": "idle0",
              "type": "uint256"
            },
            {
              "internalType": "uint256",
              "name": "idle1",
              "type": "uint256"
            }
          ],
          "internalType": "struct RerangeTypes.Order",
          "name": "",
          "type": "tuple"
        }
      ],
      "stateMutability": "view",
      "type": "function"
    },
    {
      "inputs": [
        {
          "internalType": "address",
          "name": "vault",
          "type": "address"
        },
        {
          "internalType": "uint256",
          "name": "orderIndex",
          "type": "uint256"
        }
      ],
      "name": "getOrderKey",
      "outputs": [
        {
          "internalType": "bytes32",
          "name": "",
          "type": "bytes32"
        }
      ],
      "stateMutability": "pure",
      "type": "function"
    },
    {
      "inputs": [
        {
          "internalType": "bytes32",
          "name": "orderKey",
          "type": "bytes32"
        }
      ],
      "name": "getOrderState",
      "outputs": [
        {
          "components": [
            {
              "components": [
                {
                  "internalType": "address",
                  "name": "vault",
                  "type": "address"
                },
                {
                  "internalType": "address",
                  "name": "adapter",
                  "type": "address"
                },
                {
                  "internalType": "address",
                  "name": "token0",
                  "type": "address"
                },
                {
                  "internalType": "address",
                  "name": "token1",
                  "type": "address"
                },
                {
                  "internalType": "uint256",
                  "name": "capital",
                  "type": "uint256"
                },
                {
                  "internalType": "bool",
                  "name": "isSell",
                  "type": "bool"
                },
                {
                  "internalType": "int24",
                  "name": "targetTick",
                  "type": "int24"
                },
                {
                  "internalType": "uint24",
                  "name": "triggerTicks",
                  "type": "uint24"
                },
                {
                  "internalType": "bytes",
                  "name": "adapterData",
                  "type": "bytes"
                },
                {
                  "internalType": "address",
                  "name": "referrer",
                  "type": "address"
                },
                {
                  "internalType": "bool",
                  "name": "keepBalancesInVault",
                  "type": "bool"
                },
                {
                  "internalType": "bool",
                  "name": "unwrapOut",
                  "type": "bool"
                },
                {
                  "internalType": "bool",
                  "name": "closed",
                  "type": "bool"
                },
                {
                  "internalType": "uint32",
                  "name": "rerangeCount",
                  "type": "uint32"
                },
                {
                  "internalType": "uint40",
                  "name": "createdAt",
                  "type": "uint40"
                },
                {
                  "internalType": "uint40",
                  "name": "lastRerangeAt",
                  "type": "uint40"
                },
                {
                  "internalType": "uint256",
                  "name": "accruedFee0",
                  "type": "uint256"
                },
                {
                  "internalType": "uint256",
                  "name": "accruedFee1",
                  "type": "uint256"
                },
                {
                  "internalType": "uint256",
                  "name": "idle0",
                  "type": "uint256"
                },
                {
                  "internalType": "uint256",
                  "name": "idle1",
                  "type": "uint256"
                }
              ],
              "internalType": "struct RerangeTypes.Order",
              "name": "order",
              "type": "tuple"
            },
            {
              "internalType": "enum RerangeTypes.OrderStatus",
              "name": "status",
              "type": "uint8"
            },
            {
              "internalType": "int24",
              "name": "lowerTick",
              "type": "int24"
            },
            {
              "internalType": "int24",
              "name": "upperTick",
              "type": "int24"
            },
            {
              "internalType": "uint128",
              "name": "liquidity",
              "type": "uint128"
            },
            {
              "internalType": "uint32",
              "name": "rerangeCount",
              "type": "uint32"
            },
            {
              "internalType": "uint256",
              "name": "progressBps",
              "type": "uint256"
            },
            {
              "internalType": "uint256",
              "name": "remainingSource",
              "type": "uint256"
            },
            {
              "internalType": "uint256",
              "name": "convertedTarget",
              "type": "uint256"
            },
            {
              "internalType": "uint256",
              "name": "accruedFee0",
              "type": "uint256"
            },
            {
              "internalType": "uint256",
              "name": "accruedFee1",
              "type": "uint256"
            },
            {
              "components": [
                {
                  "internalType": "int24",
                  "name": "currentTick",
                  "type": "int24"
                },
                {
                  "internalType": "int24",
                  "name": "twapTick",
                  "type": "int24"
                },
                {
                  "internalType": "uint160",
                  "name": "sqrtPriceX96",
                  "type": "uint160"
                },
                {
                  "internalType": "uint128",
                  "name": "poolLiquidity",
                  "type": "uint128"
                }
              ],
              "internalType": "struct RerangeTypes.PoolState",
              "name": "market",
              "type": "tuple"
            }
          ],
          "internalType": "struct RerangeTypes.OrderStateView",
          "name": "",
          "type": "tuple"
        }
      ],
      "stateMutability": "view",
      "type": "function"
    },
    {
      "inputs": [],
      "name": "hubConfig",
      "outputs": [
        {
          "internalType": "address",
          "name": "permit2",
          "type": "address"
        },
        {
          "internalType": "address",
          "name": "treasury",
          "type": "address"
        },
        {
          "internalType": "address",
          "name": "weth",
          "type": "address"
        },
        {
          "internalType": "uint16",
          "name": "resolverShareBps",
          "type": "uint16"
        },
        {
          "internalType": "uint16",
          "name": "referrerShareBps",
          "type": "uint16"
        },
        {
          "internalType": "uint32",
          "name": "rerangeCooldown",
          "type": "uint32"
        },
        {
          "internalType": "uint16",
          "name": "completionThresholdBps",
          "type": "uint16"
        },
        {
          "internalType": "bool",
          "name": "paused",
          "type": "bool"
        }
      ],
      "stateMutability": "view",
      "type": "function"
    },
    {
      "inputs": [
        {
          "internalType": "bytes32",
          "name": "orderKey",
          "type": "bytes32"
        }
      ],
      "name": "isOrderClosed",
      "outputs": [
        {
          "internalType": "bool",
          "name": "",
          "type": "bool"
        }
      ],
      "stateMutability": "view",
      "type": "function"
    },
    {
      "inputs": [
        {
          "internalType": "bytes[]",
          "name": "data",
          "type": "bytes[]"
        }
      ],
      "name": "multicall",
      "outputs": [
        {
          "internalType": "bytes[]",
          "name": "results",
          "type": "bytes[]"
        }
      ],
      "stateMutability": "nonpayable",
      "type": "function"
    },
    {
      "inputs": [
        {
          "components": [
            {
              "internalType": "address",
              "name": "vault",
              "type": "address"
            },
            {
              "internalType": "address",
              "name": "adapter",
              "type": "address"
            },
            {
              "internalType": "address",
              "name": "token0",
              "type": "address"
            },
            {
              "internalType": "address",
              "name": "token1",
              "type": "address"
            },
            {
              "internalType": "uint256",
              "name": "capital",
              "type": "uint256"
            },
            {
              "internalType": "bool",
              "name": "isSell",
              "type": "bool"
            },
            {
              "internalType": "int24",
              "name": "targetTick",
              "type": "int24"
            },
            {
              "internalType": "uint24",
              "name": "triggerTicks",
              "type": "uint24"
            },
            {
              "internalType": "bytes",
              "name": "adapterConfig",
              "type": "bytes"
            },
            {
              "internalType": "address",
              "name": "referrer",
              "type": "address"
            },
            {
              "internalType": "bool",
              "name": "keepBalancesInVault",
              "type": "bool"
            },
            {
              "internalType": "bool",
              "name": "unwrapOut",
              "type": "bool"
            }
          ],
          "internalType": "struct RerangeTypes.CreateOrderParams",
          "name": "params",
          "type": "tuple"
        }
      ],
      "name": "open",
      "outputs": [
        {
          "components": [
            {
              "components": [
                {
                  "internalType": "address",
                  "name": "vault",
                  "type": "address"
                },
                {
                  "internalType": "address",
                  "name": "adapter",
                  "type": "address"
                },
                {
                  "internalType": "address",
                  "name": "token0",
                  "type": "address"
                },
                {
                  "internalType": "address",
                  "name": "token1",
                  "type": "address"
                },
                {
                  "internalType": "uint256",
                  "name": "capital",
                  "type": "uint256"
                },
                {
                  "internalType": "bool",
                  "name": "isSell",
                  "type": "bool"
                },
                {
                  "internalType": "int24",
                  "name": "targetTick",
                  "type": "int24"
                },
                {
                  "internalType": "uint24",
                  "name": "triggerTicks",
                  "type": "uint24"
                },
                {
                  "internalType": "bytes",
                  "name": "adapterData",
                  "type": "bytes"
                },
                {
                  "internalType": "address",
                  "name": "referrer",
                  "type": "address"
                },
                {
                  "internalType": "bool",
                  "name": "keepBalancesInVault",
                  "type": "bool"
                },
                {
                  "internalType": "bool",
                  "name": "unwrapOut",
                  "type": "bool"
                },
                {
                  "internalType": "bool",
                  "name": "closed",
                  "type": "bool"
                },
                {
                  "internalType": "uint32",
                  "name": "rerangeCount",
                  "type": "uint32"
                },
                {
                  "internalType": "uint40",
                  "name": "createdAt",
                  "type": "uint40"
                },
                {
                  "internalType": "uint40",
                  "name": "lastRerangeAt",
                  "type": "uint40"
                },
                {
                  "internalType": "uint256",
                  "name": "accruedFee0",
                  "type": "uint256"
                },
                {
                  "internalType": "uint256",
                  "name": "accruedFee1",
                  "type": "uint256"
                },
                {
                  "internalType": "uint256",
                  "name": "idle0",
                  "type": "uint256"
                },
                {
                  "internalType": "uint256",
                  "name": "idle1",
                  "type": "uint256"
                }
              ],
              "internalType": "struct RerangeTypes.Order",
              "name": "order",
              "type": "tuple"
            },
            {
              "components": [
                {
                  "internalType": "int24",
                  "name": "currentTick",
                  "type": "int24"
                },
                {
                  "internalType": "int24",
                  "name": "twapTick",
                  "type": "int24"
                },
                {
                  "internalType": "uint160",
                  "name": "sqrtPriceX96",
                  "type": "uint160"
                },
                {
                  "internalType": "uint128",
                  "name": "poolLiquidity",
                  "type": "uint128"
                }
              ],
              "internalType": "struct RerangeTypes.PoolState",
              "name": "market",
              "type": "tuple"
            },
            {
              "components": [
                {
                  "internalType": "bool",
                  "name": "active",
                  "type": "bool"
                },
                {
                  "internalType": "uint128",
                  "name": "liquidity",
                  "type": "uint128"
                },
                {
                  "internalType": "uint256",
                  "name": "sourceBalance",
                  "type": "uint256"
                },
                {
                  "internalType": "uint256",
                  "name": "targetBalance",
                  "type": "uint256"
                },
                {
                  "internalType": "uint256",
                  "name": "pendingFee0",
                  "type": "uint256"
                },
                {
                  "internalType": "uint256",
                  "name": "pendingFee1",
                  "type": "uint256"
                },
                {
                  "internalType": "int24",
                  "name": "lowerTick",
                  "type": "int24"
                },
                {
                  "internalType": "int24",
                  "name": "upperTick",
                  "type": "int24"
                }
              ],
              "internalType": "struct RerangeTypes.PositionView",
              "name": "position",
              "type": "tuple"
            },
            {
              "internalType": "uint256",
              "name": "reward0",
              "type": "uint256"
            },
            {
              "internalType": "uint256",
              "name": "reward1",
              "type": "uint256"
            },
            {
              "internalType": "uint256",
              "name": "sourceBalance",
              "type": "uint256"
            },
            {
              "internalType": "bool",
              "name": "willClose",
              "type": "bool"
            },
            {
              "internalType": "int24",
              "name": "nextLowerTick",
              "type": "int24"
            },
            {
              "internalType": "int24",
              "name": "nextUpperTick",
              "type": "int24"
            },
            {
              "components": [
                {
                  "internalType": "bool",
                  "name": "collectFees",
                  "type": "bool"
                },
                {
                  "internalType": "bool",
                  "name": "removeLiquidity",
                  "type": "bool"
                },
                {
                  "internalType": "bool",
                  "name": "activateOrder",
                  "type": "bool"
                },
                {
                  "internalType": "bool",
                  "name": "closeOrder",
                  "type": "bool"
                },
                {
                  "internalType": "int24",
                  "name": "expectedTick",
                  "type": "int24"
                },
                {
                  "internalType": "int24",
                  "name": "activateTickLower",
                  "type": "int24"
                },
                {
                  "internalType": "int24",
                  "name": "activateTickUpper",
                  "type": "int24"
                },
                {
                  "internalType": "uint256",
                  "name": "deployAmount0",
                  "type": "uint256"
                },
                {
                  "internalType": "uint256",
                  "name": "deployAmount1",
                  "type": "uint256"
                },
                {
                  "internalType": "uint256",
                  "name": "minRemove0",
                  "type": "uint256"
                },
                {
                  "internalType": "uint256",
                  "name": "minRemove1",
                  "type": "uint256"
                },
                {
                  "internalType": "uint256",
                  "name": "minActivate0",
                  "type": "uint256"
                },
                {
                  "internalType": "uint256",
                  "name": "minActivate1",
                  "type": "uint256"
                },
                {
                  "internalType": "uint128",
                  "name": "minActivateLiquidity",
                  "type": "uint128"
                }
              ],
              "internalType": "struct RerangeTypes.ExecutionPlan",
              "name": "removePlan",
              "type": "tuple"
            },
            {
              "components": [
                {
                  "internalType": "bool",
                  "name": "collectFees",
                  "type": "bool"
                },
                {
                  "internalType": "bool",
                  "name": "removeLiquidity",
                  "type": "bool"
                },
                {
                  "internalType": "bool",
                  "name": "activateOrder",
                  "type": "bool"
                },
                {
                  "internalType": "bool",
                  "name": "closeOrder",
                  "type": "bool"
                },
                {
                  "internalType": "int24",
                  "name": "expectedTick",
                  "type": "int24"
                },
                {
                  "internalType": "int24",
                  "name": "activateTickLower",
                  "type": "int24"
                },
                {
                  "internalType": "int24",
                  "name": "activateTickUpper",
                  "type": "int24"
                },
                {
                  "internalType": "uint256",
                  "name": "deployAmount0",
                  "type": "uint256"
                },
                {
                  "internalType": "uint256",
                  "name": "deployAmount1",
                  "type": "uint256"
                },
                {
                  "internalType": "uint256",
                  "name": "minRemove0",
                  "type": "uint256"
                },
                {
                  "internalType": "uint256",
                  "name": "minRemove1",
                  "type": "uint256"
                },
                {
                  "internalType": "uint256",
                  "name": "minActivate0",
                  "type": "uint256"
                },
                {
                  "internalType": "uint256",
                  "name": "minActivate1",
                  "type": "uint256"
                },
                {
                  "internalType": "uint128",
                  "name": "minActivateLiquidity",
                  "type": "uint128"
                }
              ],
              "internalType": "struct RerangeTypes.ExecutionPlan",
              "name": "activatePlan",
              "type": "tuple"
            }
          ],
          "internalType": "struct RerangeTypes.OrderActionPreview",
          "name": "preview",
          "type": "tuple"
        }
      ],
      "stateMutability": "payable",
      "type": "function"
    },
    {
      "inputs": [
        {
          "components": [
            {
              "internalType": "address",
              "name": "vault",
              "type": "address"
            },
            {
              "internalType": "address",
              "name": "adapter",
              "type": "address"
            },
            {
              "internalType": "address",
              "name": "token0",
              "type": "address"
            },
            {
              "internalType": "address",
              "name": "token1",
              "type": "address"
            },
            {
              "internalType": "uint256",
              "name": "capital",
              "type": "uint256"
            },
            {
              "internalType": "bool",
              "name": "isSell",
              "type": "bool"
            },
            {
              "internalType": "int24",
              "name": "targetTick",
              "type": "int24"
            },
            {
              "internalType": "uint24",
              "name": "triggerTicks",
              "type": "uint24"
            },
            {
              "internalType": "bytes",
              "name": "adapterConfig",
              "type": "bytes"
            },
            {
              "internalType": "address",
              "name": "referrer",
              "type": "address"
            },
            {
              "internalType": "bool",
              "name": "keepBalancesInVault",
              "type": "bool"
            },
            {
              "internalType": "bool",
              "name": "unwrapOut",
              "type": "bool"
            }
          ],
          "internalType": "struct RerangeTypes.CreateOrderParams",
          "name": "params",
          "type": "tuple"
        },
        {
          "components": [
            {
              "components": [
                {
                  "internalType": "address",
                  "name": "token",
                  "type": "address"
                },
                {
                  "internalType": "uint256",
                  "name": "amount",
                  "type": "uint256"
                }
              ],
              "internalType": "struct ISignatureTransfer.TokenPermissions",
              "name": "permitted",
              "type": "tuple"
            },
            {
              "internalType": "uint256",
              "name": "nonce",
              "type": "uint256"
            },
            {
              "internalType": "uint256",
              "name": "deadline",
              "type": "uint256"
            }
          ],
          "internalType": "struct ISignatureTransfer.PermitTransferFrom",
          "name": "permit",
          "type": "tuple"
        },
        {
          "internalType": "bytes",
          "name": "signature",
          "type": "bytes"
        }
      ],
      "name": "open2",
      "outputs": [
        {
          "components": [
            {
              "components": [
                {
                  "internalType": "address",
                  "name": "vault",
                  "type": "address"
                },
                {
                  "internalType": "address",
                  "name": "adapter",
                  "type": "address"
                },
                {
                  "internalType": "address",
                  "name": "token0",
                  "type": "address"
                },
                {
                  "internalType": "address",
                  "name": "token1",
                  "type": "address"
                },
                {
                  "internalType": "uint256",
                  "name": "capital",
                  "type": "uint256"
                },
                {
                  "internalType": "bool",
                  "name": "isSell",
                  "type": "bool"
                },
                {
                  "internalType": "int24",
                  "name": "targetTick",
                  "type": "int24"
                },
                {
                  "internalType": "uint24",
                  "name": "triggerTicks",
                  "type": "uint24"
                },
                {
                  "internalType": "bytes",
                  "name": "adapterData",
                  "type": "bytes"
                },
                {
                  "internalType": "address",
                  "name": "referrer",
                  "type": "address"
                },
                {
                  "internalType": "bool",
                  "name": "keepBalancesInVault",
                  "type": "bool"
                },
                {
                  "internalType": "bool",
                  "name": "unwrapOut",
                  "type": "bool"
                },
                {
                  "internalType": "bool",
                  "name": "closed",
                  "type": "bool"
                },
                {
                  "internalType": "uint32",
                  "name": "rerangeCount",
                  "type": "uint32"
                },
                {
                  "internalType": "uint40",
                  "name": "createdAt",
                  "type": "uint40"
                },
                {
                  "internalType": "uint40",
                  "name": "lastRerangeAt",
                  "type": "uint40"
                },
                {
                  "internalType": "uint256",
                  "name": "accruedFee0",
                  "type": "uint256"
                },
                {
                  "internalType": "uint256",
                  "name": "accruedFee1",
                  "type": "uint256"
                },
                {
                  "internalType": "uint256",
                  "name": "idle0",
                  "type": "uint256"
                },
                {
                  "internalType": "uint256",
                  "name": "idle1",
                  "type": "uint256"
                }
              ],
              "internalType": "struct RerangeTypes.Order",
              "name": "order",
              "type": "tuple"
            },
            {
              "components": [
                {
                  "internalType": "int24",
                  "name": "currentTick",
                  "type": "int24"
                },
                {
                  "internalType": "int24",
                  "name": "twapTick",
                  "type": "int24"
                },
                {
                  "internalType": "uint160",
                  "name": "sqrtPriceX96",
                  "type": "uint160"
                },
                {
                  "internalType": "uint128",
                  "name": "poolLiquidity",
                  "type": "uint128"
                }
              ],
              "internalType": "struct RerangeTypes.PoolState",
              "name": "market",
              "type": "tuple"
            },
            {
              "components": [
                {
                  "internalType": "bool",
                  "name": "active",
                  "type": "bool"
                },
                {
                  "internalType": "uint128",
                  "name": "liquidity",
                  "type": "uint128"
                },
                {
                  "internalType": "uint256",
                  "name": "sourceBalance",
                  "type": "uint256"
                },
                {
                  "internalType": "uint256",
                  "name": "targetBalance",
                  "type": "uint256"
                },
                {
                  "internalType": "uint256",
                  "name": "pendingFee0",
                  "type": "uint256"
                },
                {
                  "internalType": "uint256",
                  "name": "pendingFee1",
                  "type": "uint256"
                },
                {
                  "internalType": "int24",
                  "name": "lowerTick",
                  "type": "int24"
                },
                {
                  "internalType": "int24",
                  "name": "upperTick",
                  "type": "int24"
                }
              ],
              "internalType": "struct RerangeTypes.PositionView",
              "name": "position",
              "type": "tuple"
            },
            {
              "internalType": "uint256",
              "name": "reward0",
              "type": "uint256"
            },
            {
              "internalType": "uint256",
              "name": "reward1",
              "type": "uint256"
            },
            {
              "internalType": "uint256",
              "name": "sourceBalance",
              "type": "uint256"
            },
            {
              "internalType": "bool",
              "name": "willClose",
              "type": "bool"
            },
            {
              "internalType": "int24",
              "name": "nextLowerTick",
              "type": "int24"
            },
            {
              "internalType": "int24",
              "name": "nextUpperTick",
              "type": "int24"
            },
            {
              "components": [
                {
                  "internalType": "bool",
                  "name": "collectFees",
                  "type": "bool"
                },
                {
                  "internalType": "bool",
                  "name": "removeLiquidity",
                  "type": "bool"
                },
                {
                  "internalType": "bool",
                  "name": "activateOrder",
                  "type": "bool"
                },
                {
                  "internalType": "bool",
                  "name": "closeOrder",
                  "type": "bool"
                },
                {
                  "internalType": "int24",
                  "name": "expectedTick",
                  "type": "int24"
                },
                {
                  "internalType": "int24",
                  "name": "activateTickLower",
                  "type": "int24"
                },
                {
                  "internalType": "int24",
                  "name": "activateTickUpper",
                  "type": "int24"
                },
                {
                  "internalType": "uint256",
                  "name": "deployAmount0",
                  "type": "uint256"
                },
                {
                  "internalType": "uint256",
                  "name": "deployAmount1",
                  "type": "uint256"
                },
                {
                  "internalType": "uint256",
                  "name": "minRemove0",
                  "type": "uint256"
                },
                {
                  "internalType": "uint256",
                  "name": "minRemove1",
                  "type": "uint256"
                },
                {
                  "internalType": "uint256",
                  "name": "minActivate0",
                  "type": "uint256"
                },
                {
                  "internalType": "uint256",
                  "name": "minActivate1",
                  "type": "uint256"
                },
                {
                  "internalType": "uint128",
                  "name": "minActivateLiquidity",
                  "type": "uint128"
                }
              ],
              "internalType": "struct RerangeTypes.ExecutionPlan",
              "name": "removePlan",
              "type": "tuple"
            },
            {
              "components": [
                {
                  "internalType": "bool",
                  "name": "collectFees",
                  "type": "bool"
                },
                {
                  "internalType": "bool",
                  "name": "removeLiquidity",
                  "type": "bool"
                },
                {
                  "internalType": "bool",
                  "name": "activateOrder",
                  "type": "bool"
                },
                {
                  "internalType": "bool",
                  "name": "closeOrder",
                  "type": "bool"
                },
                {
                  "internalType": "int24",
                  "name": "expectedTick",
                  "type": "int24"
                },
                {
                  "internalType": "int24",
                  "name": "activateTickLower",
                  "type": "int24"
                },
                {
                  "internalType": "int24",
                  "name": "activateTickUpper",
                  "type": "int24"
                },
                {
                  "internalType": "uint256",
                  "name": "deployAmount0",
                  "type": "uint256"
                },
                {
                  "internalType": "uint256",
                  "name": "deployAmount1",
                  "type": "uint256"
                },
                {
                  "internalType": "uint256",
                  "name": "minRemove0",
                  "type": "uint256"
                },
                {
                  "internalType": "uint256",
                  "name": "minRemove1",
                  "type": "uint256"
                },
                {
                  "internalType": "uint256",
                  "name": "minActivate0",
                  "type": "uint256"
                },
                {
                  "internalType": "uint256",
                  "name": "minActivate1",
                  "type": "uint256"
                },
                {
                  "internalType": "uint128",
                  "name": "minActivateLiquidity",
                  "type": "uint128"
                }
              ],
              "internalType": "struct RerangeTypes.ExecutionPlan",
              "name": "activatePlan",
              "type": "tuple"
            }
          ],
          "internalType": "struct RerangeTypes.OrderActionPreview",
          "name": "preview",
          "type": "tuple"
        }
      ],
      "stateMutability": "nonpayable",
      "type": "function"
    },
    {
      "inputs": [
        {
          "internalType": "bytes32",
          "name": "orderKey",
          "type": "bytes32"
        }
      ],
      "name": "orders",
      "outputs": [
        {
          "components": [
            {
              "internalType": "address",
              "name": "vault",
              "type": "address"
            },
            {
              "internalType": "address",
              "name": "adapter",
              "type": "address"
            },
            {
              "internalType": "address",
              "name": "token0",
              "type": "address"
            },
            {
              "internalType": "address",
              "name": "token1",
              "type": "address"
            },
            {
              "internalType": "uint256",
              "name": "capital",
              "type": "uint256"
            },
            {
              "internalType": "bool",
              "name": "isSell",
              "type": "bool"
            },
            {
              "internalType": "int24",
              "name": "targetTick",
              "type": "int24"
            },
            {
              "internalType": "uint24",
              "name": "triggerTicks",
              "type": "uint24"
            },
            {
              "internalType": "bytes",
              "name": "adapterData",
              "type": "bytes"
            },
            {
              "internalType": "address",
              "name": "referrer",
              "type": "address"
            },
            {
              "internalType": "bool",
              "name": "keepBalancesInVault",
              "type": "bool"
            },
            {
              "internalType": "bool",
              "name": "unwrapOut",
              "type": "bool"
            },
            {
              "internalType": "bool",
              "name": "closed",
              "type": "bool"
            },
            {
              "internalType": "uint32",
              "name": "rerangeCount",
              "type": "uint32"
            },
            {
              "internalType": "uint40",
              "name": "createdAt",
              "type": "uint40"
            },
            {
              "internalType": "uint40",
              "name": "lastRerangeAt",
              "type": "uint40"
            },
            {
              "internalType": "uint256",
              "name": "accruedFee0",
              "type": "uint256"
            },
            {
              "internalType": "uint256",
              "name": "accruedFee1",
              "type": "uint256"
            },
            {
              "internalType": "uint256",
              "name": "idle0",
              "type": "uint256"
            },
            {
              "internalType": "uint256",
              "name": "idle1",
              "type": "uint256"
            }
          ],
          "internalType": "struct RerangeTypes.Order",
          "name": "",
          "type": "tuple"
        }
      ],
      "stateMutability": "view",
      "type": "function"
    },
    {
      "inputs": [],
      "name": "owner",
      "outputs": [
        {
          "internalType": "address",
          "name": "",
          "type": "address"
        }
      ],
      "stateMutability": "view",
      "type": "function"
    },
    {
      "inputs": [
        {
          "internalType": "address",
          "name": "owner_",
          "type": "address"
        },
        {
          "internalType": "uint256",
          "name": "vaultIndex",
          "type": "uint256"
        }
      ],
      "name": "predictVault",
      "outputs": [
        {
          "internalType": "address",
          "name": "",
          "type": "address"
        }
      ],
      "stateMutability": "view",
      "type": "function"
    },
    {
      "inputs": [
        {
          "internalType": "bytes32",
          "name": "orderKey",
          "type": "bytes32"
        }
      ],
      "name": "previewClose",
      "outputs": [
        {
          "components": [
            {
              "components": [
                {
                  "internalType": "address",
                  "name": "vault",
                  "type": "address"
                },
                {
                  "internalType": "address",
                  "name": "adapter",
                  "type": "address"
                },
                {
                  "internalType": "address",
                  "name": "token0",
                  "type": "address"
                },
                {
                  "internalType": "address",
                  "name": "token1",
                  "type": "address"
                },
                {
                  "internalType": "uint256",
                  "name": "capital",
                  "type": "uint256"
                },
                {
                  "internalType": "bool",
                  "name": "isSell",
                  "type": "bool"
                },
                {
                  "internalType": "int24",
                  "name": "targetTick",
                  "type": "int24"
                },
                {
                  "internalType": "uint24",
                  "name": "triggerTicks",
                  "type": "uint24"
                },
                {
                  "internalType": "bytes",
                  "name": "adapterData",
                  "type": "bytes"
                },
                {
                  "internalType": "address",
                  "name": "referrer",
                  "type": "address"
                },
                {
                  "internalType": "bool",
                  "name": "keepBalancesInVault",
                  "type": "bool"
                },
                {
                  "internalType": "bool",
                  "name": "unwrapOut",
                  "type": "bool"
                },
                {
                  "internalType": "bool",
                  "name": "closed",
                  "type": "bool"
                },
                {
                  "internalType": "uint32",
                  "name": "rerangeCount",
                  "type": "uint32"
                },
                {
                  "internalType": "uint40",
                  "name": "createdAt",
                  "type": "uint40"
                },
                {
                  "internalType": "uint40",
                  "name": "lastRerangeAt",
                  "type": "uint40"
                },
                {
                  "internalType": "uint256",
                  "name": "accruedFee0",
                  "type": "uint256"
                },
                {
                  "internalType": "uint256",
                  "name": "accruedFee1",
                  "type": "uint256"
                },
                {
                  "internalType": "uint256",
                  "name": "idle0",
                  "type": "uint256"
                },
                {
                  "internalType": "uint256",
                  "name": "idle1",
                  "type": "uint256"
                }
              ],
              "internalType": "struct RerangeTypes.Order",
              "name": "order",
              "type": "tuple"
            },
            {
              "components": [
                {
                  "internalType": "int24",
                  "name": "currentTick",
                  "type": "int24"
                },
                {
                  "internalType": "int24",
                  "name": "twapTick",
                  "type": "int24"
                },
                {
                  "internalType": "uint160",
                  "name": "sqrtPriceX96",
                  "type": "uint160"
                },
                {
                  "internalType": "uint128",
                  "name": "poolLiquidity",
                  "type": "uint128"
                }
              ],
              "internalType": "struct RerangeTypes.PoolState",
              "name": "market",
              "type": "tuple"
            },
            {
              "components": [
                {
                  "internalType": "bool",
                  "name": "active",
                  "type": "bool"
                },
                {
                  "internalType": "uint128",
                  "name": "liquidity",
                  "type": "uint128"
                },
                {
                  "internalType": "uint256",
                  "name": "sourceBalance",
                  "type": "uint256"
                },
                {
                  "internalType": "uint256",
                  "name": "targetBalance",
                  "type": "uint256"
                },
                {
                  "internalType": "uint256",
                  "name": "pendingFee0",
                  "type": "uint256"
                },
                {
                  "internalType": "uint256",
                  "name": "pendingFee1",
                  "type": "uint256"
                },
                {
                  "internalType": "int24",
                  "name": "lowerTick",
                  "type": "int24"
                },
                {
                  "internalType": "int24",
                  "name": "upperTick",
                  "type": "int24"
                }
              ],
              "internalType": "struct RerangeTypes.PositionView",
              "name": "position",
              "type": "tuple"
            },
            {
              "internalType": "uint256",
              "name": "reward0",
              "type": "uint256"
            },
            {
              "internalType": "uint256",
              "name": "reward1",
              "type": "uint256"
            },
            {
              "internalType": "uint256",
              "name": "sourceBalance",
              "type": "uint256"
            },
            {
              "internalType": "bool",
              "name": "willClose",
              "type": "bool"
            },
            {
              "internalType": "int24",
              "name": "nextLowerTick",
              "type": "int24"
            },
            {
              "internalType": "int24",
              "name": "nextUpperTick",
              "type": "int24"
            },
            {
              "components": [
                {
                  "internalType": "bool",
                  "name": "collectFees",
                  "type": "bool"
                },
                {
                  "internalType": "bool",
                  "name": "removeLiquidity",
                  "type": "bool"
                },
                {
                  "internalType": "bool",
                  "name": "activateOrder",
                  "type": "bool"
                },
                {
                  "internalType": "bool",
                  "name": "closeOrder",
                  "type": "bool"
                },
                {
                  "internalType": "int24",
                  "name": "expectedTick",
                  "type": "int24"
                },
                {
                  "internalType": "int24",
                  "name": "activateTickLower",
                  "type": "int24"
                },
                {
                  "internalType": "int24",
                  "name": "activateTickUpper",
                  "type": "int24"
                },
                {
                  "internalType": "uint256",
                  "name": "deployAmount0",
                  "type": "uint256"
                },
                {
                  "internalType": "uint256",
                  "name": "deployAmount1",
                  "type": "uint256"
                },
                {
                  "internalType": "uint256",
                  "name": "minRemove0",
                  "type": "uint256"
                },
                {
                  "internalType": "uint256",
                  "name": "minRemove1",
                  "type": "uint256"
                },
                {
                  "internalType": "uint256",
                  "name": "minActivate0",
                  "type": "uint256"
                },
                {
                  "internalType": "uint256",
                  "name": "minActivate1",
                  "type": "uint256"
                },
                {
                  "internalType": "uint128",
                  "name": "minActivateLiquidity",
                  "type": "uint128"
                }
              ],
              "internalType": "struct RerangeTypes.ExecutionPlan",
              "name": "removePlan",
              "type": "tuple"
            },
            {
              "components": [
                {
                  "internalType": "bool",
                  "name": "collectFees",
                  "type": "bool"
                },
                {
                  "internalType": "bool",
                  "name": "removeLiquidity",
                  "type": "bool"
                },
                {
                  "internalType": "bool",
                  "name": "activateOrder",
                  "type": "bool"
                },
                {
                  "internalType": "bool",
                  "name": "closeOrder",
                  "type": "bool"
                },
                {
                  "internalType": "int24",
                  "name": "expectedTick",
                  "type": "int24"
                },
                {
                  "internalType": "int24",
                  "name": "activateTickLower",
                  "type": "int24"
                },
                {
                  "internalType": "int24",
                  "name": "activateTickUpper",
                  "type": "int24"
                },
                {
                  "internalType": "uint256",
                  "name": "deployAmount0",
                  "type": "uint256"
                },
                {
                  "internalType": "uint256",
                  "name": "deployAmount1",
                  "type": "uint256"
                },
                {
                  "internalType": "uint256",
                  "name": "minRemove0",
                  "type": "uint256"
                },
                {
                  "internalType": "uint256",
                  "name": "minRemove1",
                  "type": "uint256"
                },
                {
                  "internalType": "uint256",
                  "name": "minActivate0",
                  "type": "uint256"
                },
                {
                  "internalType": "uint256",
                  "name": "minActivate1",
                  "type": "uint256"
                },
                {
                  "internalType": "uint128",
                  "name": "minActivateLiquidity",
                  "type": "uint128"
                }
              ],
              "internalType": "struct RerangeTypes.ExecutionPlan",
              "name": "activatePlan",
              "type": "tuple"
            }
          ],
          "internalType": "struct RerangeTypes.OrderActionPreview",
          "name": "preview",
          "type": "tuple"
        }
      ],
      "stateMutability": "view",
      "type": "function"
    },
    {
      "inputs": [
        {
          "internalType": "address",
          "name": "owner_",
          "type": "address"
        },
        {
          "components": [
            {
              "internalType": "address",
              "name": "vault",
              "type": "address"
            },
            {
              "internalType": "address",
              "name": "adapter",
              "type": "address"
            },
            {
              "internalType": "address",
              "name": "token0",
              "type": "address"
            },
            {
              "internalType": "address",
              "name": "token1",
              "type": "address"
            },
            {
              "internalType": "uint256",
              "name": "capital",
              "type": "uint256"
            },
            {
              "internalType": "bool",
              "name": "isSell",
              "type": "bool"
            },
            {
              "internalType": "int24",
              "name": "targetTick",
              "type": "int24"
            },
            {
              "internalType": "uint24",
              "name": "triggerTicks",
              "type": "uint24"
            },
            {
              "internalType": "bytes",
              "name": "adapterConfig",
              "type": "bytes"
            },
            {
              "internalType": "address",
              "name": "referrer",
              "type": "address"
            },
            {
              "internalType": "bool",
              "name": "keepBalancesInVault",
              "type": "bool"
            },
            {
              "internalType": "bool",
              "name": "unwrapOut",
              "type": "bool"
            }
          ],
          "internalType": "struct RerangeTypes.CreateOrderParams",
          "name": "params",
          "type": "tuple"
        }
      ],
      "name": "previewOpen",
      "outputs": [
        {
          "components": [
            {
              "internalType": "address",
              "name": "vault",
              "type": "address"
            },
            {
              "internalType": "bool",
              "name": "vaultExists",
              "type": "bool"
            },
            {
              "internalType": "bytes",
              "name": "adapterData",
              "type": "bytes"
            },
            {
              "components": [
                {
                  "internalType": "int24",
                  "name": "currentTick",
                  "type": "int24"
                },
                {
                  "internalType": "int24",
                  "name": "twapTick",
                  "type": "int24"
                },
                {
                  "internalType": "uint160",
                  "name": "sqrtPriceX96",
                  "type": "uint160"
                },
                {
                  "internalType": "uint128",
                  "name": "poolLiquidity",
                  "type": "uint128"
                }
              ],
              "internalType": "struct RerangeTypes.PoolState",
              "name": "market",
              "type": "tuple"
            },
            {
              "internalType": "int24",
              "name": "tickSpacing",
              "type": "int24"
            },
            {
              "internalType": "int24",
              "name": "lowerTick",
              "type": "int24"
            },
            {
              "internalType": "int24",
              "name": "upperTick",
              "type": "int24"
            },
            {
              "components": [
                {
                  "internalType": "bool",
                  "name": "collectFees",
                  "type": "bool"
                },
                {
                  "internalType": "bool",
                  "name": "removeLiquidity",
                  "type": "bool"
                },
                {
                  "internalType": "bool",
                  "name": "activateOrder",
                  "type": "bool"
                },
                {
                  "internalType": "bool",
                  "name": "closeOrder",
                  "type": "bool"
                },
                {
                  "internalType": "int24",
                  "name": "expectedTick",
                  "type": "int24"
                },
                {
                  "internalType": "int24",
                  "name": "activateTickLower",
                  "type": "int24"
                },
                {
                  "internalType": "int24",
                  "name": "activateTickUpper",
                  "type": "int24"
                },
                {
                  "internalType": "uint256",
                  "name": "deployAmount0",
                  "type": "uint256"
                },
                {
                  "internalType": "uint256",
                  "name": "deployAmount1",
                  "type": "uint256"
                },
                {
                  "internalType": "uint256",
                  "name": "minRemove0",
                  "type": "uint256"
                },
                {
                  "internalType": "uint256",
                  "name": "minRemove1",
                  "type": "uint256"
                },
                {
                  "internalType": "uint256",
                  "name": "minActivate0",
                  "type": "uint256"
                },
                {
                  "internalType": "uint256",
                  "name": "minActivate1",
                  "type": "uint256"
                },
                {
                  "internalType": "uint128",
                  "name": "minActivateLiquidity",
                  "type": "uint128"
                }
              ],
              "internalType": "struct RerangeTypes.ExecutionPlan",
              "name": "activationPlan",
              "type": "tuple"
            }
          ],
          "internalType": "struct RerangeTypes.OpenPreview",
          "name": "preview",
          "type": "tuple"
        }
      ],
      "stateMutability": "view",
      "type": "function"
    },
    {
      "inputs": [
        {
          "internalType": "bytes32",
          "name": "orderKey",
          "type": "bytes32"
        },
        {
          "internalType": "int24",
          "name": "targetTick",
          "type": "int24"
        },
        {
          "internalType": "uint24",
          "name": "triggerTicks",
          "type": "uint24"
        }
      ],
      "name": "previewRerange",
      "outputs": [
        {
          "components": [
            {
              "components": [
                {
                  "internalType": "address",
                  "name": "vault",
                  "type": "address"
                },
                {
                  "internalType": "address",
                  "name": "adapter",
                  "type": "address"
                },
                {
                  "internalType": "address",
                  "name": "token0",
                  "type": "address"
                },
                {
                  "internalType": "address",
                  "name": "token1",
                  "type": "address"
                },
                {
                  "internalType": "uint256",
                  "name": "capital",
                  "type": "uint256"
                },
                {
                  "internalType": "bool",
                  "name": "isSell",
                  "type": "bool"
                },
                {
                  "internalType": "int24",
                  "name": "targetTick",
                  "type": "int24"
                },
                {
                  "internalType": "uint24",
                  "name": "triggerTicks",
                  "type": "uint24"
                },
                {
                  "internalType": "bytes",
                  "name": "adapterData",
                  "type": "bytes"
                },
                {
                  "internalType": "address",
                  "name": "referrer",
                  "type": "address"
                },
                {
                  "internalType": "bool",
                  "name": "keepBalancesInVault",
                  "type": "bool"
                },
                {
                  "internalType": "bool",
                  "name": "unwrapOut",
                  "type": "bool"
                },
                {
                  "internalType": "bool",
                  "name": "closed",
                  "type": "bool"
                },
                {
                  "internalType": "uint32",
                  "name": "rerangeCount",
                  "type": "uint32"
                },
                {
                  "internalType": "uint40",
                  "name": "createdAt",
                  "type": "uint40"
                },
                {
                  "internalType": "uint40",
                  "name": "lastRerangeAt",
                  "type": "uint40"
                },
                {
                  "internalType": "uint256",
                  "name": "accruedFee0",
                  "type": "uint256"
                },
                {
                  "internalType": "uint256",
                  "name": "accruedFee1",
                  "type": "uint256"
                },
                {
                  "internalType": "uint256",
                  "name": "idle0",
                  "type": "uint256"
                },
                {
                  "internalType": "uint256",
                  "name": "idle1",
                  "type": "uint256"
                }
              ],
              "internalType": "struct RerangeTypes.Order",
              "name": "order",
              "type": "tuple"
            },
            {
              "components": [
                {
                  "internalType": "int24",
                  "name": "currentTick",
                  "type": "int24"
                },
                {
                  "internalType": "int24",
                  "name": "twapTick",
                  "type": "int24"
                },
                {
                  "internalType": "uint160",
                  "name": "sqrtPriceX96",
                  "type": "uint160"
                },
                {
                  "internalType": "uint128",
                  "name": "poolLiquidity",
                  "type": "uint128"
                }
              ],
              "internalType": "struct RerangeTypes.PoolState",
              "name": "market",
              "type": "tuple"
            },
            {
              "components": [
                {
                  "internalType": "bool",
                  "name": "active",
                  "type": "bool"
                },
                {
                  "internalType": "uint128",
                  "name": "liquidity",
                  "type": "uint128"
                },
                {
                  "internalType": "uint256",
                  "name": "sourceBalance",
                  "type": "uint256"
                },
                {
                  "internalType": "uint256",
                  "name": "targetBalance",
                  "type": "uint256"
                },
                {
                  "internalType": "uint256",
                  "name": "pendingFee0",
                  "type": "uint256"
                },
                {
                  "internalType": "uint256",
                  "name": "pendingFee1",
                  "type": "uint256"
                },
                {
                  "internalType": "int24",
                  "name": "lowerTick",
                  "type": "int24"
                },
                {
                  "internalType": "int24",
                  "name": "upperTick",
                  "type": "int24"
                }
              ],
              "internalType": "struct RerangeTypes.PositionView",
              "name": "position",
              "type": "tuple"
            },
            {
              "internalType": "uint256",
              "name": "reward0",
              "type": "uint256"
            },
            {
              "internalType": "uint256",
              "name": "reward1",
              "type": "uint256"
            },
            {
              "internalType": "uint256",
              "name": "sourceBalance",
              "type": "uint256"
            },
            {
              "internalType": "bool",
              "name": "willClose",
              "type": "bool"
            },
            {
              "internalType": "int24",
              "name": "nextLowerTick",
              "type": "int24"
            },
            {
              "internalType": "int24",
              "name": "nextUpperTick",
              "type": "int24"
            },
            {
              "components": [
                {
                  "internalType": "bool",
                  "name": "collectFees",
                  "type": "bool"
                },
                {
                  "internalType": "bool",
                  "name": "removeLiquidity",
                  "type": "bool"
                },
                {
                  "internalType": "bool",
                  "name": "activateOrder",
                  "type": "bool"
                },
                {
                  "internalType": "bool",
                  "name": "closeOrder",
                  "type": "bool"
                },
                {
                  "internalType": "int24",
                  "name": "expectedTick",
                  "type": "int24"
                },
                {
                  "internalType": "int24",
                  "name": "activateTickLower",
                  "type": "int24"
                },
                {
                  "internalType": "int24",
                  "name": "activateTickUpper",
                  "type": "int24"
                },
                {
                  "internalType": "uint256",
                  "name": "deployAmount0",
                  "type": "uint256"
                },
                {
                  "internalType": "uint256",
                  "name": "deployAmount1",
                  "type": "uint256"
                },
                {
                  "internalType": "uint256",
                  "name": "minRemove0",
                  "type": "uint256"
                },
                {
                  "internalType": "uint256",
                  "name": "minRemove1",
                  "type": "uint256"
                },
                {
                  "internalType": "uint256",
                  "name": "minActivate0",
                  "type": "uint256"
                },
                {
                  "internalType": "uint256",
                  "name": "minActivate1",
                  "type": "uint256"
                },
                {
                  "internalType": "uint128",
                  "name": "minActivateLiquidity",
                  "type": "uint128"
                }
              ],
              "internalType": "struct RerangeTypes.ExecutionPlan",
              "name": "removePlan",
              "type": "tuple"
            },
            {
              "components": [
                {
                  "internalType": "bool",
                  "name": "collectFees",
                  "type": "bool"
                },
                {
                  "internalType": "bool",
                  "name": "removeLiquidity",
                  "type": "bool"
                },
                {
                  "internalType": "bool",
                  "name": "activateOrder",
                  "type": "bool"
                },
                {
                  "internalType": "bool",
                  "name": "closeOrder",
                  "type": "bool"
                },
                {
                  "internalType": "int24",
                  "name": "expectedTick",
                  "type": "int24"
                },
                {
                  "internalType": "int24",
                  "name": "activateTickLower",
                  "type": "int24"
                },
                {
                  "internalType": "int24",
                  "name": "activateTickUpper",
                  "type": "int24"
                },
                {
                  "internalType": "uint256",
                  "name": "deployAmount0",
                  "type": "uint256"
                },
                {
                  "internalType": "uint256",
                  "name": "deployAmount1",
                  "type": "uint256"
                },
                {
                  "internalType": "uint256",
                  "name": "minRemove0",
                  "type": "uint256"
                },
                {
                  "internalType": "uint256",
                  "name": "minRemove1",
                  "type": "uint256"
                },
                {
                  "internalType": "uint256",
                  "name": "minActivate0",
                  "type": "uint256"
                },
                {
                  "internalType": "uint256",
                  "name": "minActivate1",
                  "type": "uint256"
                },
                {
                  "internalType": "uint128",
                  "name": "minActivateLiquidity",
                  "type": "uint128"
                }
              ],
              "internalType": "struct RerangeTypes.ExecutionPlan",
              "name": "activatePlan",
              "type": "tuple"
            }
          ],
          "internalType": "struct RerangeTypes.OrderActionPreview",
          "name": "preview",
          "type": "tuple"
        }
      ],
      "stateMutability": "view",
      "type": "function"
    },
    {
      "inputs": [
        {
          "internalType": "bytes32",
          "name": "orderKey",
          "type": "bytes32"
        }
      ],
      "name": "previewRerange",
      "outputs": [
        {
          "components": [
            {
              "components": [
                {
                  "internalType": "address",
                  "name": "vault",
                  "type": "address"
                },
                {
                  "internalType": "address",
                  "name": "adapter",
                  "type": "address"
                },
                {
                  "internalType": "address",
                  "name": "token0",
                  "type": "address"
                },
                {
                  "internalType": "address",
                  "name": "token1",
                  "type": "address"
                },
                {
                  "internalType": "uint256",
                  "name": "capital",
                  "type": "uint256"
                },
                {
                  "internalType": "bool",
                  "name": "isSell",
                  "type": "bool"
                },
                {
                  "internalType": "int24",
                  "name": "targetTick",
                  "type": "int24"
                },
                {
                  "internalType": "uint24",
                  "name": "triggerTicks",
                  "type": "uint24"
                },
                {
                  "internalType": "bytes",
                  "name": "adapterData",
                  "type": "bytes"
                },
                {
                  "internalType": "address",
                  "name": "referrer",
                  "type": "address"
                },
                {
                  "internalType": "bool",
                  "name": "keepBalancesInVault",
                  "type": "bool"
                },
                {
                  "internalType": "bool",
                  "name": "unwrapOut",
                  "type": "bool"
                },
                {
                  "internalType": "bool",
                  "name": "closed",
                  "type": "bool"
                },
                {
                  "internalType": "uint32",
                  "name": "rerangeCount",
                  "type": "uint32"
                },
                {
                  "internalType": "uint40",
                  "name": "createdAt",
                  "type": "uint40"
                },
                {
                  "internalType": "uint40",
                  "name": "lastRerangeAt",
                  "type": "uint40"
                },
                {
                  "internalType": "uint256",
                  "name": "accruedFee0",
                  "type": "uint256"
                },
                {
                  "internalType": "uint256",
                  "name": "accruedFee1",
                  "type": "uint256"
                },
                {
                  "internalType": "uint256",
                  "name": "idle0",
                  "type": "uint256"
                },
                {
                  "internalType": "uint256",
                  "name": "idle1",
                  "type": "uint256"
                }
              ],
              "internalType": "struct RerangeTypes.Order",
              "name": "order",
              "type": "tuple"
            },
            {
              "components": [
                {
                  "internalType": "int24",
                  "name": "currentTick",
                  "type": "int24"
                },
                {
                  "internalType": "int24",
                  "name": "twapTick",
                  "type": "int24"
                },
                {
                  "internalType": "uint160",
                  "name": "sqrtPriceX96",
                  "type": "uint160"
                },
                {
                  "internalType": "uint128",
                  "name": "poolLiquidity",
                  "type": "uint128"
                }
              ],
              "internalType": "struct RerangeTypes.PoolState",
              "name": "market",
              "type": "tuple"
            },
            {
              "components": [
                {
                  "internalType": "bool",
                  "name": "active",
                  "type": "bool"
                },
                {
                  "internalType": "uint128",
                  "name": "liquidity",
                  "type": "uint128"
                },
                {
                  "internalType": "uint256",
                  "name": "sourceBalance",
                  "type": "uint256"
                },
                {
                  "internalType": "uint256",
                  "name": "targetBalance",
                  "type": "uint256"
                },
                {
                  "internalType": "uint256",
                  "name": "pendingFee0",
                  "type": "uint256"
                },
                {
                  "internalType": "uint256",
                  "name": "pendingFee1",
                  "type": "uint256"
                },
                {
                  "internalType": "int24",
                  "name": "lowerTick",
                  "type": "int24"
                },
                {
                  "internalType": "int24",
                  "name": "upperTick",
                  "type": "int24"
                }
              ],
              "internalType": "struct RerangeTypes.PositionView",
              "name": "position",
              "type": "tuple"
            },
            {
              "internalType": "uint256",
              "name": "reward0",
              "type": "uint256"
            },
            {
              "internalType": "uint256",
              "name": "reward1",
              "type": "uint256"
            },
            {
              "internalType": "uint256",
              "name": "sourceBalance",
              "type": "uint256"
            },
            {
              "internalType": "bool",
              "name": "willClose",
              "type": "bool"
            },
            {
              "internalType": "int24",
              "name": "nextLowerTick",
              "type": "int24"
            },
            {
              "internalType": "int24",
              "name": "nextUpperTick",
              "type": "int24"
            },
            {
              "components": [
                {
                  "internalType": "bool",
                  "name": "collectFees",
                  "type": "bool"
                },
                {
                  "internalType": "bool",
                  "name": "removeLiquidity",
                  "type": "bool"
                },
                {
                  "internalType": "bool",
                  "name": "activateOrder",
                  "type": "bool"
                },
                {
                  "internalType": "bool",
                  "name": "closeOrder",
                  "type": "bool"
                },
                {
                  "internalType": "int24",
                  "name": "expectedTick",
                  "type": "int24"
                },
                {
                  "internalType": "int24",
                  "name": "activateTickLower",
                  "type": "int24"
                },
                {
                  "internalType": "int24",
                  "name": "activateTickUpper",
                  "type": "int24"
                },
                {
                  "internalType": "uint256",
                  "name": "deployAmount0",
                  "type": "uint256"
                },
                {
                  "internalType": "uint256",
                  "name": "deployAmount1",
                  "type": "uint256"
                },
                {
                  "internalType": "uint256",
                  "name": "minRemove0",
                  "type": "uint256"
                },
                {
                  "internalType": "uint256",
                  "name": "minRemove1",
                  "type": "uint256"
                },
                {
                  "internalType": "uint256",
                  "name": "minActivate0",
                  "type": "uint256"
                },
                {
                  "internalType": "uint256",
                  "name": "minActivate1",
                  "type": "uint256"
                },
                {
                  "internalType": "uint128",
                  "name": "minActivateLiquidity",
                  "type": "uint128"
                }
              ],
              "internalType": "struct RerangeTypes.ExecutionPlan",
              "name": "removePlan",
              "type": "tuple"
            },
            {
              "components": [
                {
                  "internalType": "bool",
                  "name": "collectFees",
                  "type": "bool"
                },
                {
                  "internalType": "bool",
                  "name": "removeLiquidity",
                  "type": "bool"
                },
                {
                  "internalType": "bool",
                  "name": "activateOrder",
                  "type": "bool"
                },
                {
                  "internalType": "bool",
                  "name": "closeOrder",
                  "type": "bool"
                },
                {
                  "internalType": "int24",
                  "name": "expectedTick",
                  "type": "int24"
                },
                {
                  "internalType": "int24",
                  "name": "activateTickLower",
                  "type": "int24"
                },
                {
                  "internalType": "int24",
                  "name": "activateTickUpper",
                  "type": "int24"
                },
                {
                  "internalType": "uint256",
                  "name": "deployAmount0",
                  "type": "uint256"
                },
                {
                  "internalType": "uint256",
                  "name": "deployAmount1",
                  "type": "uint256"
                },
                {
                  "internalType": "uint256",
                  "name": "minRemove0",
                  "type": "uint256"
                },
                {
                  "internalType": "uint256",
                  "name": "minRemove1",
                  "type": "uint256"
                },
                {
                  "internalType": "uint256",
                  "name": "minActivate0",
                  "type": "uint256"
                },
                {
                  "internalType": "uint256",
                  "name": "minActivate1",
                  "type": "uint256"
                },
                {
                  "internalType": "uint128",
                  "name": "minActivateLiquidity",
                  "type": "uint128"
                }
              ],
              "internalType": "struct RerangeTypes.ExecutionPlan",
              "name": "activatePlan",
              "type": "tuple"
            }
          ],
          "internalType": "struct RerangeTypes.OrderActionPreview",
          "name": "preview",
          "type": "tuple"
        }
      ],
      "stateMutability": "view",
      "type": "function"
    },
    {
      "inputs": [
        {
          "internalType": "bytes32",
          "name": "orderKey",
          "type": "bytes32"
        }
      ],
      "name": "rerange",
      "outputs": [
        {
          "components": [
            {
              "components": [
                {
                  "internalType": "address",
                  "name": "vault",
                  "type": "address"
                },
                {
                  "internalType": "address",
                  "name": "adapter",
                  "type": "address"
                },
                {
                  "internalType": "address",
                  "name": "token0",
                  "type": "address"
                },
                {
                  "internalType": "address",
                  "name": "token1",
                  "type": "address"
                },
                {
                  "internalType": "uint256",
                  "name": "capital",
                  "type": "uint256"
                },
                {
                  "internalType": "bool",
                  "name": "isSell",
                  "type": "bool"
                },
                {
                  "internalType": "int24",
                  "name": "targetTick",
                  "type": "int24"
                },
                {
                  "internalType": "uint24",
                  "name": "triggerTicks",
                  "type": "uint24"
                },
                {
                  "internalType": "bytes",
                  "name": "adapterData",
                  "type": "bytes"
                },
                {
                  "internalType": "address",
                  "name": "referrer",
                  "type": "address"
                },
                {
                  "internalType": "bool",
                  "name": "keepBalancesInVault",
                  "type": "bool"
                },
                {
                  "internalType": "bool",
                  "name": "unwrapOut",
                  "type": "bool"
                },
                {
                  "internalType": "bool",
                  "name": "closed",
                  "type": "bool"
                },
                {
                  "internalType": "uint32",
                  "name": "rerangeCount",
                  "type": "uint32"
                },
                {
                  "internalType": "uint40",
                  "name": "createdAt",
                  "type": "uint40"
                },
                {
                  "internalType": "uint40",
                  "name": "lastRerangeAt",
                  "type": "uint40"
                },
                {
                  "internalType": "uint256",
                  "name": "accruedFee0",
                  "type": "uint256"
                },
                {
                  "internalType": "uint256",
                  "name": "accruedFee1",
                  "type": "uint256"
                },
                {
                  "internalType": "uint256",
                  "name": "idle0",
                  "type": "uint256"
                },
                {
                  "internalType": "uint256",
                  "name": "idle1",
                  "type": "uint256"
                }
              ],
              "internalType": "struct RerangeTypes.Order",
              "name": "order",
              "type": "tuple"
            },
            {
              "components": [
                {
                  "internalType": "int24",
                  "name": "currentTick",
                  "type": "int24"
                },
                {
                  "internalType": "int24",
                  "name": "twapTick",
                  "type": "int24"
                },
                {
                  "internalType": "uint160",
                  "name": "sqrtPriceX96",
                  "type": "uint160"
                },
                {
                  "internalType": "uint128",
                  "name": "poolLiquidity",
                  "type": "uint128"
                }
              ],
              "internalType": "struct RerangeTypes.PoolState",
              "name": "market",
              "type": "tuple"
            },
            {
              "components": [
                {
                  "internalType": "bool",
                  "name": "active",
                  "type": "bool"
                },
                {
                  "internalType": "uint128",
                  "name": "liquidity",
                  "type": "uint128"
                },
                {
                  "internalType": "uint256",
                  "name": "sourceBalance",
                  "type": "uint256"
                },
                {
                  "internalType": "uint256",
                  "name": "targetBalance",
                  "type": "uint256"
                },
                {
                  "internalType": "uint256",
                  "name": "pendingFee0",
                  "type": "uint256"
                },
                {
                  "internalType": "uint256",
                  "name": "pendingFee1",
                  "type": "uint256"
                },
                {
                  "internalType": "int24",
                  "name": "lowerTick",
                  "type": "int24"
                },
                {
                  "internalType": "int24",
                  "name": "upperTick",
                  "type": "int24"
                }
              ],
              "internalType": "struct RerangeTypes.PositionView",
              "name": "position",
              "type": "tuple"
            },
            {
              "internalType": "uint256",
              "name": "reward0",
              "type": "uint256"
            },
            {
              "internalType": "uint256",
              "name": "reward1",
              "type": "uint256"
            },
            {
              "internalType": "uint256",
              "name": "sourceBalance",
              "type": "uint256"
            },
            {
              "internalType": "bool",
              "name": "willClose",
              "type": "bool"
            },
            {
              "internalType": "int24",
              "name": "nextLowerTick",
              "type": "int24"
            },
            {
              "internalType": "int24",
              "name": "nextUpperTick",
              "type": "int24"
            },
            {
              "components": [
                {
                  "internalType": "bool",
                  "name": "collectFees",
                  "type": "bool"
                },
                {
                  "internalType": "bool",
                  "name": "removeLiquidity",
                  "type": "bool"
                },
                {
                  "internalType": "bool",
                  "name": "activateOrder",
                  "type": "bool"
                },
                {
                  "internalType": "bool",
                  "name": "closeOrder",
                  "type": "bool"
                },
                {
                  "internalType": "int24",
                  "name": "expectedTick",
                  "type": "int24"
                },
                {
                  "internalType": "int24",
                  "name": "activateTickLower",
                  "type": "int24"
                },
                {
                  "internalType": "int24",
                  "name": "activateTickUpper",
                  "type": "int24"
                },
                {
                  "internalType": "uint256",
                  "name": "deployAmount0",
                  "type": "uint256"
                },
                {
                  "internalType": "uint256",
                  "name": "deployAmount1",
                  "type": "uint256"
                },
                {
                  "internalType": "uint256",
                  "name": "minRemove0",
                  "type": "uint256"
                },
                {
                  "internalType": "uint256",
                  "name": "minRemove1",
                  "type": "uint256"
                },
                {
                  "internalType": "uint256",
                  "name": "minActivate0",
                  "type": "uint256"
                },
                {
                  "internalType": "uint256",
                  "name": "minActivate1",
                  "type": "uint256"
                },
                {
                  "internalType": "uint128",
                  "name": "minActivateLiquidity",
                  "type": "uint128"
                }
              ],
              "internalType": "struct RerangeTypes.ExecutionPlan",
              "name": "removePlan",
              "type": "tuple"
            },
            {
              "components": [
                {
                  "internalType": "bool",
                  "name": "collectFees",
                  "type": "bool"
                },
                {
                  "internalType": "bool",
                  "name": "removeLiquidity",
                  "type": "bool"
                },
                {
                  "internalType": "bool",
                  "name": "activateOrder",
                  "type": "bool"
                },
                {
                  "internalType": "bool",
                  "name": "closeOrder",
                  "type": "bool"
                },
                {
                  "internalType": "int24",
                  "name": "expectedTick",
                  "type": "int24"
                },
                {
                  "internalType": "int24",
                  "name": "activateTickLower",
                  "type": "int24"
                },
                {
                  "internalType": "int24",
                  "name": "activateTickUpper",
                  "type": "int24"
                },
                {
                  "internalType": "uint256",
                  "name": "deployAmount0",
                  "type": "uint256"
                },
                {
                  "internalType": "uint256",
                  "name": "deployAmount1",
                  "type": "uint256"
                },
                {
                  "internalType": "uint256",
                  "name": "minRemove0",
                  "type": "uint256"
                },
                {
                  "internalType": "uint256",
                  "name": "minRemove1",
                  "type": "uint256"
                },
                {
                  "internalType": "uint256",
                  "name": "minActivate0",
                  "type": "uint256"
                },
                {
                  "internalType": "uint256",
                  "name": "minActivate1",
                  "type": "uint256"
                },
                {
                  "internalType": "uint128",
                  "name": "minActivateLiquidity",
                  "type": "uint128"
                }
              ],
              "internalType": "struct RerangeTypes.ExecutionPlan",
              "name": "activatePlan",
              "type": "tuple"
            }
          ],
          "internalType": "struct RerangeTypes.OrderActionPreview",
          "name": "preview",
          "type": "tuple"
        }
      ],
      "stateMutability": "nonpayable",
      "type": "function"
    },
    {
      "inputs": [
        {
          "internalType": "bytes32",
          "name": "orderKey",
          "type": "bytes32"
        },
        {
          "internalType": "int24",
          "name": "targetTick",
          "type": "int24"
        },
        {
          "internalType": "uint24",
          "name": "triggerTicks",
          "type": "uint24"
        }
      ],
      "name": "rerange",
      "outputs": [
        {
          "components": [
            {
              "components": [
                {
                  "internalType": "address",
                  "name": "vault",
                  "type": "address"
                },
                {
                  "internalType": "address",
                  "name": "adapter",
                  "type": "address"
                },
                {
                  "internalType": "address",
                  "name": "token0",
                  "type": "address"
                },
                {
                  "internalType": "address",
                  "name": "token1",
                  "type": "address"
                },
                {
                  "internalType": "uint256",
                  "name": "capital",
                  "type": "uint256"
                },
                {
                  "internalType": "bool",
                  "name": "isSell",
                  "type": "bool"
                },
                {
                  "internalType": "int24",
                  "name": "targetTick",
                  "type": "int24"
                },
                {
                  "internalType": "uint24",
                  "name": "triggerTicks",
                  "type": "uint24"
                },
                {
                  "internalType": "bytes",
                  "name": "adapterData",
                  "type": "bytes"
                },
                {
                  "internalType": "address",
                  "name": "referrer",
                  "type": "address"
                },
                {
                  "internalType": "bool",
                  "name": "keepBalancesInVault",
                  "type": "bool"
                },
                {
                  "internalType": "bool",
                  "name": "unwrapOut",
                  "type": "bool"
                },
                {
                  "internalType": "bool",
                  "name": "closed",
                  "type": "bool"
                },
                {
                  "internalType": "uint32",
                  "name": "rerangeCount",
                  "type": "uint32"
                },
                {
                  "internalType": "uint40",
                  "name": "createdAt",
                  "type": "uint40"
                },
                {
                  "internalType": "uint40",
                  "name": "lastRerangeAt",
                  "type": "uint40"
                },
                {
                  "internalType": "uint256",
                  "name": "accruedFee0",
                  "type": "uint256"
                },
                {
                  "internalType": "uint256",
                  "name": "accruedFee1",
                  "type": "uint256"
                },
                {
                  "internalType": "uint256",
                  "name": "idle0",
                  "type": "uint256"
                },
                {
                  "internalType": "uint256",
                  "name": "idle1",
                  "type": "uint256"
                }
              ],
              "internalType": "struct RerangeTypes.Order",
              "name": "order",
              "type": "tuple"
            },
            {
              "components": [
                {
                  "internalType": "int24",
                  "name": "currentTick",
                  "type": "int24"
                },
                {
                  "internalType": "int24",
                  "name": "twapTick",
                  "type": "int24"
                },
                {
                  "internalType": "uint160",
                  "name": "sqrtPriceX96",
                  "type": "uint160"
                },
                {
                  "internalType": "uint128",
                  "name": "poolLiquidity",
                  "type": "uint128"
                }
              ],
              "internalType": "struct RerangeTypes.PoolState",
              "name": "market",
              "type": "tuple"
            },
            {
              "components": [
                {
                  "internalType": "bool",
                  "name": "active",
                  "type": "bool"
                },
                {
                  "internalType": "uint128",
                  "name": "liquidity",
                  "type": "uint128"
                },
                {
                  "internalType": "uint256",
                  "name": "sourceBalance",
                  "type": "uint256"
                },
                {
                  "internalType": "uint256",
                  "name": "targetBalance",
                  "type": "uint256"
                },
                {
                  "internalType": "uint256",
                  "name": "pendingFee0",
                  "type": "uint256"
                },
                {
                  "internalType": "uint256",
                  "name": "pendingFee1",
                  "type": "uint256"
                },
                {
                  "internalType": "int24",
                  "name": "lowerTick",
                  "type": "int24"
                },
                {
                  "internalType": "int24",
                  "name": "upperTick",
                  "type": "int24"
                }
              ],
              "internalType": "struct RerangeTypes.PositionView",
              "name": "position",
              "type": "tuple"
            },
            {
              "internalType": "uint256",
              "name": "reward0",
              "type": "uint256"
            },
            {
              "internalType": "uint256",
              "name": "reward1",
              "type": "uint256"
            },
            {
              "internalType": "uint256",
              "name": "sourceBalance",
              "type": "uint256"
            },
            {
              "internalType": "bool",
              "name": "willClose",
              "type": "bool"
            },
            {
              "internalType": "int24",
              "name": "nextLowerTick",
              "type": "int24"
            },
            {
              "internalType": "int24",
              "name": "nextUpperTick",
              "type": "int24"
            },
            {
              "components": [
                {
                  "internalType": "bool",
                  "name": "collectFees",
                  "type": "bool"
                },
                {
                  "internalType": "bool",
                  "name": "removeLiquidity",
                  "type": "bool"
                },
                {
                  "internalType": "bool",
                  "name": "activateOrder",
                  "type": "bool"
                },
                {
                  "internalType": "bool",
                  "name": "closeOrder",
                  "type": "bool"
                },
                {
                  "internalType": "int24",
                  "name": "expectedTick",
                  "type": "int24"
                },
                {
                  "internalType": "int24",
                  "name": "activateTickLower",
                  "type": "int24"
                },
                {
                  "internalType": "int24",
                  "name": "activateTickUpper",
                  "type": "int24"
                },
                {
                  "internalType": "uint256",
                  "name": "deployAmount0",
                  "type": "uint256"
                },
                {
                  "internalType": "uint256",
                  "name": "deployAmount1",
                  "type": "uint256"
                },
                {
                  "internalType": "uint256",
                  "name": "minRemove0",
                  "type": "uint256"
                },
                {
                  "internalType": "uint256",
                  "name": "minRemove1",
                  "type": "uint256"
                },
                {
                  "internalType": "uint256",
                  "name": "minActivate0",
                  "type": "uint256"
                },
                {
                  "internalType": "uint256",
                  "name": "minActivate1",
                  "type": "uint256"
                },
                {
                  "internalType": "uint128",
                  "name": "minActivateLiquidity",
                  "type": "uint128"
                }
              ],
              "internalType": "struct RerangeTypes.ExecutionPlan",
              "name": "removePlan",
              "type": "tuple"
            },
            {
              "components": [
                {
                  "internalType": "bool",
                  "name": "collectFees",
                  "type": "bool"
                },
                {
                  "internalType": "bool",
                  "name": "removeLiquidity",
                  "type": "bool"
                },
                {
                  "internalType": "bool",
                  "name": "activateOrder",
                  "type": "bool"
                },
                {
                  "internalType": "bool",
                  "name": "closeOrder",
                  "type": "bool"
                },
                {
                  "internalType": "int24",
                  "name": "expectedTick",
                  "type": "int24"
                },
                {
                  "internalType": "int24",
                  "name": "activateTickLower",
                  "type": "int24"
                },
                {
                  "internalType": "int24",
                  "name": "activateTickUpper",
                  "type": "int24"
                },
                {
                  "internalType": "uint256",
                  "name": "deployAmount0",
                  "type": "uint256"
                },
                {
                  "internalType": "uint256",
                  "name": "deployAmount1",
                  "type": "uint256"
                },
                {
                  "internalType": "uint256",
                  "name": "minRemove0",
                  "type": "uint256"
                },
                {
                  "internalType": "uint256",
                  "name": "minRemove1",
                  "type": "uint256"
                },
                {
                  "internalType": "uint256",
                  "name": "minActivate0",
                  "type": "uint256"
                },
                {
                  "internalType": "uint256",
                  "name": "minActivate1",
                  "type": "uint256"
                },
                {
                  "internalType": "uint128",
                  "name": "minActivateLiquidity",
                  "type": "uint128"
                }
              ],
              "internalType": "struct RerangeTypes.ExecutionPlan",
              "name": "activatePlan",
              "type": "tuple"
            }
          ],
          "internalType": "struct RerangeTypes.OrderActionPreview",
          "name": "preview",
          "type": "tuple"
        }
      ],
      "stateMutability": "nonpayable",
      "type": "function"
    },
    {
      "inputs": [
        {
          "internalType": "address",
          "name": "adapter",
          "type": "address"
        },
        {
          "internalType": "bool",
          "name": "allowed",
          "type": "bool"
        }
      ],
      "name": "setAdapterAllowed",
      "outputs": [],
      "stateMutability": "nonpayable",
      "type": "function"
    },
    {
      "inputs": [
        {
          "components": [
            {
              "internalType": "address",
              "name": "permit2",
              "type": "address"
            },
            {
              "internalType": "address",
              "name": "treasury",
              "type": "address"
            },
            {
              "internalType": "address",
              "name": "weth",
              "type": "address"
            },
            {
              "internalType": "uint16",
              "name": "resolverShareBps",
              "type": "uint16"
            },
            {
              "internalType": "uint16",
              "name": "referrerShareBps",
              "type": "uint16"
            },
            {
              "internalType": "uint32",
              "name": "rerangeCooldown",
              "type": "uint32"
            },
            {
              "internalType": "uint16",
              "name": "completionThresholdBps",
              "type": "uint16"
            },
            {
              "internalType": "bool",
              "name": "paused",
              "type": "bool"
            }
          ],
          "internalType": "struct RerangeTypes.HubConfig",
          "name": "config_",
          "type": "tuple"
        }
      ],
      "name": "setConfig",
      "outputs": [],
      "stateMutability": "nonpayable",
      "type": "function"
    },
    {
      "inputs": [
        {
          "internalType": "address",
          "name": "newOwner",
          "type": "address"
        }
      ],
      "name": "transferOwnership",
      "outputs": [],
      "stateMutability": "nonpayable",
      "type": "function"
    },
    {
      "inputs": [],
      "name": "vaultImplementation",
      "outputs": [
        {
          "internalType": "address",
          "name": "",
          "type": "address"
        }
      ],
      "stateMutability": "view",
      "type": "function"
    },
    {
      "inputs": [
        {
          "internalType": "address",
          "name": "",
          "type": "address"
        }
      ],
      "name": "vaultOrderCount",
      "outputs": [
        {
          "internalType": "uint256",
          "name": "",
          "type": "uint256"
        }
      ],
      "stateMutability": "view",
      "type": "function"
    },
    {
      "inputs": [
        {
          "internalType": "address",
          "name": "",
          "type": "address"
        }
      ],
      "name": "vaults",
      "outputs": [
        {
          "internalType": "uint256",
          "name": "",
          "type": "uint256"
        }
      ],
      "stateMutability": "view",
      "type": "function"
    }
  ],
  "bytecode": "0x60a03461011757601f615cf638819003918201601f19168301916001600160401b038311848410176100f45780849260209460405283398101031261011757516001600160a01b03811690819003610117578015610108575f80546001600160a01b031916919091179055604051611c1a8082016001600160401b038111838210176100f45782916140dc833903905ff080156100e9576001600160a01b03166080526003805460ff60f01b1916600160f01b179055604051613fc0908161011c8239608051818181610782015281816107df015281816111000152818161166001526133b90152f35b6040513d5f823e3d90fd5b634e487b7160e01b5f52604160045260245ffd5b6349e27cff60e01b5f5260045ffd5b5f80fdfe6080806040526004361015610012575f80fd5b5f905f3560e01c90816311f72974146115b75750806339c79e0c1461148b57806341e398b9146113ea5780634915c7d91461116b5780635778472a14610c755780635d12928b146110da578063612ab1eb14611053578063686af1ef14610f7d5780638da5cb5b14610f565780638e1615ac14610ef05780638f77ff7b14610e2157806391d328f514610cff57806396b4dd5814610cb25780639c0bb07214610c7a5780639c3f1e9014610c75578063a622ee7c14610c3d578063a72b9ca614610989578063ac9650d8146108aa578063b2976fb914610815578063b6a98fbc146107b1578063bba48a901461076d578063c3ac029d146106e2578063c66a29f0146106b3578063db388282146103cb578063e1faed6a146102f5578063e5711ffc146102b6578063f2fde38b146102235763f5aa85c914610152575f80fd5b602036600319011261022057600435906001600160401b03821161022057610180826004019260031990360301126102205761018c612477565b5060ff60035460f01c166102115761020d610201836101b46101ae36836120e8565b916129f6565b6001600160a01b03906101c89033906133b2565b1681526101d481613435565b600354909591949293906101f39034906001600160a01b0316846138d2565b6101fc8261361b565b6136c5565b60405191829182611d69565b0390f35b634427925560e01b8152600490fd5b80fd5b50346102205760203660031901126102205761023d611afc565b8154906001600160a01b03821690338290036102a7576001600160a01b0316918215610298576001600160a01b031916821783557f8be0079c531659141344cd1fd0a4f28419497f9722a3daafe3b4186f6b6457e08380a380f35b6349e27cff60e01b8452600484fd5b6330cd747160e01b8452600484fd5b50346102205760203660031901126102205760209060ff906040906001600160a01b036102e1611afc565b168152600484522054166040519015158152f35b503461022057602036600319011261022057600435610312612477565b508161034a6103208361335d565b6003549361ffff60405195869485946309fa1ceb60e21b8652608060048701526084860190611c30565b926024850152818160a01c16604485015260e01c166064830152038173__$6e51409db4a94fa827b8ac8fffb65ee555$__5af49081156103c0578261020d939261039d575b505060405191829182611d69565b6103b992503d8091833e6103b18183612022565b810190612a5f565b5f8061038f565b6040513d84823e3d90fd5b3461062b5760c036600319011261062b576004356001600160401b03811161062b578060040190610180600319823603011261062b57608036602319011261062b5760a435916001600160401b03831161062b573660238401121561062b578260040135916001600160401b03831161062b57366024848601011161062b57610452612477565b5060ff60035460f01c166106a45760a4810135801515810361062b5761047a604483016129f6565b90610487606484016129f6565b901561069d57505b6104976129ca565b6001600160a01b0390811691161480159061068e575b61067f576104cf6104c76104c0846129f6565b33906133b2565b9236906120e8565b6001600160a01b03909216808352936104e783613435565b9692979194909560018060a01b03600154169060405192604084018481106001600160401b0382111761066b5760049c602091604052808652608482870194013584526040519d8e8092638da5cb5b60e01b82525afa9b8c15610620575f9c61062f575b50823b1561062b5760405163187945bd60e11b81529b6024356001600160a01b038116939084900361062b57865f978f978995610124958a98956024938a976004890152604435858901526064356044890152608435606489015260018060a01b0390511660848801525160a487015260018060a01b031660c486015261010060e48601528261010486015201848401378181018301849052601f01601f191681010301925af19586156106205761020d9761020197610610575b506101fc8261361b565b5f61061a91612022565b5f610606565b6040513d5f823e3d90fd5b5f80fd5b909b506020813d602011610663575b8161064b60209383612022565b8101031261062b5761065c9061221f565b9a8c61054b565b3d915061063e565b634e487b7160e01b5f52604160045260245ffd5b63ddafbaef60e01b5f5260045ffd5b506084810135604435106104ad565b905061048f565b634427925560e01b5f5260045ffd5b3461062b57604036600319011261062b5760206106da6106d1611afc565b60243590612b62565b604051908152f35b3461062b575f36600319011261062b5761010060018060a01b036001541660ff60018060a01b036002541660035490604051938452602084015260018060a01b038116604084015261ffff8160a01c16606084015261ffff8160b01c16608084015263ffffffff8160c01c1660a084015261ffff8160e01c1660c084015260f01c16151560e0820152f35b3461062b575f36600319011261062b576040517f00000000000000000000000000000000000000000000000000000000000000006001600160a01b03168152602090f35b3461062b57604036600319011261062b5760206108036107cf611afc565b6107dd309160243590612b62565b7f0000000000000000000000000000000000000000000000000000000000000000613e47565b6040516001600160a01b039091168152f35b3461062b57604036600319011261062b5761082e611afc565b6024359081151580920361062b575f546001600160a01b0316330361089b5760207fcd3fd4442e85f05fbc12b991b43e4ab10dad3f2aa07c516e3cd2ee585a5c882f9160018060a01b031692835f526004825260405f2060ff1981541660ff8316179055604051908152a2005b6330cd747160e01b5f5260045ffd5b3461062b57602036600319011261062b576004356001600160401b03811161062b576108da903690600401611ecb565b6108e381612ac2565b9136819003601e1901905f5b83811015610973578060051b8201358381121561062b5782018035906001600160401b03821161062b57602001813603811361062b57815f92918392604051928392833781018381520390305af4610945612b0b565b901561096b57906001916109598288612b3a565b526109648187612b3a565b50016108ef565b602081519101fd5b6040516020808252819061020d90820188611efb565b3461062b57602036600319011261062b576004356040516109a981611f7c565b6109b16123e6565b81525f60208201525f60408201525f60608201525f60808201525f60a08201525f60c08201525f60e08201525f6101008201525f6101208201525f6101408201526101606109fd612043565b9101525f610a0a8261338b565b9161ffff60035460e01c1692610a346040519485938493631961c73560e01b855260048501612a84565b038173__$6e51409db4a94fa827b8ac8fffb65ee555$__5af4908115610620575f91610b2e575b506040519060208252610a7c81516101e06020850152610200840190611c30565b6020820151916004831015610b1a5761016061020d9185946040860152604081015160020b6060860152606081015160020b60808601526001600160801b0360808201511660a086015263ffffffff60a08201511660c086015260c081015160e086015260e0810151610100860152610100810151610120860152610120810151610140860152610140810151828601520151610180840190611b4a565b634e487b7160e01b5f52602160045260245ffd5b90503d805f833e610b3f8183612022565b81019060208183031261062b578051906001600160401b03821161062b57016101e08183031261062b5760405191610b7683611f7c565b81516001600160401b03811161062b5781610b9291840161254b565b83526020820151600481101561062b57610c3192610160916020860152610bbb60408201612286565b6040860152610bcc60608201612286565b6060860152610bdd60808201612294565b6080860152610bee60a08201612528565b60a086015260c081015160c086015260e081015160e0860152610100810151610100860152610120810151610120860152610140810151610140860152016122a8565b61016082015281610a5b565b3461062b57602036600319011261062b576001600160a01b03610c5e611afc565b165f526008602052602060405f2054604051908152f35b611e73565b3461062b57602036600319011261062b576001600160a01b03610c9b611afc565b165f526009602052602060405f2054604051908152f35b3461062b57604036600319011261062b5761020d610ceb610ce6610cd4611afc565b610cdc6123e6565b5060243590612b62565b613056565b604051918291602083526020830190611c30565b3461062b57602036600319011261062b576004356001600160401b03811161062b57610d2f903690600401611ecb565b610d3881612aab565b91610d466040519384612022565b818352610d5282612aab565b602084019190601f1901368337610d6883612ac2565b915f5b84811015610dd2576001905f8060405160208101906341e398b960e01b82528460051b880135602482015260248152610da5604482612022565b5190305af4610db2612b0b565b610dbc8388612b3a565b52610dc78289612b3a565b901515905201610d6b565b50848360405191604083019060408452518091526060830193905f5b818110610e0957848061020d88878382036020850152611efb565b82511515865260209586019590920191600101610dee565b3461062b57610e775f610e3336611e9b565b909391610e3e612477565b5061ffff610e4b8261335d565b9262ffffff6003549160405198899788976324923e3960e21b895260c060048a015260c4890190611c30565b95602488015260020b6044870152166064850152818160a01c16608485015260e01c1660a4830152038173__$6e51409db4a94fa827b8ac8fffb65ee555$__5af480156106205761020d915f91610ed6575b5060405191829182611d69565b610eea91503d805f833e6103b18183612022565b82610ec9565b3461062b57602036600319011261062b576004355f818152600560205260409020546001600160a01b0316151580610f30575b6020906040519015158152f35b505f5260066020526020610f5160405f206004600891015460a01c16151590565b610f23565b3461062b575f36600319011261062b575f546040516001600160a01b039091168152602090f35b3461062b57610f8b36611e9b565b610f93612477565b5060ff60035460f01c166106a45762ffffff90610faf84612f5c565b604051632db51f2d60e01b815260056004820152600660248201526007604482015292610fde6064850161286e565b8461016485015260020b610184840152166101a48201525f816101c48173__$add7f94cc337bcb3a89b97c59b57f9cbbe$__5af480156106205761020d92610201925f9261102f575b503390612f80565b61104c9192503d805f833e6110448183612022565b8101906128e0565b9084611027565b3461062b57602036600319011261062b5760043561106f612477565b505f61107a8261335d565b9161ffff60035460a01c16926110a4604051948593849363b5f9120160e01b855260048501612a84565b038173__$6e51409db4a94fa827b8ac8fffb65ee555$__5af480156106205761020d915f91610ed6575060405191829182611d69565b3461062b575f36600319011261062b57335f526008602052602060405f205461112581337f000000000000000000000000000000000000000000000000000000000000000030613279565b335f52600883526001820160405f205560018060a01b03168060405192337f019b61d9140f8784f4eed1e66569335630452af2d974ceb13d3e706c078672965f80a48152f35b3461062b5761010036600319011261062b575f546001600160a01b0316330361089b576001600160a01b0361119e6129b4565b161580156113d2575b80156113ba575b80156113a1575b8015611388575b8015611373575b611364576001600160a01b036111d76129b4565b166001600160601b0360a01b600154161760015560018060a01b036111fa6129ca565b166001600160601b0360a01b600254161760025560018060a01b0361121d6129e0565b166001600160601b0360a01b6003541617600355611239612a0a565b60035461ffff60b01b61124a612a1b565b60b01b169063ffffffff60c01b61125f612a3d565b60c01b169061ffff60e01b611272612a2c565b60e01b169260ff60f01b611284612a50565b151560f01b169460ff60f01b199261ffff60e01b199161ffff60a01b9060a01b16906001600160401b0360a01b1916171617161717176003556112c56129b4565b6112cd6129ca565b906112d66129e0565b7f9205d55743f317a826145b29267ba317c667162ebc9fa0f5be70989700cca8e160a0611301612a0a565b9261130a612a1b565b61ffff611315612a3d565b63ffffffff611322612a2c565b918361132c612a50565b604080519b83168c529190961660208b0152911690880152166060860152151560808501525f196001831b01908116958116941692a4005b6306b7c75960e31b5f5260045ffd5b50606461ffff611381612a2c565b16116111c3565b50611391612a1b565b61ffff80611388169116116111bc565b506113aa612a0a565b61ffff80611388169116116111b5565b506001600160a01b036113cb6129e0565b16156111ae565b506001600160a01b036113e36129ca565b16156111a7565b3461062b57602036600319011261062b57600435611406612477565b5060ff60035460f01c166106a45761141d81612f5c565b604051631835da0560e11b815260056004820152600660248201526007604482015261144b6064820161286e565b816101648201525f816101848173__$add7f94cc337bcb3a89b97c59b57f9cbbe$__5af480156106205761020d92610201925f9261102f57503390612f80565b3461062b57602036600319011261062b576004356114a7612477565b506114b181612f5c565b60405163271740ab60e21b8152600560048201526006602482015260076044820152906114e06064830161286e565b806101648301525f826101848173__$add7f94cc337bcb3a89b97c59b57f9cbbe$__5af48015610620575f90611576575b61020d92505f61152083613e08565b5d5f6060820151927f1ff837d92e67b5457c73dd49a26d83fa61b23345a1d0936f4eb44137a7ab5e6d604060018060a01b038551169481602082015191015182519182526020820152a460405191829182611d69565b503d805f843e6115868184612022565b82019160208184031261062b578051926001600160401b03841161062b5761020d936115b29201612813565b611511565b3461062b57604036600319011261062b576115d0611afc565b906024356001600160401b03811161062b57610180600319823603011261062b57816115fe61164493611f60565b5f81525f602082015260606040820152611616612043565b60608201525f60808201525f60a08201525f60c082015260e0611637612067565b91015236906004016120e8565b90611685611650612067565b83519092906001600160a01b03167f000000000000000000000000000000000000000000000000000000000000000030612bb0565b60018060a01b03815116835260018060a01b036020840151165f5260046020526116b68360ff60405f205416612d13565b9291945f5f9160a08101908151151591855160020b9160c081019389855160020b60e084019562ffffff87511615159384611ae7575b5083611ad5575b505050611919575b505050509461177c915f96604060018060a01b03875116960151159661175761174c6040519b8c9a8b9a63c72a895f60e01b8c5260048c015260248b015261030060448b01526103048a0190611b26565b966064890190611b4a565b60020b60e487015260020b61010486015260020b610124850152610144840190611b84565b038173__$6e51409db4a94fa827b8ac8fffb65ee555$__5af4908115610620575f91611832575b5060405180916020825260018060a01b03815116602083015260208101511515604083015261020d60e06117e860408401516103006060870152610320860190611b26565b926117fb60608201516080870190611b4a565b608081015160020b61010086015260a081015160020b61012086015260c081015160020b6101408601520151610160840190611b84565b90503d805f833e6118438183612022565b81019060208183031261062b578051906001600160401b03821161062b57016103008183031261062b576040519161187a83611f60565b6118838261221f565b835261189160208301612233565b602084015260408201516001600160401b03811161062b57826118bc836101409361190e9601612240565b60408601526118ce83606083016122a8565b60608601526118df60e08201612286565b60808601526118f16101008201612286565b60a08601526119036101208201612286565b60c086015201612307565b60e0820152816117a3565b92985062ffffff919450809350511515975160020b93511692845160020b935f8860020b1315611364578815611ab9575f818303911282821281169083831390151617611aa557975b627fffff1989128015611a99575b611364578761177c955f9a60020b838c14611a6a579061199a92918082138d14611a635750613dc7565b91886119a68183613dc7565b925b8360020b8560020b1215611a23575b50505080926080839551151591015191875160020b936119d5612067565b9460016040870152608086015260020b60a085015260020b60c0840152808a14611a1d57815b60e08401528914611a185750875b6101008201529681938a6116fb565b611a09565b896119fb565b91935091508914611a4b57611a3791613dc7565b611a418782612f3f565b905b8a88816119b7565b611a5491613d86565b611a5e8782612f21565b611a43565b9050613dc7565b93919081611a8c91611a7c8286613d86565b968082128f14611a925750613d86565b926119a8565b9050613d86565b50627fffff8913611970565b634e487b7160e01b5f52601160045260245ffd5b8082019081125f8312908015821691151617611aa55797611962565b611adf9350613d11565b898d806116f3565b81611af59295508391613cf6565b928f6116ec565b600435906001600160a01b038216820361062b57565b35906001600160a01b038216820361062b57565b805180835260209291819084018484015e5f828201840152601f01601f1916010190565b6001600160801b0360608092805160020b8552602081015160020b602086015260018060a01b036040820151166040860152015116910152565b6001600160801b036101a08092805115158552602081015115156020860152604081015115156040860152606081015115156060860152608081015160020b608086015260a081015160020b60a086015260c081015160020b60c086015260e081015160e0860152610100810151610100860152610120810151610120860152610140810151610140860152610160810151610160860152610180810151610180860152015116910152565b9060018060a01b03825116815260018060a01b03602083015116602082015260018060a01b03604083015116604082015260018060a01b0360608301511660608201526080820151608082015260a0820151151560a082015260c082015160020b60c082015262ffffff60e08301511660e082015261026080611cc6610100850151610280610100860152610280850190611b26565b9360018060a01b036101208201511661012085015261014081015115156101408501526101608101511515610160850152610180810151151561018085015263ffffffff6101a0820151166101a085015264ffffffffff6101c0820151166101c085015264ffffffffff6101e0820151166101e0850152610200810151610200850152610220810151610220850152610240810151610240850152015191015290565b611e709060208152610440610140611d8f85516105e06020860152610600850190611c30565b94611da260208201516040860190611b4a565b60e060408201518051151560c08701526001600160801b03602082015116828701526040810151610100870152606081015161012087015260808101518487015260a081015161016087015260c081015160020b610180870152015160020b6101a085015260608101516101c085015260808101516101e085015260a081015161020085015260c0810151151561022085015260e081015160020b61024085015261010081015160020b610260850152611e66610120820151610280860190611b84565b0151910190611b84565b90565b3461062b57602036600319011261062b57611e8c6123e6565b5061020d610ceb600435613056565b606090600319011261062b57600435906024358060020b810361062b579060443562ffffff8116810361062b5790565b9181601f8401121561062b578235916001600160401b03831161062b576020808501948460051b01011161062b57565b9080602083519182815201916020808360051b8301019401925f915b838310611f2657505050505090565b9091929394602080611f44600193601f198682030187528951611b26565b97019301930191939290611f17565b3590811515820361062b57565b61010081019081106001600160401b0382111761066b57604052565b61018081019081106001600160401b0382111761066b57604052565b608081019081106001600160401b0382111761066b57604052565b6101c081019081106001600160401b0382111761066b57604052565b61028081019081106001600160401b0382111761066b57604052565b61016081019081106001600160401b0382111761066b57604052565b606081019081106001600160401b0382111761066b57604052565b90601f801991011681019081106001600160401b0382111761066b57604052565b6040519061205082611f98565b5f6060838281528260208201528260408201520152565b6040519061207482611fb3565b5f6101a0838281528260208201528260408201528260608201528260808201528260a08201528260c08201528260e082015282610100820152826101208201528261014082015282610160820152826101808201520152565b6001600160401b03811161066b57601f01601f191660200190565b91906101808382031261062b576040519061210282611f7c565b819361210d81611b12565b835261211b60208201611b12565b602084015261212c60408201611b12565b604084015261213d60608201611b12565b60608401526080810135608084015261215860a08201611f53565b60a084015260c08101358060020b810361062b5760c084015260e081013562ffffff8116810361062b5760e08401526101008101356001600160401b03811161062b57810182601f8201121561062b578035916121b4836120cd565b936121c26040519586612022565b8385526020848401011161062b57610160935f60208561221a968289970183860137830101526101008601526121fb6101208201611b12565b61012086015261220e6101408201611f53565b61014086015201611f53565b910152565b51906001600160a01b038216820361062b57565b5190811515820361062b57565b81601f8201121561062b57805190612257826120cd565b926122656040519485612022565b8284526020838301011161062b57815f9260208093018386015e8301015290565b51908160020b820361062b57565b51906001600160801b038216820361062b57565b919082608091031261062b576040516122c081611f98565b80926122cb81612286565b82526122d960208201612286565b60208301526040810151906001600160a01b038216820361062b57606061221a918193604086015201612294565b9190826101c091031261062b5760405161232081611fb3565b6101a061221a81839561233281612233565b855261234060208201612233565b602086015261235160408201612233565b604086015261236260608201612233565b606086015261237360808201612286565b608086015261238460a08201612286565b60a086015261239560c08201612286565b60c086015260e081015160e086015261010081015161010086015261012081015161012086015261014081015161014086015261016081015161016086015261018081015161018086015201612294565b604051906123f382611fcf565b5f610260838281528260208201528260408201528260608201528260808201528260a08201528260c08201528260e0820152606061010082015282610120820152826101408201528261016082015282610180820152826101a0820152826101c0820152826101e08201528261020082015282610220820152826102408201520152565b6040519061248482611feb565b8161248d6123e6565b8152612497612043565b60208201526040516124a881611f60565b5f81525f60208201525f60408201525f60608201525f60808201525f60a08201525f60c08201525f60e082015260408201525f60608201525f60808201525f60a08201525f60c08201525f60e08201525f610100820152612507612067565b61012082015261014061221a612067565b519062ffffff8216820361062b57565b519063ffffffff8216820361062b57565b519064ffffffffff8216820361062b57565b9190916102808184031261062b576040519061256682611fcf565b81936125718261221f565b835261257f6020830161221f565b60208401526125906040830161221f565b60408401526125a16060830161221f565b6060840152608082015160808401526125bc60a08301612233565b60a08401526125cd60c08301612286565b60c08401526125de60e08301612518565b60e0840152610100820151916001600160401b03831161062b57612609610260939284938301612240565b61010085015261261c610120820161221f565b61012085015261262f6101408201612233565b6101408501526126426101608201612233565b6101608501526126556101808201612233565b6101808501526126686101a08201612528565b6101a085015261267b6101c08201612539565b6101c085015261268e6101e08201612539565b6101e08501526102008101516102008501526102208101516102208501526102408101516102408501520151910152565b80820392916105e0841261062b57604051916126da83611feb565b82948151906001600160401b03821161062b576126fc8461010093850161254b565b855261270b84602085016122a8565b6020860152609f19011261062b576101409161042061221a9260405161273081611f60565b61273c60a08301612233565b815261274a60c08301612294565b602082015260e08201516040820152610100820151606082015261012082015160808201528582015160a08201526127856101608301612286565b60c08201526127976101808301612286565b60e082015260408701526101a081015160608701526101c081015160808701526101e081015160a08701526127cf6102008201612233565b60c08701526127e16102208201612286565b60e08701526127f36102408201612286565b610100870152612807836102608301612307565b61012087015201612307565b919060808382031261062b576040519061282c82611f98565b81936128378161221f565b835260208101516020840152604081015160408401526060810151916001600160401b03831161062b5760609261221a92016126bf565b60018060a01b0360015416815260018060a01b0360025416602082015260e060ff60035460018060a01b038116604085015261ffff8160a01c16606085015261ffff8160b01c16608085015263ffffffff8160c01c1660a085015261ffff81841c1660c085015260f01c161515910152565b60208183031261062b578051906001600160401b03821161062b570160e08183031261062b576040519160e083018381106001600160401b0382111761066b5760405261292c82612233565b835261293a60208301612286565b602084015261294b60408301612286565b60408401526060820151606084015261296660808301612528565b608084015260a08201516001600160401b03811161062b578161298a918401612813565b60a084015260c08201516001600160401b03811161062b576129ac92016126bf565b60c082015290565b6004356001600160a01b038116810361062b5790565b6024356001600160a01b038116810361062b5790565b6044356001600160a01b038116810361062b5790565b356001600160a01b038116810361062b5790565b60643561ffff8116810361062b5790565b60843561ffff8116810361062b5790565b60c43561ffff8116810361062b5790565b60a43563ffffffff8116810361062b5790565b60e435801515810361062b5790565b9060208282031261062b5781516001600160401b03811161062b57611e7092016126bf565b91939261ffff90612a9f604093606086526060860190611c30565b95602085015216910152565b6001600160401b03811161066b5760051b60200190565b90612acc82612aab565b612ad96040519182612022565b8281528092612aea601f1991612aab565b01905f5b828110612afa57505050565b806060602080938501015201612aee565b3d15612b35573d90612b1c826120cd565b91612b2a6040519384612022565b82523d5f602084013e565b606090565b8051821015612b4e5760209160051b010190565b634e487b7160e01b5f52603260045260245ffd5b604080516001600160a01b0390921660208301908152828201939093528152612b8c606082612022565b51902090565b60405190612b9f82612007565b5f6040838281528260208201520152565b929091612bbb612b92565b506001600160a01b038116938415612c8457813b15612c935792612bdf9293613b86565b15612c845760405163f3ae241560e01b81526001600160a01b039091166004820152602081602481855afa908115610620575f91612c4a575b5015612c3c5760405190612c2b82612007565b81525f60208201525f604082015290565b6282b42960e81b5f5260045ffd5b90506020813d602011612c7c575b81612c6560209383612022565b8101031261062b57612c7690612233565b5f612c18565b3d9150612c58565b630681d31960e51b5f5260045ffd5b6001600160a01b038381165f90815260086020526040902054949093612cc59350612cbf908690612b62565b90613e47565b168203612c845760405191612cd983612007565b825260208201526001604082015290565b6001600160a01b03918216815291166020820152606060408201819052611e7092910190611b26565b612d1b612043565b5015612f1257604081018051606083018051909492916001600160a01b039182169116148015612f00575b61136457612d88905f602085019461010060018060a01b0387511691015190604051808096819463bfad0ffd60e01b8352602060048401526024830190611b26565b03915afa908115610620575f91612ebd575b845181518751604051632d81396b60e11b8152949894955088949260809287926001600160a01b039283169284928392612dde928b92918116911660048501612cea565b03915afa938415610620575f94612e77575b50945190519451604051631692c68360e11b8152939560209385936001600160a01b039081169385938493612e2e9390928116911660048501612cea565b03915afa908115610620575f91612e43575090565b90506020813d602011612e6f575b81612e5e60209383612022565b8101031261062b57611e7090612286565b3d9150612e51565b9350919060803d608011612eb6575b612e908186612022565b84019260808585031261062b57612eac602094612e2e966122a8565b9450909192612df0565b503d612e86565b90503d805f843e612ece8184612022565b82019160208184031261062b578051926001600160401b03841161062b57612dde93612efa9201612240565b90612d9a565b5082516001600160a01b031615612d46565b631383dfd360e31b5f5260045ffd5b9060020b9060020b0190627fffff198212627fffff831317611aa557565b600291820b910b0390627fffff198212627fffff831317611aa557565b612f6590613e08565b805c612f71576001905d565b63a307a6c960e01b5f5260045ffd5b909291612f8b612477565b5060c0810151935f612f9c84613e08565b5d8151613002575060808160207fd9fb3dd2d9804173fa3c126efdf19a06182867bef634cc46aaa38dd42b0d5df693015160020b90604081015160020b9063ffffffff8460608301519201511691604051938452602084015260408301526060820152a2565b919060a00151907f1ff837d92e67b5457c73dd49a26d83fa61b23345a1d0936f4eb44137a7ab5e6d604060018060a01b03845116948160208601519501518251958652602086015260018060a01b031693a4565b61305e6123e6565b5f82815260056020526040902080546001600160a01b0316929183156132725750815f52600660205260405f20915f52600760205260405f2061309f6123e6565b93845260018060a01b03600183015416602085015260018060a01b03600283015416604085015260018060a01b036003830154166060850152600482015460808501526004830154918260a01c9160018316151560a08701528360020b60c087015262ffffff8460181c1660e0870152604051905f908054908160011c91600181168015613268575b6020841081146132545783865290811561322f57506001146131f4575b50509260039594928261316260049464ffffffffff970382612022565b610100890152600501546001600160a01b0316610120880152600281161515610140880152161515610160860152600483015460a01c6008161515151561018086015263ffffffff8160801c166101a0860152818160301c166101c086015260581c166101e0840152805461020084015260018101546102208401526002810154610240840152015461026082015290565b5f908152602081209092505b81831061321557505081016020018282613145565b600181602092949394548385880101520191019190613200565b60ff191660208087019190915292151560051b85019092019250849150839050613145565b634e487b7160e01b5f52602260045260245ffd5b92607f1692613128565b9250505090565b91909392936132928361328c8785612b62565b83613e47565b3b612c84576e5af43d82803e903d91602b57fd5bf36132b18684612b62565b91763d602d80600a3d3981f3363d3d373d3d3d363d7300000062ffffff8260881c16175f5260781b17602052603760095ff56001600160a01b0381169490851561334e5794803b1561062b576040516305e52ecf60e21b81526001600160a01b03938416600482015293909216602484015260448301525f908290606490829084905af18015610620576133425750565b5f61334c91612022565b565b63b06ebf3d60e01b5f5260045ffd5b61336f906133696123e6565b5061338b565b9061018082015161337c57565b635c1c6f4b60e11b5f5260045ffd5b61339d906133976123e6565b50613056565b80519091906001600160a01b03161561337c57565b816133de917f000000000000000000000000000000000000000000000000000000000000000030613ea9565b9060408201516133f7575b50516001600160a01b031690565b602082015182516001600160a01b0390811692167f019b61d9140f8784f4eed1e66569335630452af2d974ceb13d3e706c078672965f80a45f6133e9565b61343d612043565b5080516001600160a01b039081165f90815260096020526040902054825190939161346a91859116612b62565b9161347483612f5c565b6020810160018060a01b038151165f52600460205260ff60405f205416613499612043565b508015612f125760808301511561360c57604083015160608401516001600160a01b0390811691161480156135fa575b80156135e9575b61136457826134de91612d13565b925160405163220984b760e21b81526020600482018190529395929493909182906001600160a01b03168180613517602482018b611b26565b03915afa908115610620575f916135af575b5062ffffff80613545865160020b602088015160020b90613f61565b92169116116135a05761356d60a0820151151560c0855160020b930192835160020b91613cf6565b15613591578161358791845160020b905160020b90613d11565b1561359157909192565b63034b254960e21b5f5260045ffd5b63a02399e560e01b5f5260045ffd5b90506020813d6020116135e1575b816135ca60209383612022565b8101031261062b576135db90612518565b5f613529565b3d91506135bd565b5062ffffff60e084015116156134d0565b5082516001600160a01b0316156134c9565b633d5eb0f760e11b5f5260045ffd5b60a0810151604082015160608301516001600160a01b0391821692911690156136bd5750905b80516040516370a0823160e01b81526001600160a01b0391821660048201529260209184916024918391165afa918215610620575f92613688575b50608001511161360c57565b9091506020813d6020116136b5575b816136a460209383612022565b8101031261062b575190608061367c565b3d9150613697565b905090613641565b919395949290956136d4612477565b5060018060a01b038751165f5260096020526001850160405f2055865f604051808094634adc57a760e01b8252876004830152600560248301526006604483015260076064830152610160608483015260018060a01b03855116610164830152602085019860018060a01b038a511661018484015260018060a01b036040870151166101a484015260018060a01b036060870151166101c484015260808601516101e484015261381961380e60a08801978851151561020487015260c081019a8b5160020b61022488015262ffffff60e0830151166102448801526101606137cf6101008401516101806102648b01526102e48a0190611b26565b6101208401516001600160a01b03166102848a015261014084015115156102a48a015292015115156102c48801528682036003190160a4880152611b26565b9260c4850190611b4a565b60020b610144830152038173__$add7f94cc337bcb3a89b97c59b57f9cbbe$__5af4928315610620577f934dbf1ec6695ba193179e96089e300ef77bd40f2dafdb6702414cf3e1fd3585936060935f916138ab575b50985f61387a87613e08565b5d51955191519051604080516001600160a01b039485168152921515602084015260029190910b90820152941693a4565b6138bf91503d805f833e6103b18183612022565b5f61386e565b91908203918211611aa557565b60a0810151604082015160608301515f9594926001600160a01b03928316929091169015613b7f57505b82516040516370a0823160e01b81526001600160a01b039182166004820152911693602082602481885afa918215610620575f92613b4b575b5060808401908151831015613b3e5761394f8383516138c5565b9381613a73575b50505050604051636eb1769f60e11b8152336004820152306024820152602081604481875afa908115613a68578591613a36575b5015613a305790516040516323b872dd60e01b81523360048201526001600160a01b0390911660248201526044810191909152906020908290606490829086905af19081156103c05782916139f2575b50156139e35750565b6312171d8360e31b8152600490fd5b90506020813d602011613a28575b81613a0d60209383612022565b81010312613a2457613a1e90612233565b5f6139da565b5080fd5b3d9150613a00565b50505050565b90506020813d602011613a60575b81613a5160209383612022565b8101031261062b57515f61398a565b3d9150613a44565b6040513d87823e3d90fd5b60018060a096939495961b03169081871490811591613b34575b50613b255784516001600160a01b031690813b1561062b57829160245f926040519485938492632479d86360e01b845260048401525af1801561062057613b10575b508201809211613afc57519081811015613af557613aec916138c5565b5f808080613956565b5050505050565b634e487b7160e01b85526011600452602485fd5b613b1d9196505f90612022565b5f945f613acf565b631391f4e160e11b5f5260045ffd5b905082115f613a8d565b95505050505050613b2557565b9091506020813d602011613b77575b81613b6760209383612022565b8101031261062b5751905f613935565b3d9150613b5a565b90506138fc565b9091803b15613cb357604051630d96a1bf60e21b81526001600160a01b03919091169290602081600481875afa5f9181613cba575b50613bc857505050505f90565b6001600160a01b03838116911603613cb357604051638da5cb5b60e01b815291602083600481875afa928315610620575f93613c77575b50604051632986c0e560e01b815291602083600481885afa928315610620575f93613c41575b506001600160a01b0393613c3c93612cbf91612b62565b161490565b92506020833d602011613c6f575b81613c5c60209383612022565b8101031261062b57915191612cbf613c25565b3d9150613c4f565b9092506020813d602011613cab575b81613c9360209383612022565b8101031261062b57613ca49061221f565b915f613bff565b3d9150613c86565b5050505f90565b9091506020813d602011613cee575b81613cd660209383612022565b8101031261062b57613ce79061221f565b905f613bbb565b3d9150613cc9565b15613d065760020b9060020b1390565b60020b9060020b1290565b918060020b915f83139384613d28575b5050505090565b5f9293945090613d3791613f61565b921215613d53575062ffffff805f5b169116115f808080613d21565b62ffffff80918116613d46565b9060020b908115613d725760020b0790565b634e487b7160e01b5f52601260045260245ffd5b90613d918183613d60565b908160020b15613dc2575f8360020b12613daf5750611e7091612f3f565b90613dbd90611e7093612f3f565b612f3f565b505090565b613dd18282613d60565b908160020b15613e02575f8160020b12613df857611e709291613df391612f3f565b612f21565b611e709250612f3f565b91505090565b60405160208101917f969e96255d71bb179335ea2dca79095fe79b3447028faee4f511f3646d589d0e8352604082015260408152612b8c606082612022565b60405160388101939093526f5af43d82803e903d91602b57fd5bf3ff60248401526014830152733d602d80600a3d3981f3363d3d373d3d3d363d73825260588201526037600c820120607882015260556043909101206001600160a01b031690565b929091613eb4612b92565b506001600160a01b038116928315612c8457813b15613ed857612bdf929394613b86565b6001600160a01b038084165f818152600860205260409020549096909592949093509190613f1084613f0a8886612b62565b87613e47565b1603612c8457613f21928492613279565b916001820190818311611aa5575f52600860205260405f205560405191613f4783612007565b6001600160a01b0316825260208201526001604082015290565b600282810b9082900b12613f815790613f7991612f3f565b62ffffff1690565b613f7991612f3f56fea26469706673582212203056d9189e74ea0f818ebb8f7ae8ba6e0780dadcb3b3e4486b3320547bf338c564736f6c634300081c003360808060405234602757600180546001600160a01b03191681179055611bee908161002c8239f35b5f80fdfe6080604052600436101561001a575b3615610018575f80fd5b005b5f3560e01c806307b18bde14611277578063150b7a02146112215780631794bb3c146111c45780632479d863146111955780632986c0e514611178578063365a86fc1461115057806345f67ac714610f485780635778472a14610f0c5780636dbf2fa014610e9b57806372b42e4a14610d3d5780638da5cb5b14610d16578063a9aa177a14610ca4578063c414f9ab14610273578063d9caed12146101fc578063f3ae2415146101a8578063f3fef3a3146101155763fd66091e0361000e5734610111576020366003190112610111576001600160a01b036100fa6112af565b165f526003602052602060405f2054604051908152f35b5f80fd5b346101115760403660031901126101115761012e6112af565b600154602435906001600160a01b03163303610199575f5461015b9082906001600160a01b031684611b1d565b5f546040519182526001600160a01b039081169216907f7b2929a0129e91c002be982e70bea0ff69b1dda1722507dc5b60490b134a985b90602090a3005b6313bd2e8360e31b5f5260045ffd5b34610111576020366003190112610111576101c16112af565b5f546001600160a01b039182169116811480156101e6575b6020906040519015158152f35b505f526003602052602060405f205442106101d9565b346101115761020a36611308565b5f549091906001600160a01b031633036102645760208161024d847f7b2929a0129e91c002be982e70bea0ff69b1dda1722507dc5b60490b134a985b9487611b1d565b6040519384526001600160a01b03908116941692a3005b6330cd747160e01b5f5260045ffd5b34610111576101e0366003190112610111576004356101c0366023190112610111575f60c06040516102a4816114de565b8281528260208201528260408201528260608201528260808201528260a0820152015260018060a01b03600154163303610199576102e181611afe565b6040818101805191516370a0823160e01b815230600482015291602090839060249082906001600160a01b03165afa9182156107b8575f92610c70575b506060830180516040516370a0823160e01b8152306004820152919390602090839060249082906001600160a01b03165afa9182156107b8575f92610c3c575b5060208501805160405163dd128b4560e01b815230600482015261020060248201529591906001600160a01b031661039a610204880189611396565b906103a36114cf565b151560448901526044358015158091036101115760648901526064358015158091036101115760848901526084358015158091036101115760a489015260a4358060020b8091036101115760c489015260c4358060020b8091036101115760e489015260e4358060020b8091036101115761010489015261010435610124890152610124356101448901526101443561016489015261016435610184890152610184356101a48901526101a4356101c48901526101c435906001600160801b0382168092036101115788805f9481946101e483015203915afa9586156107b8575f966109d3575b505161010096909601516020860151805191976001600160a01b0316916104b081611676565b916104be6040519384611530565b818352601f196104cd83611676565b015f5b8181106109af5750505f5b828110610906575050509661050b97604051988992633094234560e21b8452604060048501526044840190611372565b600319838203016024840152815180825260208201906020808260051b8501019401925f905b8282106108a45750505050509181805f9403915afa9384156107b8575f965f956107f8575b50516040516370a0823160e01b8152306004820152929190602090849060249082906001600160a01b03165afa9283156107b8575f936107c3575b50516040516370a0823160e01b815230600482015290602090829060249082906001600160a01b03165afa9081156107b8575f91610786575b508282111561077f576105dd83836117e6565b925b6080880193845281851115610778576105f882866117e6565b925b60a089019384528082111561076f57610612916117e6565b935b60408801948552808211156107665761062c916117e6565b915b60608701958387525192845161012085015111908115610757575b506107275760c08701926001600160801b038451166001600160801b036101a08301511611908115610747575b8115610736575b5061072757610723956001600160801b039485855116997fa0c70d4829a8b834fbbd91682504ef9833ef47bda7a9ab9c60e33e7d3318b25b60a08b519c60208d019d8e518651908851926040519485526020850152604084015260608301526080820152a2604051998a99518a525160208a01525160408901525160608801525160808701525160a0860152511660c084015261010060e0840152610100830190611372565b0390f35b6329adbb2960e01b5f5260045ffd5b90506101808351910151118961067d565b8251610160820151119150610676565b90506101408401511189610649565b50505f9161062e565b50505f93610614565b5f926105fa565b5f926105df565b90506020813d6020116107b0575b816107a160209383611530565b810103126101115751886105ca565b3d9150610794565b6040513d5f823e3d90fd5b9092506020813d6020116107f0575b816107df60209383611530565b810103126101115751916020610591565b3d91506107d2565b96509350903d805f883e61080c8188611530565b86019186830361010081126101115760e013610111576040519661082f886114de565b805188526020810151602089015260408101516040890152606081015160608901526080810151608089015260a081015160a089015261087160c0820161175d565b60c089015260e0810151906001600160401b0382116101115760249460209261089a92016117a0565b9591929350610556565b919395509193601f1982820301855285519081519160048310156108f2576108e2826040602080959460019782965201519181858201520190611372565b9701950192018c95949391610531565b634e487b7160e01b5f52602160045260245ffd5b5f806001600160a01b0361091a848661169d565b5151166020610929858761169d565b510151906040610939868861169d565b51015191602083519301915af19061094f611807565b91156109a0576060610961828561169d565b51015160048110156108f2576001926040519161097d836114f9565b8252602082015261098e828761169d565b52610999818661169d565b50016104db565b633204506f60e01b5f5260045ffd5b6020906040516109be816114f9565b5f8152606083820152828288010152016104d0565b9095503d805f833e6109e58183611530565b810190602081830312610111578051906001600160401b038211610111570190818103916101e08312610111576101c060405193610a22856114f9565b12610111576040516101c081018181106001600160401b03821117610c2857604052610a4d82611742565b8152610a5b60208301611742565b6020820152610a6c60408301611742565b6040820152610a7d60608301611742565b6060820152610a8e6080830161174f565b6080820152610a9f60a0830161174f565b60a0820152610ab060c0830161174f565b60c082015260e082015160e0820152610100820151610100820152610120820151610120820152610140820151610140820152610160820151610160820152610180820151610180820152610b086101a0830161175d565b6101a082015283526101c0810151906001600160401b03821161011157019080601f8301121561011157815191610b3e83611676565b92610b4c6040519485611530565b80845260208085019160051b830101918383116101115760208101915b838310610b8657505050505090610100916020820152959061048a565b82516001600160401b038111610111578201906080828703601f1901126101115760405191608083018381106001600160401b03821117610c2857604052610bd060208201611771565b8352604081015160208401526060810151906001600160401b03821161011157610c018860206080948401016117a0565b60408501520151906004821015610111578260209392606085940152815201920191610b69565b634e487b7160e01b5f52604160045260245ffd5b9091506020813d602011610c68575b81610c5860209383611530565b810103126101115751908661035e565b3d9150610c4b565b9091506020813d602011610c9c575b81610c8c60209383611530565b810103126101115751908461031e565b3d9150610c7f565b3461011157604036600319011261011157610cbd6112af565b5f5460243591906001600160a01b031633036102645760207fbaef45cead810df032ca6f6dc22d0fa78f7bc08a3e2f3177cfe2f37f4b08071a9160018060a01b031692835f52600382528060405f2055604051908152a2005b34610111575f366003190112610111575f546040516001600160a01b039091168152602090f35b3461011157608036600319011261011157600435610d596114cf565b6044356001600160a01b0381169290918383036101115760015460643593906001600160a01b0316330361019957610d9083611afe565b8215610e875760408101516001600160a01b0316925b15610e7d5761020001515b84118015610e0f575b610e005781610ded856020937f793c11e287e20a769c8d4fe3f2d50cbaac9672c5017dff726c11ef5df3fe21ed95611b1d565b6040519485526001600160a01b031693a4005b63e5baf2c160e01b5f5260045ffd5b506040516370a0823160e01b81523060048201526020816024816001600160a01b0387165afa9081156107b8575f91610e4b575b508411610dba565b90506020813d602011610e75575b81610e6660209383611530565b81010312610111575186610e43565b3d9150610e59565b6102200151610db1565b60608101516001600160a01b031692610da6565b3461011157606036600319011261011157610eb46112af565b6044356001600160401b03811161011157610ed39036906004016112db565b5f549192916001600160a01b031633036102645761072392610ef89260243590611836565b604051918291602083526020830190611372565b3461011157602036600319011261011157610f256116b1565b50610723610f346004356118e5565b604051918291602083526020830190611396565b34610111576060366003190112610111576004356001600160401b03811161011157610f78903690600401611342565b6024356001600160401b03811161011157610f97903690600401611342565b926044356001600160401b03811161011157610fb7903690600401611342565b5f54909291906001600160a01b0316330361026457858514801590611146575b61113757610fe6859295611676565b95610ff46040519788611530565b828752601f1961100384611676565b015f5b81811061112457505036829003601e1901925f5b81811061108857886040518091602082016020835281518091526040830190602060408260051b8601019301915f905b82821061105957505050500390f35b919360019193955060206110788192603f198a82030186528851611372565b960192019201859493919261104a565b61109381838a61168d565b35906001600160a01b0382168203610111576110b081858a61168d565b359187821015611110578160051b860135878112156101115786018035906001600160401b038211610111576020018136038113610111576001946110f493611836565b6110fe828c61169d565b52611109818b61169d565b500161101a565b634e487b7160e01b5f52603260045260245ffd5b60606020828b0181019190915201611006565b63ca3487f760e01b5f5260045ffd5b5082851415610fd7565b34610111575f366003190112610111576001546040516001600160a01b039091168152602090f35b34610111575f366003190112610111576020600254604051908152f35b6020366003190112610111576111a96112af565b6001546001600160a01b031633036101995761001890611625565b34610111576111d236611308565b60015490929091906001600160a01b038316611213575f80546001600160a01b039283166001600160a01b0319918216179091559116911617600155600255005b62dc149f60e41b5f5260045ffd5b346101115760803660031901126101115761123a6112af565b506112436112c5565b506064356001600160401b038111610111576112639036906004016112db565b5050604051630a85bd0160e11b8152602090f35b34610111576040366003190112610111576112906112af565b6001546001600160a01b03163303610199576100189060243590611551565b600435906001600160a01b038216820361011157565b602435906001600160a01b038216820361011157565b9181601f84011215610111578235916001600160401b038311610111576020838186019501011161011157565b6060906003190112610111576004356001600160a01b038116810361011157906024356001600160a01b0381168103610111579060443590565b9181601f84011215610111578235916001600160401b038311610111576020808501948460051b01011161011157565b805180835260209291819084018484015e5f828201840152601f01601f1916010190565b9060018060a01b03825116815260018060a01b03602083015116602082015260018060a01b03604083015116604082015260018060a01b0360608301511660608201526080820151608082015260a0820151151560a082015260c082015160020b60c082015262ffffff60e08301511660e08201526102608061142c610100850151610280610100860152610280850190611372565b9360018060a01b036101208201511661012085015261014081015115156101408501526101608101511515610160850152610180810151151561018085015263ffffffff6101a0820151166101a085015264ffffffffff6101c0820151166101c085015264ffffffffff6101e0820151166101e0850152610200810151610200850152610220810151610220850152610240810151610240850152015191015290565b60243590811515820361011157565b60e081019081106001600160401b03821117610c2857604052565b604081019081106001600160401b03821117610c2857604052565b61028081019081106001600160401b03821117610c2857604052565b90601f801991011681019081106001600160401b03821117610c2857604052565b6001600160a01b03165f811561161657821561161157813b1561011157604051632e1a7d4d60e01b8152600481018490525f8160248183875af180156107b8576115fe575b50808080808660018060a01b038254165af16115b0611807565b50156115ef57546040519283526001600160a01b0316917f7b2929a0129e91c002be982e70bea0ff69b1dda1722507dc5b60490b134a985b90602090a3565b6312171d8360e31b8152600490fd5b61160a91505f90611530565b5f5f611596565b505050565b637c39320360e11b5f5260045ffd5b6001600160a01b0316801561161657341561167357803b15610111575f60049160405192838092630d0e30db60e41b825234905af180156107b8576116675750565b5f61167191611530565b565b50565b6001600160401b038111610c285760051b60200190565b91908110156111105760051b0190565b80518210156111105760209160051b010190565b604051906116be82611514565b5f610260838281528260208201528260408201528260608201528260808201528260a08201528260c08201528260e0820152606061010082015282610120820152826101408201528261016082015282610180820152826101a0820152826101c0820152826101e08201528261020082015282610220820152826102408201520152565b5190811515820361011157565b51908160020b820361011157565b51906001600160801b038216820361011157565b51906001600160a01b038216820361011157565b6001600160401b038111610c2857601f01601f191660200190565b81601f82011215610111578051906117b782611785565b926117c56040519485611530565b8284526020838301011161011157815f9260208093018386015e8301015290565b919082039182116117f357565b634e487b7160e01b5f52601160045260245ffd5b3d15611831573d9061181882611785565b916118266040519384611530565b82523d5f602084013e565b606090565b919290925f806040518484823780858101838152039087875af193611859611807565b94156109a0576118cd6080847ff14109828d5d815638dc9502c935e53577ad503b62f45ab30bc6ff401e954acd95604051958695865260606020870152816060870152838601375f848201830152601f01601f19168301838103820160408501526001600160a01b03909616950186611372565b0390a290565b519064ffffffffff8216820361011157565b906118ee6116b1565b50600154604051632bbc239560e11b815260048101939093525f90839060249082906001600160a01b03165afa9182156107b8575f9261194c575b5081516001600160a01b0316300361193d57565b635c1c6f4b60e11b5f5260045ffd5b9091503d805f833e61195e8183611530565b810190602081830312610111578051906001600160401b038211610111570161028081830312610111576040519161199583611514565b61199e82611771565b83526119ac60208301611771565b60208401526119bd60408301611771565b60408401526119ce60608301611771565b6060840152608082015160808401526119e960a08301611742565b60a08401526119fa60c0830161174f565b60c084015260e082015162ffffff811681036101115760e0840152610100820151906001600160401b03821161011157611a359183016117a0565b610100830152611a486101208201611771565b610120830152611a5b6101408201611742565b610140830152611a6e6101608201611742565b610160830152611a816101808201611742565b6101808301526101a08101519063ffffffff8216820361011157610260916101a0840152611ab26101c082016118d3565b6101c0840152611ac56101e082016118d3565b6101e08401526102008101516102008401526102208101516102208401526102408101516102408401520151610260820152905f611929565b611b1090611b0a6116b1565b506118e5565b9061018082015161193d57565b9180156116115760405163a9059cbb60e01b81526001600160a01b039283166004820152602481019190915291602091839160449183915f91165af19081156107b8575f91611b7e575b5015611b6f57565b6312171d8360e31b5f5260045ffd5b90506020813d602011611bb0575b81611b9960209383611530565b8101031261011157611baa90611742565b5f611b67565b3d9150611b8c56fea264697066735822122002b5783a492e487976d0e3a5865e91c4edfab89f76bfedeae692a98040662a1a64736f6c634300081c0033",
  "linkReferences": {
    "project/contracts/libraries/_RerangeHubEngine.sol": {
      "RerangeHubEngine": [
        {
          "length": 20,
          "start": 4377
        },
        {
          "length": 20,
          "start": 5494
        },
        {
          "length": 20,
          "start": 5643
        },
        {
          "length": 20,
          "start": 14658
        }
      ]
    },
    "project/contracts/libraries/_RerangeHubViews.sol": {
      "RerangeHubViews": [
        {
          "length": 20,
          "start": 1156
        },
        {
          "length": 20,
          "start": 2900
        },
        {
          "length": 20,
          "start": 4031
        },
        {
          "length": 20,
          "start": 4548
        },
        {
          "length": 20,
          "start": 6300
        }
      ]
    }
  },
  "deployedLinkReferences": {
    "project/contracts/libraries/_RerangeHubEngine.sol": {
      "RerangeHubEngine": [
        {
          "length": 20,
          "start": 4093
        },
        {
          "length": 20,
          "start": 5210
        },
        {
          "length": 20,
          "start": 5359
        },
        {
          "length": 20,
          "start": 14374
        }
      ]
    },
    "project/contracts/libraries/_RerangeHubViews.sol": {
      "RerangeHubViews": [
        {
          "length": 20,
          "start": 872
        },
        {
          "length": 20,
          "start": 2616
        },
        {
          "length": 20,
          "start": 3747
        },
        {
          "length": 20,
          "start": 4264
        },
        {
          "length": 20,
          "start": 6016
        }
      ]
    }
  },
  "immutableReferences": {
    "746": [
      {
        "length": 32,
        "start": 1922
      },
      {
        "length": 32,
        "start": 2015
      },
      {
        "length": 32,
        "start": 4352
      },
      {
        "length": 32,
        "start": 5728
      },
      {
        "length": 32,
        "start": 13241
      }
    ]
  },
  "inputSourceName": "project/contracts/RerangeHub.sol",
  "buildInfoId": "solc-0_8_28-ff1db7398471e457688528cf81fedb77b0e7b1d4"
}